:020000040000FA
:1000000061EF3BF01200FFFFFFFFFFFFFFFFFFFF6D
:10001000FFFFFFFFFFFFFFFFE3EF2EF01200FFFFE8
:10002000FFFFFFFFFFFFFFFFFFFF11001B78000036
:10003000B60100000100000076770000000100001A
:10004000A500000075770000B50100000100000068
:1000500064770000BC00000011000000637700001E
:10006000B40100000100000062770000B30100004D
:100070000100000061770000B201000001000000F3
:1000800060770000B1010000010000005F77000010
:10009000B0010000010000005E770000AF01000029
:1000A000010000005D770000AE01000001000000CB
:1000B00057770000A50100000600000056770000F9
:1000C000AD0100000100000035770000AC01000028
:1000D000010000004E770000F3000000080000005F
:1000E0004A770000F0030000040000004877000099
:1000F000FE00000002000000D9CFE6FFE1CFD9FFEB
:100100001A0EE126010EDF6EDE523C0EDD6E2F0E62
:10011000F36E020EF3CFDBFF3E0EF36E030EF3CF52
:10012000DBFFD950040FE96EDACFEAFF300EEE6E36
:10013000300EEE6E300EEE6EEE6AD950080FE96E9C
:10014000DACFEAFF300EEE6E300EEE6E310EEE6E4E
:10015000EE6AD9500C0FE96EDACFEAFF300EEE6E80
:10016000300EEE6E320EEE6EEE6AD950100FE96E62
:10017000DACFEAFF670EEE6E720EEE6E610EEE6E75
:100180006E0EEE6E740EEE6E650EEE6E640EEE6E1C
:10019000EE6AF60EF36E180EF3CFDBFF190EDB6876
:1001A000ACA2EBEF0BF00101B551030A02E1D9EF6C
:1001B0000BF0610A02E1CCEF0BF0030A02E1AAEFB7
:1001C0000BF0010A02E19DEF0BF03F0A02E190EF14
:1001D0000BF0010A02E16EEF0BF0030A02E161EF9E
:1001E0000BF0010A02E13FEF0BF0070A02E132EFE8
:1001F0000BF0010A02E11DEF0BF0030A02E110EF20
:100200000BF0010A02E1EEEF0AF00F0A02E1E1EF62
:100210000AF0010A02E1D4EF0AF0030A02E1D1EF89
:100220000AF0010A02E1C4EF0AF0070A02E1A2EFB4
:100230000AF0010A02E195EF0AF0030A02E181EFF8
:100240000AF0010A02E174EF0AF01F0A02E152EF1C
:100250000AF0010A02E145EF0AF0030A02E138EF71
:100260000AF0010A02E1C5EF09F0070A02E1B8EF5E
:1002700009F0010A02E196EF09F0030A02E189EFB1
:1002800009F0010A02E174EF09F00F0A02E167EFD9
:1002900009F0010A02E145EF09F0030A02E138EF33
:1002A00009F0010A02E12BEF09F0070A02E109EF68
:1002B00009F0010A02E1FCEF08F0030A02E1DAEFBB
:1002C00008F0010A02E1CDEF08F07F0A02E1B8EF81
:1002D00008F0010A02E1ABEF08F0030A02E189EF3E
:1002E00008F0010A02E17CEF08F0070A02E16FEF73
:1002F00008F0010A02E120EF08F0030A02E113EF1F
:1003000008F0010A02E1F1EF07F00F0A02E1E4EF61
:1003100007F0010A02E1CEEF07F0030A02E1C0EFA5
:1003200007F0010A02E19DEF07F0070A02E18FEFF3
:1003300007F0010A02E181EF07F0030A02E159EF39
:1003400007F0010A02E14CEF07F01F0A02E13EEF5D
:1003500007F0010A02E11BEF07F0030A02E10DEFCB
:1003600007F0010A02E1F3EF06F0070A02E1E5EF08
:1003700006F0010A02E1C2EF06F0030A02E1B4EF5F
:1003800006F0010A02E1A6EF06F00F0A02E132EFE1
:1003900006F0010A02E124EF06F0030A02E101EF90
:1003A00006F0010A02E1F3EF05F0070A02E1DDEFD2
:1003B00005F0010A01E1F3D3030A01E1CDD3010AFB
:1003C00001E1BCD33F0A01E1ABD3010A01E17ED3D5
:1003D000030A01E155D3010A01E12FD3070A01E124
:1003E0001ED3010A01E106D3030A01E1F5D2010A95
:1003F00001E1CFD20F0A01E1BED2010A01E1ADD283
:10040000030A01E182D2010A01E157D2070A01E1A0
:100410002CD2010A01E1F3D1030A01E1E2D1010A80
:1004200001E1BCD11F0A01E1ABD1010A01E19AD17E
:10043000030A01E174D1010A01E163D1070A01E174
:1004400052D1010A01E127D1030A01E1FCD0010ADE
:1004500001E1D1D00F0A01E17FD0010A6FE0030A68
:100460004AE0010A3AE0060A0FE0030A02E0EBEF75
:100470000BF035EC15F0000904E10101020EB56F37
:1004800001D0DF6AEBEF0BF00E0EE12692EC15F0D7
:10049000EECFDAF3EECFDBF3EECFDCF3EECFDDF32E
:1004A000EECFDEF3EECFDFF3EECFE0F3EECFE1F30E
:1004B000EECFE2F3EECFE3F3EECFE4F3EECFE5F3EE
:1004C000EECFE6F3EECFE7F3146E0E0EE15E1450BE
:1004D0000101040EB56FEBEF0BF0010EDBCFE6FF71
:1004E0000BEC3BF0E5520101050EB56F0301EC6B1F
:1004F000ED6BEBEF0BF00301020EEC5D000EED591E
:1005000012E2000E0301EC25E96E010E0301ED215C
:10051000EA6EEF50E66E0BEC3BF0E5520301EC2B7C
:10052000000EED2309D00301020EEC1901E1ED519B
:1005300003E10101060EB56FEBEF0BF0030EDBCF0D
:10054000E6FF0BEC3BF0E5520101070EB56F03012E
:10055000EC6BED6BEBEF0BF08CEC3BF00301DC5D37
:100560001AE08CEC3BF00301DD5D15E00301DC518A
:100570000DE0020A07E0030A01E00CD00101080EB9
:10058000B56F08D00101090EB56F04D001010A0E44
:10059000B56F00D02ED08CEC3BF00301DC5D15E193
:1005A0000301DD510DE0020A07E0030A01E00CD06F
:1005B0000101080EB56F08D00101090EB56F04D016
:1005C00001010A0EB56F00D014D00301DC510DE01B
:1005D000020A07E0030A01E00CD00101080EB56F22
:1005E00008D00101090EB56F04D001010A0EB56FE4
:1005F00000D0EBEF0BF00301030EEC5D000EED59A4
:1006000017E2D950080F146EDACF15F01450030119
:10061000EC25E96E15500301ED21EA6EEF50E66E10
:100620000BEC3BF0E5520301EC2B000EED2309D05F
:100630000301030EEC1901E1ED5103E101010B0E81
:10064000B56FEBEF0BF00301030EEC5D000EED59FF
:1006500017E2D9500C0F146EDACF15F014500301C5
:10066000EC25E96E15500301ED21EA6EEF50E66EC0
:100670000BEC3BF0E5520301EC2B000EED2309D00F
:100680000301030EEC1901E1ED5103E101010B0E31
:10069000B56FEBEF0BF00301030EEC5D000EED59AF
:1006A00017E2D950040F146EDACF15F0145003017D
:1006B000EC25E96E15500301ED21EA6EEF50E66E70
:1006C0000BEC3BF0E5520301EC2B000EED2309D0BF
:1006D0000301030EEC1901E1ED5103E101010B0EE1
:1006E000B56FEBEF0BF0010EDBCFE6FF0BEC3BF051
:1006F000E55201010C0EB56F0301EC6BED6BEBEFF6
:100700000BF0020EDBCFE6FF0BEC3BF0E5520101F4
:100710000D0EB56F0301EC6BED6BEBEF0BF003010E
:10072000020EEC5D000EED5912E2000E0301EC2505
:10073000E96E010E0301ED21EA6EEF50E66E0BEC5F
:100740003BF0E5520301EC2B000EED2309D0030131
:10075000020EEC1901E1ED5103E101010E0EB56F3E
:10076000EBEF0BF0030EDBCFE6FF0BEC3BF0E552BB
:1007700001010F0EB56F0301EC6BED6BEBEF0BF0AE
:10078000010EDBCFE6FF0BEC3BF0E5520101100E52
:10079000B56F0301EC6BED6BEBEF0BF00301040E97
:1007A000EC5D000EED5912E2030E0301EC25E96E3B
:1007B000010E0301ED21EA6EEF50E66E0BEC3BF00B
:1007C000E5520301EC2B000EED2309D00301040ECA
:1007D000EC1901E1ED5103E10101110EB56FEBEFF1
:1007E0000BF0030EDBCFE6FF0BEC3BF0E552010113
:1007F000120EB56F0301EC6BED6BEBEF0BF08CECB5
:100800003BF00301DC5D1AE08CEC3BF00301DD5DA5
:1008100015E00301DD510DE0020A07E0030A01E0E3
:100820000CD00101130EB56F08D00101140EB56F85
:1008300004D00101150EB56F00D015D08CEC3BF043
:10084000000A0DE0020A07E0030A01E00CD00101F2
:10085000130EB56F08D00101140EB56F04D001015D
:10086000150EB56F00D0EBEF0BF00301030EEC5D3E
:10087000000EED5917E2D950080F146EDACF15F0BB
:1008800014500301EC25E96E15500301ED21EA6EC9
:10089000EF50E66E0BEC3BF0E5520301EC2B000E43
:1008A000ED2309D00301030EEC1901E1ED5103E141
:1008B0000101160EB56FEBEF0BF00301030EEC5DBB
:1008C000000EED5917E2D9500C0F146EDACF15F067
:1008D00014500301EC25E96E15500301ED21EA6E79
:1008E000EF50E66E0BEC3BF0E5520301EC2B000EF3
:1008F000ED2309D00301030EEC1901E1ED5103E1F1
:100900000101160EB56FEBEF0BF00301030EEC5D6A
:10091000000EED5917E2D950040F146EDACF15F01E
:1009200014500301EC25E96E15500301ED21EA6E28
:10093000EF50E66E0BEC3BF0E5520301EC2B000EA2
:10094000ED2309D00301030EEC1901E1ED5103E1A0
:100950000101160EB56FEBEF0BF0010EDBCFE6FFDA
:100960000BEC3BF0E5520101170EB56F0301EC6B88
:10097000ED6BEBEF0BF0020EDBCFE6FF0BEC3BF089
:10098000E5520101180EB56F0301EC6BED6BEBEF57
:100990000BF00301040EEC5D000EED5912E2030EA4
:1009A0000301EC25E96E010E0301ED21EA6EEF5023
:1009B000E66E0BEC3BF0E5520301EC2B000EED2351
:1009C00009D00301040EEC1901E1ED5103E101012D
:1009D000190EB56FEBEF0BF0030EDBCFE6FF0BEC60
:1009E0003BF0E55201011A0EB56F0301EC6BED6BA4
:1009F000EBEF0BF0DFC314F0E0C315F0180EDB5083
:100A0000141803E1190EDB50151804E10101230E3F
:100A1000B56F03D001011B0EB56FEBEF0BF0010EAC
:100A2000DBCFE6FF0BEC3BF0E55201011C0EB56F8E
:100A30000301EC6BED6BEBEF0BF00301050EEC5DCE
:100A4000000EED5912E22A0E0301EC25E96E010EAB
:100A50000301ED21EA6EEF50E66E0BEC3BF0E55240
:100A60000301EC2B000EED2309D00301050EEC1958
:100A700001E1ED5103E101011D0EB56FEBEF0BF04C
:100A8000030EDBCFE6FF0BEC3BF0E55201011E0E3F
:100A9000B56F0301EC6BED6BDFC3E6FFE0C3E6FF70
:100AA000FA0EE66E760EE66E000EE66EE80EE66E66
:100AB000030EE66EB8EC37F0146E070EE15E1450CC
:100AC000F3CFEEF3F4CFEFF3EBEF0BF00301EE51C6
:100AD0000301EC5D0301EF510301ED5912E2E80E51
:100AE0000301EC25E96E030E0301ED21EA6EEF50E0
:100AF000E66E0BEC3BF0E5520301EC2B000EED2310
:100B00000DD00301EE510301EC1904E10301EF5193
:100B10000301ED1903E101011F0EB56FEBEF0BF0BF
:100B2000010EDBCFE6FF0BEC3BF0E5520101200E9E
:100B3000B56F0301EC6BED6BEBEF0BF0020EDBCF4F
:100B4000E6FF0BEC3BF0E5520101210EB56F03010E
:100B5000EC6BED6BEBEF0BF00301050EEC5D000EA3
:100B6000ED5912E22A0E0301EC25E96E010E030194
:100B7000ED21EA6EEF50E66E0BEC3BF0E55203011F
:100B8000EC2B000EED2309D00301050EEC1901E159
:100B9000ED5103E10101220EB56FEBEF0BF0030EF7
:100BA000DBCFE6FF0BEC3BF0E5520101230EB56F06
:100BB0000301EC6BED6BEBEF0BF0E7C314F0156A80
:100BC00014BE1568180EDB50141803E1190EDB5023
:100BD000151804E101012C0EB56F03D00101240E9C
:100BE000B56FEBEF0BF0010EDBCFE6FF0BEC3BF04C
:100BF000E5520101250EB56F0301EC6BED6BEBEFD8
:100C00000BF00301060EEC5D000EED5912E2080E2A
:100C10000301EC25E96E010E0301ED21EA6EEF50B0
:100C2000E66E0BEC3BF0E5520301EC2B000EED23DE
:100C300009D00301060EEC1901E1ED5103E10101B8
:100C4000260EB56FEBEF0BF0030EDBCFE6FF0BECE0
:100C50003BF0E5520101270EB56F0301EC6BED6B24
:100C6000EBEF0BF00301E751020A49E0030A25E02C
:100C7000010A01E066D00301030EEC5D000EED59A0
:100C800012E2870E0301EC25E96E010E0301ED214E
:100C9000EA6EEF50E66E0BEC3BF0E5520301EC2BF5
:100CA000000EED2309D00301030EEC1901E1ED5113
:100CB00003E10101280EB56F47D00301030EEC5D7F
:100CC000000EED5912E28B0E0301EC25E96E010EC8
:100CD0000301ED21EA6EEF50E66E0BEC3BF0E552BE
:100CE0000301EC2B000EED2309D00301030EEC19D8
:100CF00001E1ED5103E10101280EB56F25D003019B
:100D0000060EEC5D000EED5912E28F0E0301EC258C
:100D1000E96E010E0301ED21EA6EEF50E66E0BEC79
:100D20003BF0E5520301EC2B000EED2309D003014B
:100D3000060EEC1901E1ED5103E10101280EB56F3A
:100D400003D00101280EB56FEBEF0BF0010EDBCFE6
:100D5000E6FF0BEC3BF0E5520101290EB56F0301F4
:100D6000EC6BED6BEBEF0BF0020EDBCFE6FF0BEC69
:100D70003BF0E55201012A0EB56F0301EC6BED6B00
:100D8000EBEF0BF00301060EEC5D000EED5912E2E5
:100D9000080E0301EC25E96E010E0301ED21EA6E58
:100DA000EF50E66E0BEC3BF0E5520301EC2B000E2E
:100DB000ED2309D00301060EEC1901E1ED5103E129
:100DC00001012B0EB56FEBEF0BF0030EDBCFE6FF4F
:100DD0000BEC3BF0E55201012C0EB56F0301EC6BFF
:100DE000ED6BEBEF0BF0E5C314F0156A14BE15685C
:100DF000180EDB50141803E1190EDB50151804E02F
:100E0000040E0301E55D04E10101360EB56F03D068
:100E100001012D0EB56FEBEF0BF0010EDBCFE6FFFE
:100E20000BEC3BF0E55201012E0EB56F0301EC6BAC
:100E3000ED6BEBEF0BF00301050EEC5D000EED59D1
:100E400012E2240E0301EC25E96E010E0301ED21EF
:100E5000EA6EEF50E66E0BEC3BF0E5520301EC2B33
:100E6000000EED2309D00301050EEC1901E1ED514F
:100E700003E101012F0EB56FEBEF0BF0030EDBCF9B
:100E8000E6FF0BEC3BF0E5520101300EB56F0301BC
:100E9000EC6BED6BEBEF0BF00301E55101E004D0DF
:100EA0000101310EB56F03D00101320EB56FEBEFCA
:100EB0000BF00301070EEC5D000EED5917E2D9505F
:100EC000100F146EDACF15F014500301EC25E96E03
:100ED00015500301ED21EA6EEF50E66E0BEC3BF08E
:100EE000E5520301EC2B000EED2309D00301070EA0
:100EF000EC1901E1ED5103E10101320EB56FEBEFA9
:100F00000BF0010EDBCFE6FF0BEC3BF0E5520101ED
:100F1000330EB56F0301EC6BED6BEBEF0BF0020ED4
:100F2000DBCFE6FF0BEC3BF0E5520101340EB56F71
:100F30000301EC6BED6BEBEF0BF00301050EEC5DC9
:100F4000000EED5912E2240E0301EC25E96E010EAC
:100F50000301ED21EA6EEF50E66E0BEC3BF0E5523B
:100F60000301EC2B000EED2309D00301050EEC1953
:100F700001E1ED5103E10101350EB56FEBEF0BF02F
:100F8000030EDBCFE6FF0BEC3BF0E5520101030E55
:100F9000B56F0301EC6BED6BEBEF0BF0DEC314F000
:100FA000156A14BE1568180EDB50141803E1190EEB
:100FB000DB50151804E101013F0EB56F03D00101AC
:100FC000370EB56FEBEF0BF0010EDBCFE6FF0BEC4E
:100FD0003BF0E5520101380EB56F0301EC6BED6B90
:100FE000FAD303010B0EEC5D000EED5912E20F0E69
:100FF0000301EC25E96E010E0301ED21EA6EEF50CD
:10100000E66E0BEC3BF0E5520301EC2B000EED23FA
:1010100009D003010B0EEC1901E1ED5103E10101CF
:10102000390EB56FD8D3030EDBCFE6FF0BEC3BF0E8
:10103000E55201013A0EB56F0301EC6BED6BCBD3BA
:101040000301DE51010A25E0010A01E044D0030159
:10105000030EEC5D000EED5912E2510E0301EC257A
:10106000E96E010E0301ED21EA6EEF50E66E0BEC26
:101070003BF0E5520301EC2B000EED2309D00301F8
:10108000030EEC1901E1ED5103E101013B0EB56FD7
:1010900025D00301030EEC5D000EED5912E2550E52
:1010A0000301EC25E96E010E0301ED21EA6EEF501C
:1010B000E66E0BEC3BF0E5520301EC2B000EED234A
:1010C00009D00301030EEC1901E1ED5103E1010127
:1010D0003B0EB56F03D001013B0EB56F7CD3010E03
:1010E000DBCFE6FF0BEC3BF0E55201013C0EB56FA8
:1010F0000301EC6BED6B6FD3020EDBCFE6FF0BEC65
:101100003BF0E55201013D0EB56F0301EC6BED6B59
:1011100062D303010B0EEC5D000EED5912E20F0ECF
:101120000301EC25E96E010E0301ED21EA6EEF509B
:10113000E66E0BEC3BF0E5520301EC2B000EED23C9
:1011400009D003010B0EEC1901E1ED5103E101019E
:101150003E0EB56F40D3030EDBCFE6FF0BEC3BF04A
:10116000E55201013F0EB56F0301EC6BED6B33D31C
:10117000E1C314F0156A14BE1568180EDB5014187C
:1011800003E1190EDB50151804E10101480EB56F9B
:1011900003D00101400EB56F1ED3010EDBCFE6FF79
:1011A0000BEC3BF0E5520101410EB56F0301EC6B16
:1011B000ED6B11D30301080EEC5D000EED5912E248
:1011C0001B0E0301EC25E96E010E0301ED21EA6E11
:1011D000EF50E66E0BEC3BF0E5520301EC2B000EFA
:1011E000ED2309D00301080EEC1901E1ED5103E1F3
:1011F0000101420EB56FEFD2030EDBCFE6FF0BEC21
:101200003BF0E5520101430EB56F0301EC6BED6B52
:10121000E2D20301E151010A0FE0010A01E018D016
:1012200059C1E6FF0BEC3BF0E5520101440EB56FEE
:101230000301EC6BED6B0FD05BC1E6FF0BEC3BF0F9
:10124000E5520101440EB56F0301EC6BED6B03D069
:101250000101440EB56F010EDBCFE6FF0BEC3BF056
:10126000E5520101450EB56F0301EC6BED6BB3D296
:10127000020EDBCFE6FF0BEC3BF0E5520101460E20
:10128000B56F0301EC6BED6BA6D20301080EEC5DAC
:10129000000EED5912E21B0E0301EC25E96E010E62
:1012A0000301ED21EA6EEF50E66E0BEC3BF0E552E8
:1012B0000301EC2B000EED2309D00301080EEC19FD
:1012C00001E1ED5103E10101470EB56F84D2030E38
:1012D000DBCFE6FF0BEC3BF0E5520101480EB56FAA
:1012E0000301EC6BED6B77D2E4C314F0156A14BE06
:1012F0001568180EDB50141803E1190EDB50151891
:1013000004E10101510EB56F03D00101490EB56F23
:1013100062D2010EDBCFE6FF0BEC3BF0E5520101A0
:101320004A0EB56F0301EC6BED6B55D20301090E4C
:10133000EC5D000EED5912E2300E0301EC25E96E72
:10134000010E0301ED21EA6EEF50E66E0BEC3BF06F
:10135000E5520301EC2B000EED2309D00301090E29
:10136000EC1901E1ED5103E101014B0EB56F33D2F0
:10137000030EDBCFE6FF0BEC3BF0E55201014C0E18
:10138000B56F0301EC6BED6B26D20301E451030A48
:1013900049E0070A25E0040A01E066D00301040ED3
:1013A000EC5D000EED5912E25D0E0301EC25E96ED5
:1013B000010E0301ED21EA6EEF50E66E0BEC3BF0FF
:1013C000E5520301EC2B000EED2309D00301040EBE
:1013D000EC1901E1ED5103E101014D0EB56F47D06C
:1013E0000301060EEC5D000EED5912E26C0E0301D6
:1013F000EC25E96E010E0301ED21EA6EEF50E66E79
:101400000BEC3BF0E5520301EC2B000EED2309D071
:101410000301060EEC1901E1ED5103E101014D0E4E
:10142000B56F25D00301040EEC5D000EED5912E2FC
:10143000730E0301EC25E96E010E0301ED21EA6E46
:10144000EF50E66E0BEC3BF0E5520301EC2B000E87
:10145000ED2309D00301040EEC1901E1ED5103E184
:1014600001014D0EB56F03D001014D0EB56FB3D123
:10147000010EDBCFE6FF0BEC3BF0E55201014E0E17
:10148000B56F0301EC6BED6BA6D1020EDBCFE6FF6F
:101490000BEC3BF0E55201014F0EB56F0301EC6B15
:1014A000ED6B99D10301090EEC5D000EED5912E2CE
:1014B000300E0301EC25E96E010E0301ED21EA6E09
:1014C000EF50E66E0BEC3BF0E5520301EC2B000E07
:1014D000ED2309D00301090EEC1901E1ED5103E1FF
:1014E0000101500EB56F77D1030EDBCFE6FF0BEC99
:1014F0003BF0E5520101510EB56F0301EC6BED6B52
:101500006AD1E2C314F0E3C315F0180EDB501418CF
:1015100003E1190EDB50151804E101015A0EB56FF5
:1015200003D00101520EB56F56D1010EDBCFE6FF9D
:101530000BEC3BF0E5520101530EB56F0301EC6B70
:10154000ED6B49D10301050EEC5D000EED5912E281
:101550003A0E0301EC25E96E010E0301ED21EA6E5E
:10156000EF50E66E0BEC3BF0E5520301EC2B000E66
:10157000ED2309D00301050EEC1901E1ED5103E162
:101580000101540EB56F27D1030EDBCFE6FF0BEC44
:101590003BF0E5520101550EB56F0301EC6BED6BAD
:1015A0001AD10101560EB56F010EDBCFE6FF0BEC31
:1015B0003BF0E5520101570EB56F0301EC6BED6B8B
:1015C0000AD1020EDBCFE6FF0BEC3BF0E552010146
:1015D000580EB56F0301EC6BED6BFDD00301050EEA
:1015E000EC5D000EED5912E23A0E0301EC25E96EB6
:1015F000010E0301ED21EA6EEF50E66E0BEC3BF0BD
:10160000E5520301EC2B000EED2309D00301050E7A
:10161000EC1901E1ED5103E10101590EB56FDBD089
:10162000030EDBCFE6FF0BEC3BF0E55201015A0E57
:10163000B56F0301EC6BED6BCED0E6C314F0156A09
:1016400014BE1568180EDB50141803E1190EDB5098
:10165000151804E10101030EB56F03D001015B0E03
:10166000B56FB9D0010EDBCFE6FF0BEC3BF0E552D6
:1016700001015C0EB56F0301EC6BED6BACD00301A7
:101680000E0EEC5D000EED5912E2400E0301EC254A
:10169000E96E010E0301ED21EA6EEF50E66E0BECF0
:1016A0003BF0E5520301EC2B000EED2309D00301C2
:1016B0000E0EEC1901E1ED5103E101015D0EB56F74
:1016C0008AD0030EDBCFE6FF0BEC3BF0E5520101C5
:1016D0005E0EB56F0301EC6BED6B7DD00301E6513F
:1016E000010A0FE0010A01E018D059C1E6FF0BEC36
:1016F0003BF0E55201015F0EB56F0301EC6BED6B42
:101700000FD05BC1E6FF0BEC3BF0E55201015F0E31
:10171000B56F0301EC6BED6B03D001015F0EB56F8C
:10172000010EDBCFE6FF0BEC3BF0E5520101600E52
:10173000B56F0301EC6BED6B4ED0020EDBCFE6FF15
:101740000BEC3BF0E5520101610EB56F0301EC6B50
:10175000ED6B41D003010E0EEC5D000EED5912E26F
:10176000400E0301EC25E96E010E0301ED21EA6E46
:10177000EF50E66E0BEC3BF0E5520301EC2B000E54
:10178000ED2309D003010E0EEC1901E1ED5103E147
:101790000101620EB56F1FD0030EDBCFE6FF0BEC2D
:1017A0003BF0E5520101030EB56F0301EC6BED6BED
:1017B00012D04FC1E6FF0BEC3BF0E552DFC3E6FF72
:1017C000E0C3E6FF34EC16F0E552E5520101010EEC
:1017D000B56FDF6A00D0DF5000D0146E1A0EE15CE6
:1017E00002E2E16AE552E16E1450E552E7CFD9FF1B
:1017F0001200D9CFE6FFE1CFD9FF020EE126DE6A63
:10180000DD6ADECF14F0DDCF15F000011550CA19E6
:10181000E8AE02D0CA3504D0C951145CCA5115587B
:101820001AE2DECFE9FFDDCFEAFF0E0EEA02F3CFC8
:10183000EAFF0E0EE902F3CFE9FFF450EA26600E4C
:10184000E926000EEA22EF5001E105D0DF2A010E61
:1018500001E3DB2AD6D7DECF14F0DDCF15F014C0BC
:10186000F3FF15C0F4FF00D0020EE15C02E2E16A72
:10187000E552E16EE552E7CFD9FF12000001BA6BE5
:10188000BB6B0001BB510001CA19E8AE02D0CA35DA
:1018900007D0C9510001BA5D0001CA510001BB590E
:1018A00001E321D1BAC0E9FFBBC0EAFF0E0EEA0294
:1018B000F3CFEAFF0E0EE902F3CFE9FFF450EA2678
:1018C000600EE926000EEA22EF6ABAC0E9FFBBC04B
:1018D000EAFF0E0EEA02F3CFEAFF0E0EE902F3CFA3
:1018E000E9FFF450EA26600EE926000EEA22EE52E5
:1018F000010EEF6EBAC0E9FFBBC0EAFF0E0EEA02AE
:10190000F3CFEAFF0E0EE902F3CFE9FFF450EA2627
:10191000600EE926000EEA22020EE926000EEA22F7
:10192000BCC0EFFFBAC0E9FFBBC0EAFF0E0EEA027F
:10193000F3CFEAFF0E0EE902F3CFE9FFF450EA26F7
:10194000600EE926000EEA22030EE926000EEA22C6
:10195000BCC0EFFFBAC0E9FFBBC0EAFF0E0EEA024F
:10196000F3CFEAFF0E0EE902F3CFE9FFF450EA26C7
:10197000600EE926000EEA22040EE926000EEA2295
:10198000BCC0EFFFBAC0E9FFBBC0EAFF0E0EEA021F
:10199000F3CFEAFF0E0EE902F3CFE9FFF450EA2697
:1019A000600EE926000EEA22070EE926000EEA2262
:1019B000BCC0EFFFBAC0E9FFBBC0EAFF0E0EEA02EF
:1019C000F3CFEAFF0E0EE902F3CFE9FFF450EA2667
:1019D000600EE926000EEA220A0EE926000EEA222F
:1019E000BCC0EFFFBAC0E9FFBBC0EAFF0E0EEA02BF
:1019F000F3CFEAFF0E0EE902F3CFE9FFF450EA2637
:101A0000600EE926000EEA22080EE926000EEA2200
:101A1000BCC0EEFFBDC0EDFFBAC0E9FFBBC0EAFF2E
:101A20000E0EEA02F3CFEAFF0E0EE902F3CFE9FF52
:101A3000F450EA26600EE926000EEA220B0EE92693
:101A4000000EEA22BCC0EFFFBAC0E9FFBBC0EAFF4C
:101A50000E0EEA02F3CFEAFF0E0EE902F3CFE9FF22
:101A6000F450EA26600EE926000EEA22050EE92669
:101A7000000EEA22BCC0EEFFBDC0EDFFBAC0E9FF18
:101A8000BBC0EAFF0E0EEA02F3CFEAFF0E0EE90238
:101A9000F3CFE9FFF450EA26600EE926000EEA22B1
:101AA0000C0EE926000EEA22BCC0EFFFBAC0E9FF27
:101AB000BBC0EAFF0E0EEA02F3CFEAFF0E0EE90208
:101AC000F3CFE9FFF450EA26600EE926000EEA2281
:101AD0000D0EE926000EEA22BCC0EFFF0001BA2B72
:101AE000000EBB23CED61200D9CFE6FFE1CFD9FF3F
:101AF000020EE1267EDEF3CFDEFFF4CFDDFFDECF88
:101B0000E9FFDDCFEAFF0E0EEA02F3CFEAFF0E0E89
:101B1000E902F3CFE9FFF450EA26600EE926000E51
:101B2000EA22010EEF6EDECFE9FFDDCFEAFF0E0EF7
:101B3000EA02F3CFEAFF0E0EE902F3CFE9FFF45019
:101B4000EA26600EE926000EEA22EE52010EEF6E42
:101B5000DECFE9FFDDCFEAFF0E0EEA02F3CFEAFFA8
:101B60000E0EE902F3CFE9FFF450EA26600EE926F3
:101B7000000EEA22020EE926000EEA22FE0EDBCF5C
:101B8000EFFFDECFE9FFDDCFEAFF0E0EEA02F3CF73
:101B9000EAFF0E0EE902F3CFE9FFF450EA26600EE9
:101BA000E926000EEA22030EE926000EEA22FD0EC7
:101BB000DBCFEFFFDECFE9FFDDCFEAFF0E0EEA025B
:101BC000F3CFEAFF0E0EE902F3CFE9FFF450EA2665
:101BD000600EE926000EEA22040EE926000EEA2233
:101BE000FC0EDBCFEFFFDECFE9FFDDCFEAFF0E0E0D
:101BF000EA02F3CFEAFF0E0EE902F3CFE9FFF45059
:101C0000EA26600EE926000EEA22070EE926000EFB
:101C1000EA22F90EDBCFEFFFDECFE9FFDDCFEAFFEF
:101C20000E0EEA02F3CFEAFF0E0EE902F3CFE9FF50
:101C3000F450EA26600EE926000EEA220A0EE92692
:101C4000000EEA22F80EDBCFEFFFDECFE9FFDDCF9B
:101C5000EAFF0E0EEA02F3CFEAFF0E0EE902F3CF1F
:101C6000E9FFF450EA26600EE926000EEA22080E8B
:101C7000E926000EEA22F60EDBCFEEFFF70EDBCFF1
:101C8000EDFFDECFE9FFDDCFEAFF0E0EEA02F3CF74
:101C9000EAFF0E0EE902F3CFE9FFF450EA26600EE8
:101CA000E926000EEA220B0EE926000EEA22040EB7
:101CB000EF6EDECFE9FFDDCFEAFF0E0EEA02F3CFD3
:101CC000EAFF0E0EE902F3CFE9FFF450EA26600EB8
:101CD000E926000EEA22050EE926000EEA22FA0E97
:101CE000DBCFEEFFFB0EDBCFEDFFDECFE9FFDDCF7D
:101CF000EAFF0E0EEA02F3CFEAFF0E0EE902F3CF7F
:101D0000E9FFF450EA26600EE926000EEA220C0EE6
:101D1000E926000EEA22F50EDBCFEFFFD950FA0FCD
:101D2000E96EFF0EDA20EA6EEE50ED1020E1F3ECE2
:101D300016F0F3CF14F0F4CF15F0DECFE9FFDDCFCE
:101D4000EAFF0E0EEA02F3CFEAFF0E0EE902F3CF2E
:101D5000E9FFF450EA26600EE926000EEA22050E9D
:101D6000E926000EEA2214C0EEFF15C0EDFFDECF1B
:101D7000E9FFDDCFEAFF0E0EEA02F3CFEAFF0E0E17
:101D8000E902F3CFE9FFF450EA26600EE926000EDF
:101D9000EA22020EE926000EEA22EFCF14F014C068
:101DA000E6FF8CEC3BF0E552E7CF14F0145C14E155
:101DB000DECFE9FFDDCFEAFF0E0EEA02F3CFEAFF46
:101DC0000E0EE902F3CFE9FFF450EA26600EE92691
:101DD000000EEA22EE52EF6ADECFE9FFDDCFEAFF26
:101DE0000E0EEA02F3CFEAFF0E0EE902F3CFE9FF8F
:101DF000F450EA26600EE926000EEA22020EE926D9
:101E0000000EEA22EFCF14F014C0E6FF8CEC3BF09A
:101E1000E552E7CF14F0145C39E0DECFE9FFDDCF07
:101E2000EAFF0E0EEA02F3CFEAFF0E0EE902F3CF4D
:101E3000E9FFF450EA26600EE926000EEA22030EBE
:101E4000E926000EEA22EFCF15F015C0E6FF8CEC74
:101E50003BF0E552E7CF15F0155C18E0DECFE9FF67
:101E6000DDCFEAFF0E0EEA02F3CFEAFF0E0EE90223
:101E7000F3CFE9FFF450EA26600EE926000EEA22CD
:101E80000B0EE926000EEA22BCC0EFFF020EE15C59
:101E900002E2E16AE552E16EE552E7CFD9FF1200B6
:101EA000D9CFE6FFE1CFD9FF020EE126A2DCF3CFC6
:101EB000DEFFF4CFDDFFDECFE9FFDDCFEAFF0E0E60
:101EC000EA02F3CFEAFF0E0EE902F3CFE9FFF45086
:101ED000EA26600EE926000EEA22010EEF6EDECF42
:101EE000E9FFDDCFEAFF0E0EEA02F3CFEAFF0E0EA6
:101EF000E902F3CFE9FFF450EA26600EE926000E6E
:101F0000EA22EE52010EEF6EDECFE9FFDDCFEAFFEF
:101F10000E0EEA02F3CFEAFF0E0EE902F3CFE9FF5D
:101F2000F450EA26600EE926000EEA22020EE926A7
:101F3000000EEA22FE0EDBCFEFFFDECFE9FFDDCFA2
:101F4000EAFF0E0EEA02F3CFEAFF0E0EE902F3CF2C
:101F5000E9FFF450EA26600EE926000EEA22030E9D
:101F6000E926000EEA22FD0EDBCFEFFFDECFE9FF10
:101F7000DDCFEAFF0E0EEA02F3CFEAFF0E0EE90212
:101F8000F3CFE9FFF450EA26600EE926000EEA22BC
:101F90000B0EE926000EEA22FA0EDBCFEFFFDECFB2
:101FA000E9FFDDCFEAFF0E0EEA02F3CFEAFF0E0EE5
:101FB000E902F3CFE9FFF450EA26600EE926000EAD
:101FC000EA22050EE926000EEA22FB0EDBCFEEFF29
:101FD000FC0EDBCFEDFF020EE15C02E2E16AE552AE
:101FE000E16EE552E7CFD9FF1200D9CFE6FFE1CF8E
:101FF000D9FF020EE126F9EC0BF0F3CFDEFFF4CFB0
:10200000DDFF8CEC3BF0F36EFE0EDB50F35C01E188
:10201000D9D0DECFE9FFDDCFEAFF0E0EEA02F3CF23
:10202000EAFF0E0EE902F3CFE9FFF450EA26600E54
:10203000E926000EEA22010EEF6EDECFE9FFDDCFCA
:10204000EAFF0E0EEA02F3CFEAFF0E0EE902F3CF2B
:10205000E9FFF450EA26600EE926000EEA22EE526D
:10206000010EEF6EDECFE9FFDDCFEAFF0E0EEA02D2
:10207000F3CFEAFF0E0EE902F3CFE9FFF450EA26B0
:10208000600EE926000EEA22020EE926000EEA2280
:10209000FE0EDBCFEFFFDECFE9FFDDCFEAFF0E0E56
:1020A000EA02F3CFEAFF0E0EE902F3CFE9FFF450A4
:1020B000EA26600EE926000EEA22030EE926000E4B
:1020C000EA22FD0EDBCFEFFFDECFE9FFDDCFEAFF37
:1020D0000E0EEA02F3CFEAFF0E0EE902F3CFE9FF9C
:1020E000F450EA26600EE926000EEA22040EE926E4
:1020F000000EEA22FA0EDBCFEFFFDECFE9FFDDCFE5
:10210000EAFF0E0EEA02F3CFEAFF0E0EE902F3CF6A
:10211000E9FFF450EA26600EE926000EEA22070ED7
:10212000E926000EEA22FB0EDBCFEFFFDECFE9FF50
:10213000DDCFEAFF0E0EEA02F3CFEAFF0E0EE90250
:10214000F3CFE9FFF450EA26600EE926000EEA22FA
:102150000A0EE926000EEA22F90EDBCFEFFFDECFF2
:10216000E9FFDDCFEAFF0E0EEA02F3CFEAFF0E0E23
:10217000E902F3CFE9FFF450EA26600EE926000EEB
:10218000EA220C0EE926000EEA22F80EDBCFEFFF62
:10219000DECFE9FFDDCFEAFF0E0EEA02F3CFEAFF62
:1021A0000E0EE902F3CFE9FFF450EA26600EE926AD
:1021B000000EEA220D0EE926000EEA22FC0EDBCF0D
:1021C000EFFF6BD0FC0EDB50020A53E0030A04E081
:1021D000010A01E062D061D0FB0EDBCF14F0156A7A
:1021E00014BE15680001BC51141802E1BD51151848
:1021F0003FE0FA0EDBCF16F0176A16BE1768000133
:10220000BC51161802E1BD51171832E0F80EDBCFB1
:1022100018F0196A18BE19680001BC51181802E1BB
:10222000BD51191825E0FB0EDBCFE6FFFA0EDBCF20
:10223000E6FFF80EDBCFE6FFCDEC27F0E552E552E6
:10224000E552F90EDBCF14F0156A14BE15680001D3
:10225000BC51141802E1BD5115180AE0F90EDBCF8C
:10226000E6FFF80EDBCFE6FF63EC28F0E552E5521F
:1022700014D0F80EDBCF14F0156A14BE15680001F7
:10228000BC51141802E1BD51151806E0F80EDBCF61
:10229000E6FFDFEC28F0E55200D0020EE15C02E23E
:1022A000E16AE552E16EE552E7CFD9FF1200D9CFDE
:1022B000E6FFE1CFD9FF020EE126DE6ADD6ADECF5E
:1022C00014F0DDCF15F000011550CA19E8AE02D0A8
:1022D000CA3504D0C951145CCA51155801E345D11F
:1022E000DECFE9FFDDCFEAFF0E0EEA02F3CFEAFF11
:1022F0000E0EE902F3CFE9FFF450EA26600EE9265C
:10230000000EEA22050EE926000EEA22EECF14F0B6
:10231000EFCF15F0FD0EDB50141803E1FE0EDB507D
:10232000151801E01DD1DECFE9FFDDCFEAFF0E0E6B
:10233000EA02F3CFEAFF0E0EE902F3CFE9FFF45011
:10234000EA26600EE926000EEA22EF6ADECFE9FFF8
:10235000DDCFEAFF0E0EEA02F3CFEAFF0E0EE9022E
:10236000F3CFE9FFF450EA26600EE926000EEA22D8
:10237000EE52010EEF6EDECFE9FFDDCFEAFF0E0E6B
:10238000EA02F3CFEAFF0E0EE902F3CFE9FFF450C1
:10239000EA26600EE926000EEA22020EE926000E69
:1023A000EA22BCC0EFFFDECFE9FFDDCFEAFF0E0E71
:1023B000EA02F3CFEAFF0E0EE902F3CFE9FFF45091
:1023C000EA26600EE926000EEA22030EE926000E38
:1023D000EA22BCC0EFFFDECFE9FFDDCFEAFF0E0E41
:1023E000EA02F3CFEAFF0E0EE902F3CFE9FFF45061
:1023F000EA26600EE926000EEA22040EE926000E07
:10240000EA22BCC0EFFFDECFE9FFDDCFEAFF0E0E10
:10241000EA02F3CFEAFF0E0EE902F3CFE9FFF45030
:10242000EA26600EE926000EEA22070EE926000ED3
:10243000EA22BCC0EFFFDECFE9FFDDCFEAFF0E0EE0
:10244000EA02F3CFEAFF0E0EE902F3CFE9FFF45000
:10245000EA26600EE926000EEA220A0EE926000EA0
:10246000EA22BCC0EFFFDECFE9FFDDCFEAFF0E0EB0
:10247000EA02F3CFEAFF0E0EE902F3CFE9FFF450D0
:10248000EA26600EE926000EEA22080EE926000E72
:10249000EA22BCC0EEFFBDC0EDFFDECFE9FFDDCF1D
:1024A000EAFF0E0EEA02F3CFEAFF0E0EE902F3CFC7
:1024B000E9FFF450EA26600EE926000EEA220B0E30
:1024C000E926000EEA22BCC0EFFFDECFE9FFDDCF38
:1024D000EAFF0E0EEA02F3CFEAFF0E0EE902F3CF97
:1024E000E9FFF450EA26600EE926000EEA22050E06
:1024F000E926000EEA22BCC0EEFFBDC0EDFFDECF34
:10250000E9FFDDCFEAFF0E0EEA02F3CFEAFF0E0E7F
:10251000E902F3CFE9FFF450EA26600EE926000E47
:10252000EA220C0EE926000EEA22BCC0EFFFDECF45
:10253000E9FFDDCFEAFF0E0EEA02F3CFEAFF0E0E4F
:10254000E902F3CFE9FFF450EA26600EE926000E17
:10255000EA220D0EE926000EEA22BCC0EFFF05D0EC
:10256000DF2A010E01E3DB2AAAD6020EE15C02E2B9
:10257000E16AE552E16EE552E7CFD9FF1200D9CF0B
:10258000E6FFE1CFD9FF040EE126DE6ADD6A020E26
:10259000DB6A030EDB6A020EDBCF14F0030EDBCF27
:1025A00015F000011550CA19E8AE02D0CA3504D0A2
:1025B000C951145CCA51155824E2020EDBCFE9FF61
:1025C000030EDBCFEAFF0E0EEA02F3CFEAFF0E0E98
:1025D000E902F3CFE9FFF450EA26600EE926000E87
:1025E000EA220B0EE926000EEA22EF5004E1010E6A
:1025F000DE6EDD6A06D0020EDB2A030E01E3DB2A63
:10260000CAD7D9CFE9FFDACFEAFFEE50ED1003E1E8
:10261000010E03D002D0000E00D0146E040EE15C57
:1026200002E2E16AE552E16E1450E552E7CFD9FFCC
:102630001200D9CFE6FFE1CFD9FF020EE126DE6A14
:10264000DD6ADECF14F0DDCF15F000011550CA1998
:10265000E8AE02D0CA3504D0C951145CCA5115582D
:102660003FE2DECFE9FFDDCFEAFF0E0EEA02F3CF55
:10267000EAFF0E0EE902F3CFE9FFF450EA26600EFE
:10268000E926000EEA22050EE926000EEA22EECF28
:1026900014F0EFCF15F0FD0EDB50141803E1FE0E21
:1026A000DB50151818E1DECFE9FFDDCFEAFF0E0E93
:1026B000EA02F3CFEAFF0E0EE902F3CFE9FFF4508E
:1026C000EA26600EE926000EEA220B0EE926000E2D
:1026D000EA22EF6A05D0DF2A010E01E3DB2AB1D737
:1026E000020EE15C02E2E16AE552E16EE552E7CFFB
:1026F000D9FF1200D9CFE6FFE1CFD9FF020EE126C4
:10270000DE6ADD6ADECF14F0DDCF15F00001155072
:10271000CA19E8AE02D0CA3504D0C951145CCA51F6
:10272000155801E3E7D0DECFE9FFDDCFEAFF0E0E5B
:10273000EA02F3CFEAFF0E0EE902F3CFE9FFF4500D
:10274000EA26600EE926000EEA22020EE926000EB5
:10275000EA22EFCF14F014C0E6FF8CEC3BF0E55218
:10276000E7CF14F0145C01E0C0D0DECFE9FFDDCF8D
:10277000EAFF0E0EEA02F3CFEAFF0E0EE902F3CFF4
:10278000E9FFF450EA26600EE926000EEA220B0E5D
:10279000E926000EEA22EF50040801E0A6D0DECFC1
:1027A000E9FFDDCFEAFF0E0EEA02F3CFEAFF0E0EDD
:1027B000E902F3CFE9FFF450EA26600EE926000EA5
:1027C000EA22EE52EF5001E090D0DECFE9FFDDCFFC
:1027D000EAFF0E0EEA02F3CFEAFF0E0EE902F3CF94
:1027E000E9FFF450EA26600EE926000EEA22070E01
:1027F000E926000EEA22EF50E66E7AEC2AF0E55266
:1028000000092EE1DECFE9FFDDCFEAFF0E0EEA027E
:10281000F3CFEAFF0E0EE902F3CFE9FFF450EA2608
:10282000600EE926000EEA220B0EE926000EEA22CF
:10283000EF6ADECFE9FFDDCFEAFF0E0EEA02F3CF4B
:10284000EAFF0E0EE902F3CFE9FFF450EA26600E2C
:10285000E926000EEA22EE52010EEF6E4BD045D073
:10286000DECFE9FFDDCFEAFF0E0EEA02F3CFEAFF8B
:102870000E0EE902F3CFE9FFF450EA26600EE926D6
:10288000000EEA220A0EE926000EEA22EF500308A3
:102890002CE1DECFE9FFDDCFEAFF0E0EEA02F3CF37
:1028A000EAFF0E0EE902F3CFE9FFF450EA26600ECC
:1028B000E926000EEA220B0EE926000EEA22EF6A54
:1028C000DECFE9FFDDCFEAFF0E0EEA02F3CFEAFF2B
:1028D0000E0EE902F3CFE9FFF450EA26600EE92676
:1028E000000EEA22EE52010EEF6EDF2A010E01E326
:1028F000DB2A08D7020EE15C02E2E16AE552E16EF2
:10290000E552E7CFD9FF1200D9CFE6FFE1CFD9FFDB
:10291000140EE126100EDB6A110EDB6A120EDB6A62
:10292000130EDB6A120EDBCF14F0130EDBCF15F0A3
:1029300000011550CA19E8AE02D0CA3504D0C951F9
:10294000145CCA51155834E2120EDBCFE9FF130EA6
:10295000DBCFEAFF0E0EEA02F3CFEAFF0E0EE9022A
:10296000F3CFE9FFF450EA26600EE926000EEA22D2
:102970000B0EE926000EEA22EF5014E1120EDBCF17
:1029800006F0130EDBCF07F00E0E06C0DBFF0F0EB6
:1029900007C0DBFF010EF36E100EF3CFDBFF110E4D
:1029A000DB6A06D0120EDB2A130E01E3DB2ABAD74C
:1029B0000E0EDBCFE9FF0F0EDBCFEAFF0E0EEA02B1
:1029C000F3CFEAFF0E0EE902F3CFE9FFF450EA2657
:1029D000600EE926000EEA22EECF14F0EECF15F0DD
:1029E000EECF16F0EECF17F0EECF18F0EECF19F0D5
:1029F000EECF1AF0EECF1BF0EECF1CF0EECF1DF0B5
:102A0000EECF1EF0EECF1FF0EECF20F0EFCF21F093
:102A1000D9CFE9FFDACFEAFFED50ED5021C0EDFF4D
:102A200020C0EDFF1FC0EDFF1EC0EDFF1DC0EDFF7C
:102A30001CC0EDFF1BC0EDFF1AC0EDFF19C0EDFF7C
:102A400018C0EDFF17C0EDFF16C0EDFF15C0EDFF7C
:102A500014C0EFFF00D0140EE15C02E2E16AE5521F
:102A6000E16EE552E7CFD9FF1200D9CFE6FFE1CF03
:102A7000D9FF030EE126010EF36E020EF3CFDBFF4A
:102A8000DE6ADD6ADECF14F0DDCF15F000011550EF
:102A9000CA19E8AE02D0CA3504D0C951145CCA5173
:102AA000155831E2DECFE9FFDDCFEAFF0E0EEA0274
:102AB000F3CFEAFF0E0EE902F3CFE9FFF450EA2666
:102AC000600EE926000EEA22EE52EF0417E1DECF97
:102AD000E9FFDDCFEAFF0E0EEA02F3CFEAFF0E0EAA
:102AE000E902F3CFE9FFF450EA26600EE926000E72
:102AF000EA22EF0403E1020EDB6A05D0DF2A010EB1
:102B000001E3DB2ABFD7020EDB5000D0146E030EA8
:102B1000E15C02E2E16AE552E16E1450E552E7CF72
:102B2000D9FF1200D9CFE6FFE1CFD9FF020EE1268F
:102B3000DE6ADD6ADECF14F0DDCF15F0000115503E
:102B4000CA19E8AE02D0CA3504D0C951145CCA51C2
:102B500015582FE2DECFE9FFDDCFEAFF0E0EEA02C5
:102B6000F3CFEAFF0E0EE902F3CFE9FFF450EA26B5
:102B7000600EE926000EEA22EE52EF0415E1DECFE8
:102B8000E9FFDDCFEAFF0E0EEA02F3CFEAFF0E0EF9
:102B9000E902F3CFE9FFF450EA26600EE926000EC1
:102BA000EA22EF0401E105D0DF2A010E01E3DB2A6E
:102BB000C1D7DECFE9FFDDCFEAFF0E0EEA02F3CF89
:102BC000EAFF0E0EE902F3CFE9FFF450EA26600EA9
:102BD000E926000EEA22EECF14F0EECF15F0EECF8C
:102BE00016F0EECF17F0EECF18F0EECF19F0EECFD3
:102BF0001AF0EECF1BF0EECF1CF0EECF1DF0EECFB3
:102C00001EF0EECF1FF0EECF20F0EFCF21F0D9CFA6
:102C1000E9FFDACFEAFFED50ED5021C0EDFF20C013
:102C2000EDFF1FC0EDFF1EC0EDFF1DC0EDFF1CC07E
:102C3000EDFF1BC0EDFF1AC0EDFF19C0EDFF18C07E
:102C4000EDFF17C0EDFF16C0EDFF15C0EDFF14C07E
:102C5000EFFF00D0020EE15C02E2E16AE552E16EB4
:102C6000E552E7CFD9FF1200D9CFE6FFE1CFD9FF78
:102C7000020EE126DE6ADD6ADECF14F0DDCF15F04C
:102C800000011550CA19E8AE02D0CA3504D0C951A6
:102C9000145CCA51155801E39CD0DECFE9FFDDCFAB
:102CA000EAFF0E0EEA02F3CFEAFF0E0EE902F3CFBF
:102CB000E9FFF450EA26600EE926000EEA22050E2E
:102CC000E926000EEA22EECF14F0EFCF15F0FD0E4C
:102CD000DB50141803E1FE0EDB50151875E1DECF52
:102CE000E9FFDDCFEAFF0E0EEA02F3CFEAFF0E0E98
:102CF000E902F3CFE9FFF450EA26600EE926000E60
:102D0000EA22EE52EF6ADECFE9FFDDCFEAFF0E0ED8
:102D1000EA02F3CFEAFF0E0EE902F3CFE9FFF45027
:102D2000EA26600EE926000EEA22020EE926000ECF
:102D3000EA22EFCF14F014C0E6FF8CEC3BF0E55232
:102D4000E7CF14F0145C3FE0DECFE9FFDDCFEAFF10
:102D50000E0EEA02F3CFEAFF0E0EE902F3CFE9FF0F
:102D6000F450EA26600EE926000EEA22030EE92658
:102D7000000EEA22EFCF15F015C0E6FF8CEC3BF019
:102D8000E552E7CF15F0155C1EE0DECFE9FFDDCFA1
:102D9000EAFF0E0EEA02F3CFEAFF0E0EE902F3CFCE
:102DA000E9FFF450EA26600EE926000EEA22050E3D
:102DB000E926000EEA22EECFE6FFEFCFE6FF57EC62
:102DC00011F0E552E55205D0DF2A010E01E3DB2ABE
:102DD00053D7020EE15C02E2E16AE552E16EE55290
:102DE000E7CFD9FF1200D9CFE6FFE1CFD9FF030E1D
:102DF000E1268CEC3BF0E76E020EE7CFDBFF020E24
:102E0000DB50010A08E0030A01E00AD0E80EDE6E9A
:102E1000030EDD6E09D0D00EDE6E070EDD6E04D01F
:102E2000880EDE6E130EDD6E010E0001CB25000153
:102E3000CB6F000E0001CC210001CC6FDE500001F1
:102E4000CB250001146EDD500001CC210001156E70
:102E500014C0DEFF15C0DDFFDECF14F0DDCF15F0AE
:102E600014C0F3FF15C0F4FF00D0030EE15C02E2D2
:102E7000E16AE552E16EE552E7CFD9FF1200D9CF02
:102E8000E6FFE1CFD9FF0D0EE126010EDF6EC80E81
:102E9000F36E020EF3CFDBFF030EDB6AF60EF36E6A
:102EA000040EF3CFDBFF050EDB68D950080FE96E87
:102EB000DACFEAFF3C0EEE6E3E0EEE6EEE6A0B0EC1
:102EC000DB6A0C0EDB6A0101A2510D0A02E116EF6A
:102ED0001CF0020A02E115EF1CF0010A02E114EFF6
:102EE0001CF0050A02E1F0EF1BF0070A02E186EF91
:102EF0001BF0060A01E1D3D3030A01E141D3010A21
:102F000001E129D30E0A01E10ED3030A01E1F6D251
:102F1000060A01E1BBD2010A01E1BAD0030A5DE071
:102F2000010A02E01AEF1CF0040EDBCF00F3040EDE
:102F3000DBCF01F3040EDBCF02F3040EDBCF03F390
:102F4000040EDBCF04F3040EDBCF05F3040EDBCF5E
:102F500006F3050EDBCF07F3040EDBCF08F3040EF8
:102F6000DBCF09F3040EDBCF0AF3050EDBCF0BF347
:102F7000040EDBCF0CF3040EDBCF0DF3040EDBCF1E
:102F80000EF3050EDBCF0FF3040EDBCF10F30101C0
:102F9000A36BA46B020EDBCF14F0030EDBCF15F096
:102FA00001011450A35D1550A4590FE2110E010147
:102FB000A325E96E030E0101A421EA6E200EEF6E37
:102FC0000101A32B000EA423E5D70101A36BA46B81
:102FD0000101010EA26F1AEF1CF09E50200B56E06B
:102FE000AC50020B53E081EC3AF0E76E010EE7CFF4
:102FF000DBFF010EDB5001014F5D05E0010EDB50F0
:103000000101505D22E1020EDBCF14F0030EDBCF95
:1030100015F01406000E155A14500101A31902E10F
:103020001550A41904E101010D0EA26F0DD0110E6F
:103030000101A325E96E030E0101A421EA6E4FC12F
:10304000EFFF0101020EA26F20D0020EDBCF14F0C1
:10305000030EDBCF15F01406000E155A14500101B3
:10306000A31902E11550A41901E10FD0110E0101BD
:10307000A325E96E030E0101A421EA6E010EDBCF48
:10308000EFFF0101A32B000EA42301D0DF6AD2D3EE
:10309000D950080FE66E000EDA20E66E110EE66ECD
:1030A000030EE66EDBEC35F0E552E552E552E552F3
:1030B0000B0EF3CFDBFF0C0EF4CFDBFFD9500B0F61
:1030C000E96EDACFEAFFEE50ED1001E1DBD1000E40
:1030D000E66E010EE66E0B0EDBCFE6FF0C0EDBCFCD
:1030E000E6FF84EC34F0E552E552E552E552000982
:1030F0001BE1D950080FE66E000EDA20E66E000ED6
:10310000E66EE66ADBEC35F0E552E552E552E55253
:10311000F3CF14F0F4CF15F014C0E6FF15C0E6FFAE
:1031200097DBE552E55298D1030EE66E010EE66E8E
:103130000B0EDBCFE6FF0C0EDBCFE6FF84EC34F0AA
:10314000E552E552E552E55200091BE1D950080F5E
:10315000E66E000EDA20E66E000EE66EE66ADBEC46
:1031600035F0E552E552E552E552F3CF14F0F4CFD5
:1031700015F014C0E6FF15C0E6FFB2DBE552E552DC
:103180006BD1080EE66E010EE66E0B0EDBCFE6FF8E
:103190000C0EDBCFE6FF84EC34F0E552E552E5524D
:1031A000E55200091BE1D950080FE66E000EDA2047
:1031B000E66E000EE66EE66ADBEC35F0E552E552AF
:1031C000E552E552F3CF14F0F4CF15F014C0E6FF4A
:1031D00015C0E6FFCDDBE552E5523ED10F0EE66E9F
:1031E000010EE66E0B0EDBCFE6FF0C0EDBCFE6FF2B
:1031F00084EC34F0E552E552E552E55200091BE15A
:10320000D950080FE66E000EDA20E66E000EE66E6C
:10321000E66ADBEC35F0E552E552E552E552F3CFD4
:1032200014F0F4CF15F014C0E6FF15C0E6FFE8DB9C
:10323000E552E55211D11B0EE66E010EE66E0B0E45
:10324000DBCFE6FF0C0EDBCFE6FF84EC34F0E5527B
:10325000E552E552E55200091BE1D950080FE66E30
:10326000000EDA20E66E000EE66EE66ADBEC35F064
:10327000E552E552E552E552F3CF14F0F4CF15F0E4
:1032800014C0E6FF15C0E6FFEDDBE552E552E4D0E1
:10329000240EE66E010EE66E0B0EDBCFE6FF0C0E83
:1032A000DBCFE6FF84EC34F0E552E552E552E5521F
:1032B00000091CE1D950080FE66E000EDA20E66E18
:1032C000000EE66EE66ADBEC35F0E552E552E552BB
:1032D000E552F3CF14F0F4CF15F014C0E6FF15C09B
:1032E000E6FF96EC1DF0E552E552B6D02A0EE66EEA
:1032F000010EE66E0B0EDBCFE6FF0C0EDBCFE6FF1A
:1033000084EC34F0E552E552E552E55200091CE147
:10331000D950080FE66E000EDA20E66E000EE66E5B
:10332000E66ADBEC35F0E552E552E552E552F3CFC3
:1033300014F0F4CF15F014C0E6FF15C0E6FF25EC3D
:1033400020F0E552E55288D0300EE66E010EE66EB2
:103350000B0EDBCFE6FF0C0EDBCFE6FF84EC34F088
:10336000E552E552E552E55200091CE1D950080F3B
:10337000E66E000EDA20E66E000EE66EE66ADBEC24
:1033800035F0E552E552E552E552F3CF14F0F4CFB3
:1033900015F014C0E6FF15C0E6FF45EC1EF0E5523F
:1033A000E5525AD03A0EE66E010EE66E0B0EDBCFFA
:1033B000E6FF0C0EDBCFE6FF84EC34F0E552E5527D
:1033C000E552E55200091CE1D950080FE66E000EE7
:1033D000DA20E66E000EE66EE66ADBEC35F0E552CA
:1033E000E552E552E552F3CF14F0F4CF15F014C0D6
:1033F000E6FF15C0E6FFB9EC1EF0E552E5522CD011
:10340000400EE66E010EE66E0B0EDBCFE6FF0C0EF5
:10341000DBCFE6FF84EC34F0E552E552E552E552AD
:1034200000091AE1D950080FE66E000EDA20E66EA8
:10343000000EE66EE66ADBEC35F0E552E552E55249
:10344000E552F3CF14F0F4CF15F014C0E6FF15C029
:10345000E6FF3ADBE552E552D950080FE66E000E62
:10346000DA20E66E000EE66EE66ADBEC35F0E55239
:10347000E552E552E5520B0EF3CFDBFF0C0EF4CF15
:10348000DBFF1CD60101030EA26FD4D100C314F0E0
:10349000156A14BE1568040EDB50141803E1050EFE
:1034A000DB5015180DE001C316F0176A16BE176839
:1034B000040EDB50161803E1050EDB50171811E15E
:1034C000ACA20ED0FD0EE66E760EE66E000EE66E37
:1034D0004EEC39F0E552E552E55201010D0EA26FB6
:1034E0000CD08CEC3BF00301015D04E101010D0EF9
:1034F000A26F03D00101050EA26F9CD102C314F08C
:10350000156A14BE1568040EDB50141803E1050E8D
:10351000DB50151804E00101060EA26F03D0010173
:10352000080EA26F87D103C3E6FF09C3E6FF04C3F9
:10353000E6FF05C3E6FF02C3E6FF01C3E6FF00C3E3
:10354000E6FFF5EC0FF0146E070EE15E145001017A
:103550000D0EA26F6FD108C314F0156A14BE156862
:10356000040EDB50141803E1050EDB50151804E0BF
:1035700001010A0EA26F03D00101090EA26F5AD1F8
:10358000060EDB6A070EDB6A06C314F007C315F0EC
:10359000040EDB50141803E1050EDB50151807E18B
:1035A000010EF36E060EF3CFDBFF070EDB6A04C3DA
:1035B00014F0156A14BE1568040EDB50141803E1EC
:1035C000050EDB50151807E1010EF36E060EF3CF62
:1035D000DBFF070EDB6A05C314F0156A14BE15681D
:1035E000040EDB50141803E1050EDB50151807E13B
:1035F000010EF36E060EF3CFDBFF070EDB6A09C385
:1036000014F0156A14BE1568040EDB50141803E19B
:10361000050EDB50151807E1010EF36E060EF3CF11
:10362000DBFF070EDB6A0AC314F00BC315F0040EB0
:10363000DB50141803E1050EDB50151804E1320EBF
:1036400003010A6F0B6BD950060FE96EDACFEAFF60
:10365000010EEE1801E1ED501EE003C3E6FF0AC3C0
:10366000E6FF0BC3E6FF09C3E6FF05C3E6FF06C39B
:10367000E6FF07C3E6FF04C3E6FF01C3E6FF00C39E
:10368000E6FF74EC0DF0146E0A0EE15E14500101B9
:103690000D0EA26F03D001010D0EA26FCBD006C399
:1036A00014F007C315F0040EDB50141803E1050EE7
:1036B000DB50151801E126D08CEC3BF00301005DD6
:1036C00016E08CEC3BF00301015D11E008C3E6FF5E
:1036D00006C3E6FF07C3E6FF01C3E6FF00C3E6FF3C
:1036E00050EC0FF0146E050EE15E14500BD0030188
:1036F000085108E106C3E6FF07C3E6FF19EC13F023
:10370000E552E55201010D0EA26F94D005C314F0ED
:10371000156A14BE1568040EDB50141803E1050E7B
:10372000DB5015181EE004C316F0176A16BE1768A2
:10373000040EDB50161803E1050EDB50171811E0DC
:1037400003C318F0196A18BE1968040EDB50181864
:1037500003E1050EDB50191804E001010B0EA26F06
:103760003ED00CC314F0156A14BE1568040EDB506D
:10377000141803E1050EDB50151811E00DC316F007
:10378000176A16BE1768040EDB50161803E1050E03
:10379000DB50171804E001010E0EA26F20D00EC3FB
:1037A00014F00FC315F0040EDB50141803E1050EDE
:1037B000DB50151811E010C316F0176A16BE176813
:1037C000040EDB50161803E1050EDB50171804E059
:1037D00001010F0EA26F03D001010D0EA26F2AD0BE
:1037E00005C3E6FF04C3E6FF03C3E6FFCDEC27F005
:1037F000E552E552E55209C314F0156A14BE156886
:10380000040EDB50141803E1050EDB50151808E018
:1038100009C3E6FF03C3E6FF63EC28F0E552E55277
:1038200001010D0EA26F06D005D004D00101A26BDC
:10383000DF6A00D0DF5000D0146E0D0EE15C02E2B2
:10384000E16AE552E16E1450E552E7CFD9FF12006C
:10385000D9CFE6FFE1CFD9FF960EE66E010EE66EF8
:10386000FD0EDBCFE6FFFE0EDBCFE6FF84EC34F08F
:10387000E552E552E552E552000903E10301006B10
:103880002BD09A0EE66E010EE66EFD0EDBCFE6FF44
:10389000FE0EDBCFE6FF84EC34F0E552E552E55254
:1038A000E552000904E10301010E006F15D09E0EE0
:1038B000E66E010EE66EFD0EDBCFE6FFFE0EDBCF01
:1038C000E6FF84EC34F0E552E552E552E55200099A
:1038D00003E10301020E006FE552E7CFD9FF1200AA
:1038E000D9CFE6FFE1CFD9FF960EE66E010EE66E68
:1038F000FD0EDBCFE6FFFE0EDBCFE6FF84EC34F0FF
:10390000E552E552E552E552000903E10301016B7E
:103910002BD09A0EE66E010EE66EFD0EDBCFE6FFB3
:10392000FE0EDBCFE6FF84EC34F0E552E552E552C3
:10393000E552000904E10301010E016F15D09E0E4E
:10394000E66E010EE66EFD0EDBCFE6FFFE0EDBCF70
:10395000E6FF84EC34F0E552E552E552E552000909
:1039600003E10301020E016FE552E7CFD9FF120018
:10397000D9CFE6FFE1CFD9FF870EE66E010EE66EE6
:10398000FD0EDBCFE6FFFE0EDBCFE6FF84EC34F06E
:10399000E552E552E552E552000903E10301026BED
:1039A0002BD08B0EE66E010EE66EFD0EDBCFE6FF32
:1039B000FE0EDBCFE6FF84EC34F0E552E552E55233
:1039C000E552000904E10301010E026F15D08F0ECC
:1039D000E66E010EE66EFD0EDBCFE6FFFE0EDBCFE0
:1039E000E6FF84EC34F0E552E552E552E552000979
:1039F00003E10301020E026FE552E7CFD9FF120087
:103A0000D9CFE6FFE1CFD9FF510EE66E010EE66E8B
:103A1000FD0EDBCFE6FFFE0EDBCFE6FF84EC34F0DD
:103A2000E552E552E552E552000903E10301046B5A
:103A300015D0550EE66E010EE66EFD0EDBCFE6FFED
:103A4000FE0EDBCFE6FF84EC34F0E552E552E552A2
:103A5000E552000903E10301010E046FE552E7CFCF
:103A6000D9FF1200D9CFE6FFE1CFD9FF590EE66E9C
:103A7000010EE66EFD0EDBCFE6FFFE0EDBCFE6FFAE
:103A800084EC34F0E552E552E552E552000903E1D9
:103A90000301056B15D05B0EE66E010EE66EFD0EA2
:103AA000DBCFE6FFFE0EDBCFE6FF84EC34F0E55221
:103AB000E552E552E552000903E10301010E056FED
:103AC000E552E7CFD9FF1200D9CFE6FFE1CFD9FF0A
:103AD000590EE66E010EE66EFD0EDBCFE6FFFE0E22
:103AE000DBCFE6FF84EC34F0E552E552E552E552D7
:103AF000000903E10301036B15D05B0EE66E010EB6
:103B0000E66EFD0EDBCFE6FFFE0EDBCFE6FF84ECBC
:103B100034F0E552E552E552E552000903E10301B4
:103B2000010E036FE552E7CFD9FF1200D9CFE6FFB0
:103B3000E1CFD9FF1A0EE126D9CFE9FFDACFEAFFAC
:103B4000670EEE6E720EEE6E610EEE6E6E0EEE6E25
:103B5000740EEE6E650EEE6E640EEE6EEE6AD95069
:103B6000080FE96EDACFEAFF640EEE6E650EEE6EB8
:103B70006E0EEE6E690EEE6E650EEE6E640EEE6EFD
:103B8000EE6AD9500F0FE96EDACFEAFF740EEE6ECF
:103B9000720EEE6E750EEE6E650EEE6EEE6AD9501A
:103BA000140FE96EDACFEAFF660EEE6E610EEE6E6E
:103BB0006C0EEE6E730EEE6E650EEE6EEE6AD9CF83
:103BC000E6FFDACFE6FFFD0EDBCFE6FFFE0EDBCF32
:103BD000E6FF84EC34F0E552E552E552E552000987
:103BE00003E10301086B47D0D950080FE66E000EC1
:103BF000DA20E66EFD0EDBCFE6FFFE0EDBCFE6FF42
:103C000084EC34F0E552E552E552E552000904E156
:103C10000301010E086F2FD0D9500F0FE66E000E72
:103C2000DA20E66EFD0EDBCFE6FFFE0EDBCFE6FF11
:103C300084EC34F0E552E552E552E552000904E126
:103C40000301020E086F17D0D950140FE66E000E54
:103C5000DA20E66EFD0EDBCFE6FFFE0EDBCFE6FFE1
:103C600084EC34F0E552E552E552E552000903E1F7
:103C70000301030E086F1A0EE15C02E2E16AE552ED
:103C8000E16EE552E7CFD9FF1200D9CFE6FFE1CFD1
:103C9000D9FF5D0EE66E010EE66EFD0EDBCFE6FF90
:103CA000FE0EDBCFE6FF84EC34F0E552E552E55240
:103CB000E552000903E10301096B57D0620EE66E7D
:103CC000010EE66EFD0EDBCFE6FFFE0EDBCFE6FF5C
:103CD00084EC34F0E552E552E552E552000904E186
:103CE0000301010E096F41D0670EE66E010EE66E0C
:103CF000FD0EDBCFE6FFFE0EDBCFE6FF84EC34F0FB
:103D0000E552E552E552E552000904E10301020ED5
:103D1000096F2BD06C0EE66E010EE66EFD0EDBCF4A
:103D2000E6FFFE0EDBCFE6FF84EC34F0E552E55211
:103D3000E552E552000904E10301040E096F15D0B4
:103D4000730EE66E010EE66EFD0EDBCFE6FFFE0E95
:103D5000DBCFE6FF84EC34F0E552E552E552E55264
:103D6000000903E10301030E096FE552E7CFD9FF14
:103D70001200D9CFE6FFE1CFD9FF1F0EE126D9CF40
:103D8000E9FFDACFEAFF310EEE6E300EEE6EEE6A2C
:103D9000D950030FE96EDACFEAFF320EEE6E300E25
:103DA000EE6EEE6AD950060FE96EDACFEAFF330EF7
:103DB000EE6E300EEE6EEE6AD950090FE96EDACF74
:103DC000EAFF340EEE6E300EEE6EEE6AD9500C0F36
:103DD000E96EDACFEAFF350EEE6E300EEE6EEE6A69
:103DE000D9500F0FE96EDACFEAFF360EEE6E300EC5
:103DF000EE6EEE6AD950120FE96EDACFEAFF370E97
:103E0000EE6E300EEE6EEE6AD950150FE96EDACF17
:103E1000EAFF380EEE6E300EEE6EEE6AD950180FD5
:103E2000E96EDACFEAFF390EEE6E300EEE6EEE6A14
:103E3000D9501B0FE96EDACFEAFF310EEE6E300E6D
:103E4000EE6E300EEE6EEE6AD9CFE6FFDACFE6FF09
:103E5000FD0EDBCFE6FFFE0EDBCFE6FF84EC34F099
:103E6000E552E552E552E552000905E10A0E03016B
:103E70000A6F0B6BE0D0D950030FE66E000EDA200C
:103E8000E66EFD0EDBCFE6FFFE0EDBCFE6FF84EC39
:103E900034F0E552E552E552E552000905E1140E11
:103EA00003010A6F0B6BC7D0D950060FE66E000EE8
:103EB000DA20E66EFD0EDBCFE6FFFE0EDBCFE6FF7F
:103EC00084EC34F0E552E552E552E552000905E193
:103ED0001E0E03010A6F0B6BAED0D950090FE66EB0
:103EE000000EDA20E66EFD0EDBCFE6FFFE0EDBCF26
:103EF000E6FF84EC34F0E552E552E552E552000964
:103F000005E1280E03010A6F0B6B95D0D9500C0FF9
:103F1000E66E000EDA20E66EFD0EDBCFE6FFFE0E4B
:103F2000DBCFE6FF84EC34F0E552E552E552E55292
:103F3000000905E1320E03010A6F0B6B7CD0D950EA
:103F40000F0FE66E000EDA20E66EFD0EDBCFE6FF09
:103F5000FE0EDBCFE6FF84EC34F0E552E552E5528D
:103F6000E552000905E13C0E03010A6F0B6B63D0BB
:103F7000D950120FE66E000EDA20E66EFD0EDBCF92
:103F8000E6FFFE0EDBCFE6FF84EC34F0E552E552AF
:103F9000E552E552000905E1460E03010A6F0B6B7D
:103FA0004AD0D950150FE66E000EDA20E66EFD0EEF
:103FB000DBCFE6FFFE0EDBCFE6FF84EC34F0E5520C
:103FC000E552E552E552000905E1500E03010A6F82
:103FD0000B6B31D0D950180FE66E000EDA20E66E6A
:103FE000FD0EDBCFE6FFFE0EDBCFE6FF84EC34F008
:103FF000E552E552E552E552000905E15A0E03018A
:104000000A6F0B6B18D0D9501B0FE66E000EDA202A
:10401000E66EFD0EDBCFE6FFFE0EDBCFE6FF84ECA7
:1040200034F0E552E552E552E552000904E1640E30
:1040300003010A6F0B6B1F0EE15C02E2E16AE552BD
:10404000E16EE552E7CFD9FF1200D9CFE6FFE1CF0D
:10405000D9FFFD0EDBCFE6FFFE0EDBCFE6FFE8EC7F
:1040600036F0E552E552F3CF06F3F4CF07F3E5520D
:10407000E7CFD9FF120077EC25F0FB0EDBCFF3FF83
:10408000DB06F35000090AE0C5EC25F0FA0E30EC2F
:1040900026F0F3E1151CF1E1010E01D0000EA6EFB0
:1040A00025F077EC25F03B0EE12402E3E168E652CF
:1040B000E16E010EDB6A020EDB6AF90EDBCFF6FF62
:1040C000FA0EDBCFF7FFFB0EDBCFF8FF0800F55051
:1040D000DF6EDF5002E1CAEF24F0250EDF5C02E064
:1040E000BDEF24F0030EDB6A040EDB6A050EDB6A0B
:1040F000060EDB6A070EDB6ADFEC24F02D0EDF5CB8
:104100000CE02B0EDF5C09E0200EDF5C06E0230EE6
:10411000DF5C03E0300EDF5C1AE1DF50300A14E0B0
:10412000130A0FE0030A0AE00B0A05E0060AE4E1BD
:10413000030EDB80E1D7030EDB82DED7030EDB84C8
:10414000DBD7030EDB86D8D7030EDB88D5D72A0E44
:10415000DF5C1BE1DBEC24F029EC25F010E0030E22
:10416000DB8006680768130EDBCF0DF0140EDBCF83
:104170000EF010EC3AF0040E04C0DBFF03D0130E77
:1041800012EC25F0DFEC24F00BD0090EDB6A80EC9A
:1041900025F003E0F4EC25F0FAD7090E12EC25F037
:1041A000030EDBB0DB982E0EDF5C1BE1DFEC24F0AE
:1041B0002A0EDF5C0BE1DBEC24F029EC25F003E1B7
:1041C000130E64EC25F0DFEC24F00BD0090EDB6A53
:1041D00080EC25F003E0F4EC25F0FAD7090E64EC4E
:1041E00025F0680EDF5C07E1DFEC24F0680EDF5C91
:1041F0001DE1030E18D0740EDF5C17E07A0EDF5C51
:1042000014E0480EDF5C06E0540EDF5C03E05A0E5B
:10421000DF5C02E1020E07D06C0EDF5C03E06A0E89
:10422000DF5C04E1010EB7EC25F0C9DBDF506E0A5C
:1042300001E17FD31E0A01E192D1200A01E18FD171
:104240003F0A01E149D11A0A01E146D10D0A01E113
:1042500043D1200A01E140D13A0A01E13DD1200ACF
:1042600001E13AD1260A01E135D10D0A01E132D14D
:104270001A0A01E1D9D0200A4AE0300A1FE0460AB2
:104280000EE0250A01E083D3D950F90FE96EFF0E45
:10429000DA20EA6E010EEE5E000EEE5AEE5AC5EC22
:1042A00025F0250EE66E95DB03E1151C01E169D3CF
:1042B000C1EC25F001E26BD3DB2A69D3080EDB6A7F
:1042C000040EDB50010806E2040EDB0489EC25F045
:1042D000DB508BDB080EDB5009E0030EDB50010BDB
:1042E00005E172DB01E04DD3080EDB6A64DBEFCF42
:1042F000DFFF39EC26F003E1151C01E142D3C1ECEC
:1043000025F001E3DB2A60DB01E141D33AD3070E5C
:10431000DB5002080FE105EC26F0030ECCEC25F093
:104320000E0EEECFDBFF0F0EEECFDBFF100EEECF4B
:10433000DBFF20D0F70EDBCF17F0F80EDBCF18F045
:10434000020E175E000E185AF70E17C0DBFFF80EAC
:1043500018C0DBFF17C0E9FF18C0EAFFBCEC25F06E
:10436000166A0E0E14C0DBFF0F0E15C0DBFF100E19
:1043700016C0DBFF0E0EDBCFE6FF0F0EDBCFE6FF36
:10438000100EDBCFE6FF1AEC35F0E552E552E552B0
:10439000130E05C0DBFF140E06C0DBFF060EDB505C
:1043A00005E0130E00EC26F001E26ADB24EC26F0B7
:1043B00002E2130E37DBE7EC25F006E0040E00EC1A
:1043C00026F002E2050E2EDB030EDBB005D0FCDA90
:1043D00001E0D7D2080EDB6A090EDB6A0E0EDBCFD6
:1043E000F6FF0F0EDBCFF7FF100EDBCFF8FF080054
:1043F000F550DF6EDF5014E02AEC26F011E239ECC4
:1044000026F003E1151C01E1BCD2BBDB01E3DB2A92
:10441000090EDB2AD9500E0FE96E000ECBDBE7D771
:10442000D3DA01E1B4D2ADD2C6DA110EEECFDBFFA2
:10443000120EEDCFDBFF110EDBCFE6FF120EDBCF4E
:10444000E6FF0CEC35F0E552E552130EF3CFDBFF3F
:10445000140EF4CFDBFF060EDB5004E0130ED0DBAE
:1044600001E20EDB24EC26F002E2130EDBDAAFDB16
:1044700005E0040EC5DB02E2050ED4DA030EDBB064
:1044800005D0A2DA01E07DD2080EDB6A090EDB6AF4
:10449000110EDBCFE9FF120EDBCFEAFFEFCFDFFF1C
:1044A000DF5014E0D7DB12E2E4DB03E1151C01E18D
:1044B00068D267DB01E3DB2A090EDB2A110EDB2A57
:1044C000DBCFE9FF120EE8E3DB2AE6D77DDA01E174
:1044D0005ED257D2030EDB8E070EDB0410E195DBB4
:1044E000040E5ADB0A0EEECFDBFF0B0EEECFDBFF26
:1044F0000C0EEECFDBFF0D0EEECFDBFF6CD0070E08
:10450000DB5003082CE1030EDBAE0DD0B2DA020E55
:1045100076DAEFCF14F0156A166A176A14AE39D03E
:104520001568166835D0F70EDBCF15F0F80EDBCF27
:1045300016F0020E155E000E165AF70E15C0DBFFC0
:10454000F80E16C0DBFF15C0E9FF16C0EAFFEFCF7B
:1045500014F00A0E14C0DBFF0B0EDB6A38D0070E16
:10456000DB50020809E1030EDBAE04D059DB16AEC6
:1045700010D00ED055DB0DD0030EDBAE12D079DAA1
:10458000020E3DDAF9DA166A176A15AE02D016681D
:104590001768E2DA0C0E16C0DBFF0D0E17C0DBFF4A
:1045A0001AD0F70EDBCF16F0F80EDBCF17F0020EA5
:1045B000165E000E175AF70E16C0DBFFF80E17C076
:1045C000DBFF16C0E9FF17C0EAFFD6DAC5DA0C0E2A
:1045D000DB6A0D0EDB6A060EDB5005E1010EF36EA1
:1045E000050EF3CFDBFF150EDB6A160EDB6AD95022
:1045F000370F146E000EDA20156E390E14C0DBFF73
:104600003A0E15C0DBFF380EDB6A080EDB6A0A0EB5
:10461000AEDADF50780A12E0200A10E0280A0CE037
:10462000200A0AE03F0A06E00D0A02E0200A08E13B
:10463000020E05D0080E03D0080EDF26100E97DA02
:10464000030EDBBE02D0DB92DB94DB50800B24E058
:104650008ADAD890030EEB50000A08E6000EEE5CF2
:10466000000EEE58000EEE58000EEE5815E213DA6A
:104670000B680C680D680E6816EC39F00A0E00C065
:10468000DBFF0B0E01C0DBFF0C0E02C0DBFF0D0ECB
:1046900003C0DBFF2D0E08D0030EDBA202D02B0ED1
:1046A00003D0DBA408D0200EF36E170EF3CFDBFF90
:1046B000150EDB2A02D0170EDB6A050EDB5003E174
:1046C000B7D901E189D0240E146E770E156E000E55
:1046D000166E070EDBCF17F0186A196A1A6A17C030
:1046E0000BF018C00CF019C00DF01AC00EF0D3D9A1
:1046F0003DEC3AF014500024F36E15500120F46E96
:1047000016500220F86EF4CFF7FFF3CFF6FF080043
:10471000090EF5CFDBFF580EDF5C0FE1610EF36E83
:10472000090E7BD90AE3200E146E090EDBCFE7FFDA
:104730001450E75E090EE7CFDBFF070EDBCF14F066
:10474000156A166A176A0FDA14C00BF015C00CF060
:1047500016C00DF017C00EF0EECF04F0EECF05F04E
:10476000EECF06F0EFCF07F03DEC3AF007C0EDFFDB
:1047700006C0EDFF05C0EDFF04C0EFFF390EDBCF33
:10478000E9FFDB063A0EDBCFEAFF01E2DB06090EAA
:10479000DBCFEFFF150EDB2A4BD995E1030EDBA62D
:1047A0001DD06F0EDF5C06E1C1D918E3150EDB28C2
:1047B0005BDA14D0780EDF5C09E0580EDF5C06E0AF
:1047C000620EDF5C03E0420EDF5C08E1020EF36E76
:1047D000160EF3CFDBFF02D0150EDB6A030EDB50A3
:1047E000100B0EE0040EDBCF14F0050EDB50D8806A
:1047F000145406E2060EDB5003E1040EDB5034DAFB
:1048000095D90AE2050EDBCFE7FF150EDB50E75E18
:10481000050EE7CFDBFF02D0050EDB6A040EDBCF0F
:1048200014F0160E45D9D880145414E2160EDBCFBE
:10483000E6FF150EDBCFE6FF040EDBCFE6FF050E2D
:10484000DB50E552E75CE552D880E754E552D8806A
:10485000E7545FD9030EDB50010B0BE1080EDB5070
:1048600008E0B2D801E08DD0080EDB50BED8080EAB
:10487000DB6A170EDB5007E088D9170EF1D903E188
:10488000151C01E17ED0160EDB5016E07ED9300EED
:10489000E66E9FD802E1151C74E077D9DFCFE6FF02
:1048A0005DEC38F0E552E552E552F4CF15F0000129
:1048B000F31C02E1151C65E0050EDBCF14F0160EAB
:1048C000DB50D880145409E2050EDBCFE7FF160E4B
:1048D000DB50E75E050EE7CFDBFF300EE66E050E20
:1048E000CBD94FE1390EDB2ADBCFE9FF3A0E01E3EA
:1048F000DB2ADBCFEAFF090EEFCFDBFFDB500EE058
:1049000044D9090EADD902E1151C3BE0390EDB2A72
:10491000DBCFE9FF3A0EEDE3DB2AEBD755D831E1E7
:10492000160EDBCFE6FF080EC3D8E552E7245DD8AC
:104930002ED0070EDB50030A1CE0010A14E0030A24
:1049400007E07BD9DBCFEEFF020EDBCFEDFF1FD000
:10495000F5D8196A17AE02D0186819682CD8BCD8D7
:1049600019C0EEFF14D0EAD817BE186824D8B4D8FE
:104970000ED063D9DBCFEFFF0AD07BD905E1151C40
:1049800003E1F368F46810D0FCD801E3DB2A79D99D
:1049900066EF20F0010EDBCF14F0020EDBCF15F036
:1049A00014C0F3FF15C0F4FF3B0EE15C02E2E16AC4
:1049B000E552E16ECBD029D9020ECCEF25F061D9BA
:1049C0000800F550DF6E1200200EE66E080E3CEF78
:1049D00026F05DEC38F0E552E552E552F3CF14F0E5
:1049E000F4CF15F00001F31C1200146E156AD950B3
:1049F000010F4DD91450EE261550ED221200185E0D
:104A0000000E195AF70E18C0DBFFF80E19C0DBFFB5
:104A100018C0E9FF19C0EAFF1200DBCFF4FFF35022
:104A2000F45C1200DB50E76E040EE7CFDBFF1200F0
:104A30000A0EDBCF14F00B0EDBCF15F00C0EDBCF24
:104A400016F00D0EDBCF17F01450151016101710BE
:104A50001200130EEECFDBFF140EEDCFDBFF130EB3
:104A6000DBCF14F0140EDBCF15F00001800E15140F
:104A70001200F70EDBCF18F0F80EDBCF19F01200A2
:104A8000050EDB50E66ED950130F01D9E552E75001
:104A9000EE6EED6A12000A0EDBCF04F00B0EDBCFD8
:104AA00005F00C0EDBCF06F00D0EDBCF07F0120089
:104AB000DBCFE6FF150EDBCFE6FF050EDB50E55240
:104AC000E724E552E7241200DB50CED8010EF36E46
:104AD000060EF3CFDBFF1200EE50EFCFEAFFE96ED8
:104AE00016C0EEFF17C0EEFF18C0EEFF1200D9CFC0
:104AF000E6FFDACFE6FFE1CFD9FFE2CFDAFF12001F
:104B0000DFCFE6FFE66A4FEC3BF0E552E552F350AB
:104B10001200E76E080EE7CFDBFF1200EECF14F0B5
:104B2000EECF15F0EFCF16F0176A1200050EDBCFAF
:104B300014F0150EDB50D88014541200010EDBCF98
:104B400016F0020EDBCF17F0186A1200E552E5CF1F
:104B5000DAFFE7CFD9FF12000A0E14C0DBFF0B0EFD
:104B600015C0DBFF1200D9500A0F47EF26F0F36E95
:104B7000070EF3CFDBFF1200EECF14F0EFCF15F0EE
:104B80001200010EDB2A020E1200FC0EDBCFE6FF44
:104B9000FD0EDBCFE6FF1200145E000E155AF70E75
:104BA00014C0DBFFF80E15C0DBFF14C0E9FF15C011
:104BB000EAFF1200DA20EA6EEF2AEECFF6FF000ECF
:104BC000EF22EECFF7FFEF22EECFF8FF1200040E38
:104BD000DBCFE6FF130EDB50E552E75C9ADFDB50DC
:104BE00004DF060EDB501200090EDB500A0DF350F5
:104BF000DF24D00FE76E090EE7CFDBFFDFEF24F0F5
:104C0000DB50F36E050E0DEF25F0F70EDBCF14F041
:104C1000F80EDBCF15F01200DFCFE6FFE9EF24F04E
:104C200028DF030EECDE8EEF25F03BEC20F0E552A2
:104C3000E552E552E55200091200BDDEEE50EFCF1D
:104C4000EAFFE96E010E1200130EDB50F36E040E44
:104C50000DEF25F0040EDB50F36E090E0DEF25F07D
:104C6000DBCFE6FFE9EF24F0E76E050EE7CFDBFFD1
:104C700012008BDF0CEF26F0DBCFE6FF86DF15EFAF
:104C800026F0D950F90FE96EFF0EDAEF25F0E96E44
:104C9000000EDA20EA6E1200D9CFE6FFE1CFD9FF8D
:104CA000020EE126DE6ADD6ADECF14F0DDCF15F0FC
:104CB00001011550A819E8AE02D0A83504D0A751BB
:104CC000145CA851155801E38DD0DECFE9FFDDCF8C
:104CD000EAFF070EEA02F3CFEAFF070EE902F3CF7D
:104CE000E9FFF450EA26CD0EE926000EEA22EF6A2B
:104CF000DECFE9FFDDCFEAFF070EEA02F3CFEAFFDE
:104D0000070EE902F3CFE9FFF450EA26CD0EE926BB
:104D1000000EEA22EE52010EEF6EDECFE9FFDDCF8C
:104D2000EAFF070EEA02F3CFEAFF070EE902F3CF2C
:104D3000E9FFF450EA26CD0EE926000EEA22030E22
:104D4000E926000EEA22A5C1EFFFDECFE9FFDDCFA5
:104D5000EAFF070EEA02F3CFEAFF070EE902F3CFFC
:104D6000E9FFF450EA26CD0EE926000EEA22040EF1
:104D7000E926000EEA22A5C1EFFFDECFE9FFDDCF75
:104D8000EAFF070EEA02F3CFEAFF070EE902F3CFCC
:104D9000E9FFF450EA26CD0EE926000EEA22050EC0
:104DA000E926000EEA22A5C1EFFFDECFE9FFDDCF45
:104DB000EAFF070EEA02F3CFEAFF070EE902F3CF9C
:104DC000E9FFF450EA26CD0EE926000EEA22060E8F
:104DD000E926000EEA22010EEF6EDF2A010E01E342
:104DE000DB2A62D70001CF6B0001010ED66F020EE5
:104DF000E15C02E2E16AE552E16EE552E7CFD9FFFC
:104E00001200D9CFE6FFE1CFD9FF020EE126DE6A1C
:104E1000DD6ADECF14F0DDCF15F001011550A819C1
:104E2000E8AE02D0A83504D0A751145CA85115589B
:104E300001E3A9D0DECFE9FFDDCFEAFF070EEA02EA
:104E4000F3CFEAFF070EE902F3CFE9FFF450EA26B9
:104E5000CD0EE926000EEA22020EE926000EEA2215
:104E6000EFCF14F0FE0EDB50145C13E1DECFE9FF50
:104E7000DDCFEAFF070EEA02F3CFEAFF070EE902F1
:104E8000F3CFE9FFF450EA26CD0EE926000EEA2220
:104E9000EF6ADECFE9FFDDCFEAFF070EEA02F3CFCC
:104EA000EAFF070EE902F3CFE9FFF450EA26CD0E40
:104EB000E926000EEA22EE52010EEF6EDECFE9FF88
:104EC000DDCFEAFF070EEA02F3CFEAFF070EE902A1
:104ED000F3CFE9FFF450EA26CD0EE926000EEA22D0
:104EE000030EE926000EEA22A5C1EFFFDECFE9FF9F
:104EF000DDCFEAFF070EEA02F3CFEAFF070EE90271
:104F0000F3CFE9FFF450EA26CD0EE926000EEA229F
:104F1000040EE926000EEA22A5C1EFFFDECFE9FF6D
:104F2000DDCFEAFF070EEA02F3CFEAFF070EE90240
:104F3000F3CFE9FFF450EA26CD0EE926000EEA226F
:104F4000050EE926000EEA22A5C1EFFFDECFE9FF3C
:104F5000DDCFEAFF070EEA02F3CFEAFF070EE90210
:104F6000F3CFE9FFF450EA26CD0EE926000EEA223F
:104F7000060EE926000EEA22010EEF6EDF2A010E70
:104F800001E3DB2A46D7020EE15C02E2E16AE55268
:104F9000E16EE552E7CFD9FF1200D9CFE6FFE1CFAE
:104FA000D9FF020EE126FE0EDBCFE6FFA3DAE552C3
:104FB000000906E1FE0EDBCFE6FFECEC2BF0E5523C
:104FC000DE6ADD6ADECF14F0DDCF15F00101155089
:104FD000A819E8AE02D0A83504D0A751145CA85196
:104FE000155867E2DECFE9FFDDCFEAFF070EEA02E0
:104FF000F3CFEAFF070EE902F3CFE9FFF450EA2608
:10500000CD0EE926000EEA22EF044EE1DECFE9FFE5
:10501000DDCFEAFF070EEA02F3CFEAFF070EE9024F
:10502000F3CFE9FFF450EA26CD0EE926000EEA227E
:10503000020EE926000EEA22EFCF14F0FE0EDB503E
:10504000145C32E1DECFE9FFDDCFEAFF070EEA02B2
:10505000F3CFEAFF070EE902F3CFE9FFF450EA26A7
:10506000CD0EE926000EEA22030EE926000EEA2202
:10507000FC0EDBCFEFFFDECFE9FFDDCFEAFF070E4F
:10508000EA02F3CFEAFF070EE902F3CFE9FFF4509B
:10509000EA26CD0EE926000EEA22040EE926000ECD
:1050A000EA22FD0EDBCFEFFFDF2A010E01E3DB2A50
:1050B00089D7020EE15C02E2E16AE552E16EE55257
:1050C000E7CFD9FF1200D9CFE6FFE1CFD9FF020E1B
:1050D000E126FE0EDBCFE6FF0DDAE552000905E121
:1050E000FE0EDBCFE6FF78DBE552DE6ADD6ADECF5F
:1050F00014F0DDCF15F001011550A819E8AE02D06B
:10510000A83504D0A751145CA85115584EE2DECF43
:10511000E9FFDDCFEAFF070EEA02F3CFEAFF070E51
:10512000E902F3CFE9FFF450EA26CD0EE926000E9E
:10513000EA22EF0435E1DECFE9FFDDCFEAFF070E1B
:10514000EA02F3CFEAFF070EE902F3CFE9FFF450DA
:10515000EA26CD0EE926000EEA22020EE926000E0E
:10516000EA22EFCF14F0FE0EDB50145C19E1DECF23
:10517000E9FFDDCFEAFF070EEA02F3CFEAFF070EF1
:10518000E902F3CFE9FFF450EA26CD0EE926000E3E
:10519000EA22050EE926000EEA22FD0EDBCFEFFF24
:1051A000DF2A010E01E3DB2AA2D7020EE15C02E254
:1051B000E16AE552E16EE552E7CFD9FF1200D9CF9F
:1051C000E6FFE1CFD9FF030EE126DE6ADD6ADECF1E
:1051D00014F0DDCF15F001011550A819E8AE02D08A
:1051E000A83504D0A751145CA851155801E321D16A
:1051F000DECFE9FFDDCFEAFF070EEA02F3CFEAFFD9
:10520000070EE902F3CFE9FFF450EA26CD0EE926B6
:10521000000EEA22EF0401E007D1DECFE9FFDDCF87
:10522000EAFF070EEA02F3CFEAFF070EE902F3CF27
:10523000E9FFF450EA26CD0EE926000EEA22020E1E
:10524000E926000EEA22EFCF14F0FE0EDB50145CCC
:1052500001E0EAD0DECFE9FFDDCFEAFF070EEA0288
:10526000F3CFEAFF070EE902F3CFE9FFF450EA2695
:10527000CD0EE926000EEA22040EE926000EEA22EF
:10528000EFCF15F0166A15BE16680101A551151865
:1052900002E1A651161801E1C7D0DECFE9FFDDCF4C
:1052A000EAFF070EEA02F3CFEAFF070EE902F3CFA7
:1052B000E9FFF450EA26CD0EE926000EEA22030E9D
:1052C000E926000EEA22EFCF17F0186A17BE186819
:1052D0000101A551171802E1A651181801E1A4D047
:1052E000DECFE9FFDDCFEAFF070EEA02F3CFEAFFE8
:1052F000070EE902F3CFE9FFF450EA26CD0EE926C6
:10530000000EEA22EE52EF6A8CEC3BF0020A09E052
:10531000030A01E00CD0020EF36E020EF3CFDBFFA6
:1053200006D0010EF36E020EF3CFDBFF00D0DECF0E
:10533000E9FFDDCFEAFF070EEA02F3CFEAFF070E2F
:10534000E902F3CFE9FFF450EA26CD0EE926000E7C
:10535000EA22020EE926000EEA22EF50E66E3C0E2B
:10536000E66EE66ADECFE9FFDDCFEAFF070EEA026E
:10537000F3CFEAFF070EE902F3CFE9FFF450EA2684
:10538000CD0EE926000EEA22050EE926000EEA22DD
:10539000EF50E66EDECFE9FFDDCFEAFF070EEA024F
:1053A000F3CFEAFF070EE902F3CFE9FFF450EA2654
:1053B000CD0EE926000EEA22030EE926000EEA22AF
:1053C000EF50E66EF3EC16F0F3CF14F0F4CF15F0D7
:1053D00014C0E6FF15C0E6FFDECFE9FFDDCFEAFF30
:1053E000070EEA02F3CFEAFF070EE902F3CFE9FF67
:1053F000F450EA26CD0EE926000EEA22040EE92634
:10540000000EEA22EF50E66E8CEC3BF0E66E020EE8
:10541000DBCFE6FF74EC0DF0166E0A0EE15E16505F
:105420000101A92B000EAA23DF2A010E01E3DB2ACA
:10543000CED6030EE15C02E2E16AE552E16EE5528E
:10544000E7CFD9FF1200D9CFE6FFE1CFD9FF020E97
:10545000E126DE6ADD6ADECF14F0DDCF15F0010152
:105460001550A819E8AE02D0A83504D0A751145C95
:10547000A851155835E2DECFE9FFDDCFEAFF070E70
:10548000EA02F3CFEAFF070EE902F3CFE9FFF45097
:10549000EA26CD0EE926000EEA22020EE926000ECB
:1054A000EA22EFCF14F0FE0EDB50145C14E1DECFE5
:1054B000E9FFDDCFEAFF070EEA02F3CFEAFF070EAE
:1054C000E902F3CFE9FFF450EA26CD0EE926000EFB
:1054D000EA22010EEF6EDF2A010E01E3DB2ABBD7C1
:1054E000020EE15C02E2E16AE552E16EE552E7CFCD
:1054F000D9FF1200D9CFE6FFE1CFD9FF030EE12695
:10550000010EF36E020EF3CFDBFFDE6ADD6ADECF43
:1055100014F0DDCF15F001011550A819E8AE02D046
:10552000A83504D0A751145CA851155843E2DECF2A
:10553000E9FFDDCFEAFF070EEA02F3CFEAFF070E2D
:10554000E902F3CFE9FFF450EA26CD0EE926000E7A
:10555000EA22020EE926000EEA22EFCF14F0FE0E38
:10556000DB50145C22E1DECFE9FFDDCFEAFF070E5E
:10557000EA02F3CFEAFF070EE902F3CFE9FFF450A6
:10558000EA26CD0EE926000EEA22EF50010A06E0D7
:10559000010A01E009D0020EDB6A06D0010EF36EAB
:1055A000020EF3CFDBFF00D005D0DF2A010E01E3AE
:1055B000DB2AADD7020EDB5000D0146E030EE15C87
:1055C00002E2E16AE552E16E1450E552E7CFD9FFFD
:1055D0001200D9CFE6FFE1CFD9FF020EE126DE6A45
:1055E000DD6ADECF14F0DDCF15F001011550A819EA
:1055F000E8AE02D0A83504D0A751145CA8511558C4
:105600006EE2DECFE9FFDDCFEAFF070EEA02F3CF5D
:10561000EAFF070EE902F3CFE9FFF450EA26CD0EC8
:10562000E926000EEA22020EE926000EEA22EFCF5A
:1056300014F0FE0EDB50145C4DE1DECFE9FFDDCF50
:10564000EAFF070EEA02F3CFEAFF070EE902F3CF03
:10565000E9FFF450EA26CD0EE926000EEA22060EF6
:10566000E926000EEA22EF50010A1CE0010A01E0DF
:1056700031D0DECFE9FFDDCFEAFF070EEA02F3CF3C
:10568000EAFF070EE902F3CFE9FFF450EA26CD0E58
:10569000E926000EEA22060EE926000EEA22010E95
:1056A000EF6E18D0DECFE9FFDDCFEAFF070EEA028A
:1056B000F3CFEAFF070EE902F3CFE9FFF450EA2641
:1056C000CD0EE926000EEA22060EE926000EEA2299
:1056D000EF6A00D0DF2A010E01E3DB2A82D7020E37
:1056E000E15C02E2E16AE552E16EE552E7CFD9FF03
:1056F0001200D9CFE6FFE1CFD9FF030EE126010E5C
:10570000DF6E010EDB6A020EDB6A010EDBCF14F0E6
:10571000020EDBCF15F001011550A819E8AE02D03A
:10572000A83504D0A751145CA851155847E2010EC2
:10573000DBCFE9FF020EDBCFEAFF070EEA02F3CF71
:10574000EAFF070EE902F3CFE9FFF450EA26CD0E97
:10575000E926000EEA22020EE926000EEA22EFCF29
:1057600014F0FE0EDB50145C23E1010EDBCFE9FFE9
:10577000020EDBCFEAFF070EEA02F3CFEAFF070EC5
:10578000E902F3CFE9FFF450EA26CD0EE926000E38
:10579000EA22060EE926000EEA22EF50010A05E091
:1057A000010A01E005D0DF6A03D0010EDF6E00D0F0
:1057B000010EDB2A020E01E3DB2AA7D7DF5000D05F
:1057C000146E030EE15C02E2E16AE552E16E1450F0
:1057D000E552E7CFD9FF1200D9CFE6FFE1CFD9FFDD
:1057E000FE0EDB50010A10E0010A01E01BD0020EA0
:1057F000E66EE66A9FEC38F0E552E552000903E1F7
:10580000E66A21DEE5520ED0050EE66EE66A9FECF2
:1058100038F0E552E552000904E1010EE66E13DEB0
:10582000E55200D0E552E7CFD9FF1200D9CFE6FF0D
:10583000E1CFD9FF030EE126DE6ADD6A010EF36EC9
:10584000020EF3CFDBFFFB0EDBCF06F0FC0EDBCF4F
:1058500007F0050E061801E1075027E0040E0618B0
:1058600001E107501DE0030E061801E1075013E0A7
:10587000020E061801E107500AE0010E061801E1C8
:10588000075001E017D0640EDE6EDD6A13D0C80E3B
:10589000DE6EDD6A0FD02C0EDE6E010EDD6E0AD0DC
:1058A000900EDE6E010EDD6E05D0F40EDE6E010E82
:1058B000DD6E00D0E66A02EC2EF0E552030801E04E
:1058C00089D0FD0EDBCF14F0FE0EDBCF15F0030107
:1058D000F051141802E1F151151803E1020EDB6AD0
:1058E00069D0FD0EDBCF14F0FE0EDBCF15F0030107
:1058F000F1511518E8AE02D0153404D01450F05D03
:105900001550F1591DE2DE500301F027DD5003016F
:10591000F1230301F13504E2F051FF08030EF155C4
:1059200006E2FD0EDBCFF0F3FE0EDBCFF1F3F0C3AA
:10593000E6FFF1C3E6FFE1EC39F0E552E5523AD07B
:10594000FD0EDBCF14F0FE0EDBCF15F0030115507A
:10595000F119E8AE02D0F13504D0F051145CF151E8
:10596000155828E2000EDB500301F05F010EDB50FA
:105970000301F15BFD0EDBCF14F0FE0EDBCF15F063
:105980000301F1511518E8AE02D0153404D01450BB
:10599000F05D1550F15906E2FD0EDBCFF0F3FE0E7F
:1059A000DBCFF1F3F0C3E6FFF1C3E6FFE1EC39F042
:1059B000E552E552000EE66EE66A010EE66EE66A14
:1059C000000EE66EE66AE66A4DEC2EF0146E070EE7
:1059D000E15E1450020EDB5000D0146E030EE15C49
:1059E00002E2E16AE552E16E1450E552E7CFD9FFD9
:1059F0001200D9CFE6FFE1CFD9FF030EE126DE6A20
:105A0000DD6A010EF36E020EF3CFDBFFFB0EDBCF80
:105A100006F0FC0EDBCF07F0050E061801E107507B
:105A200027E0040E061801E107501DE0030E0618DA
:105A300001E1075013E0020E061801E107500AE0E9
:105A4000010E061801E1075001E017D0640EDE6E6A
:105A5000DD6A13D0C80EDE6EDD6A0FD02C0EDE6E4E
:105A6000010EDD6E0AD0900EDE6E010EDD6E05D0E9
:105A7000F40EDE6E010EDD6E00D0E66A02EC2EF052
:105A8000E552030801E089D0FD0EDBCF14F0FE0ED5
:105A9000DBCF15F00301F251141802E1F351151890
:105AA00003E1020EDB6A69D0FD0EDBCF14F0FE0EBF
:105AB000DBCF15F00301F3511518E8AE02D0153411
:105AC00004D01450F25D1550F3591DE2DE5003016D
:105AD000F227DD500301F3230301F33504E2F25111
