:020000040000FA
:060000008CEF3BF0120042
:0A000600000E00D01200010E00D021
:080010001200020E00D01200E4
:06001800DDEF2EF01200E6
:02001E001100CF
:100020005F780000AA02000001000000BA7700001B
:1000300000020000A5000000B9770000A90200003E
:1000400001000000A8770000BC00000011000000C3
:10005000A7770000A802000001000000A6770000BA
:10006000A702000001000000A5770000A602000022
:1000700001000000A4770000A502000001000000BC
:10008000A3770000FF00000001000000A27700003D
:10009000FE00000001000000A1770000FD0000004C
:1000A000010000009B770000ED000000060000004A
:1000B0009A770000FC000000010000007977000042
:1000C000FB0000000100000092770000E500000046
:1000D000080000008E770000F3000000040000001C
:0C00E0008C770000FE0100000200000010
:0400EC00D9CFE6FF83
:1000F000E1CFD9FF1A0EE126010EDF6EDE523C0E73
:10010000DD6E2F0EF36E020EF3CFDBFF3E0EF36EAD
:10011000030EF3CFDBFFD950040FE96EDACFEAFF0D
:10012000300EEE6E300EEE6E300EEE6EEE6AD95080
:10013000080FE96EDACFEAFF300EEE6E300EEE6E8B
:10014000310EEE6EEE6AD9500C0FE96EDACFEAFF8F
:10015000300EEE6E300EEE6E320EEE6EEE6AD9504E
:10016000100FE96EDACFEAFF670EEE6E720EEE6EDA
:10017000610EEE6E6E0EEE6E740EEE6E650EEE6E2F
:10018000640EEE6EEE6AF60EF36E180EF3CFDBFF22
:10019000190EDB68ACA2E5EF0BF00201A951030ACE
:1001A00002E1D3EF0BF0610A02E1C6EF0BF0030AA4
:1001B00002E1A4EF0BF0010A02E197EF0BF03F0A16
:1001C00002E18AEF0BF0010A02E168EF0BF0030A8B
:1001D00002E15BEF0BF0010A02E139EF0BF0070AD5
:1001E00002E12CEF0BF0010A02E117EF0BF0030A1A
:1001F00002E10AEF0BF0010A02E1E8EF0AF00F0A50
:1002000002E1DBEF0AF0010A02E1CEEF0AF0030A95
:1002100002E1CBEF0AF0010A02E1BEEF0AF0070AA1
:1002200002E19CEF0AF0010A02E18FEF0AF0030AF3
:1002300002E17BEF0AF0010A02E16EEF0AF01F0A09
:1002400002E14CEF0AF0010A02E13FEF0AF0030A73
:1002500002E132EF0AF0010A02E1BFEF09F0070AFA
:1002600002E1B2EF09F0010A02E190EF09F0030A9E
:1002700002E183EF09F0010A02E16EEF09F00F0AD3
:1002800002E161EF09F0010A02E13FEF09F0030A20
:1002900002E132EF09F0010A02E125EF09F0070A55
:1002A00002E103EF09F0010A02E1F6EF08F0030AA8
:1002B00002E1D4EF08F0010A02E1C7EF08F07F0A7B
:1002C00002E1B2EF08F0010A02E1A5EF08F0030A2B
:1002D00002E183EF08F0010A02E176EF08F0070A75
:1002E00002E169EF08F0010A02E11AEF08F0030ADF
:1002F00002E10DEF08F0010A02E1EBEF07F00F0A4F
:1003000002E1DEEF07F0010A02E1C8EF07F0030A9D
:1003100002E1BAEF07F0010A02E197EF07F0070ADE
:1003200002E189EF07F0010A02E17BEF07F0030A1F
:1003300002E153EF07F0010A02E146EF07F01F0A5E
:1003400002E138EF07F0010A02E115EF07F0030AB6
:1003500002E107EF07F0010A02E1EDEF06F0070AFC
:1003600002E1DFEF06F0010A02E1BCEF06F0030A4A
:1003700002E1AEEF06F0010A02E1A0EF06F00F0A7B
:1003800002E12CEF06F0010A02E11EEF06F0030A7B
:1003900002E1FBEF05F0010A02E1EDEF05F0070ACB
:1003A00002E1D7EF05F0010A01E1F3D3030A01E10D
:1003B000CDD3010A01E1BCD33F0A01E1ABD3010A6D
:1003C00001E17ED3030A01E155D3010A01E12FD3F4
:1003D000070A01E11ED3010A01E106D3030A01E184
:1003E000F5D2010A01E1CFD20F0A01E1BED2010A22
:1003F00001E1ADD2030A01E182D2010A01E157D243
:10040000070A01E12CD2010A01E1F3D1030A01E15B
:10041000E2D1010A01E1BCD11F0A01E1ABD1010A1D
:1004200001E19AD1030A01E174D1010A01E163D12A
:10043000070A01E152D1010A01E127D1030A01E1D2
:10044000FCD0010A01E1D1D00F0A01E17FD0010AFD
:100450006FE0030A4AE0010A3AE0060A0FE0030AE5
:1004600002E0E5EF0BF02FEC15F0000904E10201CA
:10047000020EA96F01D0DF6AE5EF0BF00E0EE12648
:100480008CEC15F0EECFDAF1EECFDBF1EECFDCF154
:10049000EECFDDF1EECFDEF1EECFDFF1EECFE0F12A
:1004A000EECFE1F1EECFE2F1EECFE3F1EECFE4F10A
:1004B000EECFE5F1EECFE6F1EECFE7F1146E0E0EE2
:1004C000E15E14500201040EA96FE5EF0BF0010E7E
:1004D000DBCFE6FF4CEC3BF0E5520201050EA96FC5
:1004E0000101EC6BED6BE5EF0BF00101020EEC5D31
:1004F000000EED5912E2000E0101EC25E96E020E2C
:100500000101ED21EA6EEF50E66E4CEC3BF0E55256
:100510000101EC2B000EED2309D00101020EEC19B4
:1005200001E1ED5103E10201060EA96FE5EF0BF0C9
:10053000030EDBCFE6FF4CEC3BF0E5520201070E69
:10054000A96F0101EC6BED6BE5EF0BF006EC00F031
:100550000101DC5D1AE006EC00F00101DD5D15E053
:100560000101DC510DE0020A07E0030A01E00CD0B2
:100570000201080EA96F08D00201090EA96F04D06C
:1005800002010A0EA96F00D02ED006EC00F0010186
:10059000DC5D15E10101DD510DE0020A07E0030A0F
:1005A00001E00CD00201080EA96F08D00201090E6B
:1005B000A96F04D002010A0EA96F00D014D0010166
:1005C000DC510DE0020A07E0030A01E00CD0020151
:1005D000080EA96F08D00201090EA96F04D002010C
:1005E0000A0EA96F00D0E5EF0BF00101030EEC5DE0
:1005F000000EED5917E2D950080F146EDACF15F03E
:1006000014500101EC25E96E15500101ED21EA6E4F
:10061000EF50E66E4CEC3BF0E5520101EC2B000E86
:10062000ED2309D00101030EEC1901E1ED5103E1C5
:1006300002010B0EA96FE5EF0BF00101030EEC5D5B
:10064000000EED5917E2D9500C0F146EDACF15F0E9
:1006500014500101EC25E96E15500101ED21EA6EFF
:10066000EF50E66E4CEC3BF0E5520101EC2B000E36
:10067000ED2309D00101030EEC1901E1ED5103E175
:1006800002010B0EA96FE5EF0BF00101030EEC5D0B
:10069000000EED5917E2D950040F146EDACF15F0A1
:1006A00014500101EC25E96E15500101ED21EA6EAF
:1006B000EF50E66E4CEC3BF0E5520101EC2B000EE6
:1006C000ED2309D00101030EEC1901E1ED5103E125
:1006D00002010B0EA96FE5EF0BF0010EDBCFE6FF79
:1006E0004CEC3BF0E55202010C0EA96F0101EC6BE2
:1006F000ED6BE5EF0BF0020EDBCFE6FF4CEC3BF0D1
:10070000E55202010D0EA96F0101EC6BED6BE5EFF7
:100710000BF00101020EEC5D000EED5912E2000E2D
:100720000101EC25E96E020E0101ED21EA6EEF50A8
:10073000E66E4CEC3BF0E5520101EC2B000EED2394
:1007400009D00101020EEC1901E1ED5103E10201B2
:100750000E0EA96FE5EF0BF0030EDBCFE6FF4CECBE
:100760003BF0E55202010F0EA96F0101EC6BED6B3E
:10077000E5EF0BF0010EDBCFE6FF4CEC3BF0E55272
:100780000201100EA96F0101EC6BED6BE5EF0BF0B0
:100790000101040EEC5D000EED5912E2030E0101A1
:1007A000EC25E96E020E0101ED21EA6EEF50E66ED6
:1007B0004CEC3BF0E5520101EC2B000EED2309D08F
:1007C0000101040EEC1901E1ED5103E10201110EEA
:1007D000A96FE5EF0BF0030EDBCFE6FF4CEC3BF02F
:1007E000E5520201120EA96F0101EC6BED6BE5EF12
:1007F0000BF006EC00F00101DC5D1AE006EC00F005
:100800000101DD5D15E00101DD510DE0020A07E0A7
:10081000030A01E00CD00201130EA96F08D00201F7
:10082000140EA96F04D00201150EA96F00D015D0C7
:1008300006EC00F0000A0DE0020A07E0030A01E0FE
:100840000CD00201130EA96F08D00201140EA96F7B
:1008500004D00201150EA96F00D0E5EF0BF00101E5
:10086000030EEC5D000EED5917E2D950080F146E1F
:10087000DACF15F014500101EC25E96E1550010195
:10088000ED21EA6EEF50E66E4CEC3BF0E5520101D3
:10089000EC2B000EED2309D00101030EEC1901E150
:1008A000ED5103E10201160EA96FE5EF0BF0010116
:1008B000030EEC5D000EED5917E2D9500C0F146ECB
:1008C000DACF15F014500101EC25E96E1550010145
:1008D000ED21EA6EEF50E66E4CEC3BF0E552010183
:1008E000EC2B000EED2309D00101030EEC1901E100
:1008F000ED5103E10201160EA96FE5EF0BF00101C6
:10090000030EEC5D000EED5917E2D950040F146E82
:10091000DACF15F014500101EC25E96E15500101F4
:10092000ED21EA6EEF50E66E4CEC3BF0E552010132
:10093000EC2B000EED2309D00101030EEC1901E1AF
:10094000ED5103E10201160EA96FE5EF0BF0010E68
:10095000DBCFE6FF4CEC3BF0E5520201170EA96F2E
:100960000101EC6BED6BE5EF0BF0020EDBCFE6FF68
:100970004CEC3BF0E5520201180EA96F0101EC6B43
:10098000ED6BE5EF0BF00101040EEC5D000EED598F
:1009900012E2030E0101EC25E96E020E0101ED21C8
:1009A000EA6EEF50E66E4CEC3BF0E5520101EC2BA9
:1009B000000EED2309D00101040EEC1901E1ED5107
:1009C00003E10201190EA96FE5EF0BF0030EDBCF77
:1009D000E6FF4CEC3BF0E55202011A0EA96F010153
:1009E000EC6BED6BE5EF0BF0DFC114F0E0C115F03F
:1009F000180EDB50141803E1190EDB50151804E132
:100A00000201230EA96F03D002011B0EA96FE5EFAF
:100A10000BF0010EDBCFE6FF4CEC3BF0E5520201A0
:100A20001C0EA96F0101EC6BED6BE5EF0BF0010102
:100A3000050EEC5D000EED5912E22A0E0101EC25C7
:100A4000E96E020E0101ED21EA6EEF50E66E4CEC0C
:100A50003BF0E5520101EC2B000EED2309D0010122
:100A6000050EEC1901E1ED5103E102011D0EA96F24
:100A7000E5EF0BF0030EDBCFE6FF4CEC3BF0E5526D
:100A800002011E0EA96F0101EC6BED6BDFC1E6FFE9
:100A9000E0C1E6FF500EE66E770EE66E000EE66EE3
:100AA000E80EE66E010EE66EB3EC37F0146E070E3C
:100AB000E15E1450F3CFEEF1F4CFEFF1E5EF0BF080
:100AC0000101EE510101EC5D0101EF510101ED5910
:100AD00012E2E80E0101EC25E96E010E0101ED21A3
:100AE000EA6EEF50E66E4CEC3BF0E5520101EC2B68
:100AF000000EED230DD00101EE510101EC1904E1CE
:100B00000101EF510101ED1903E102011F0EA96F6F
:100B1000E5EF0BF0010EDBCFE6FF4CEC3BF0E552CE
:100B20000201200EA96F0101EC6BED6BE5EF0BF0FC
:100B3000020EDBCFE6FF4CEC3BF0E5520201210E4A
:100B4000A96F0101EC6BED6BE5EF0BF00101050EF8
:100B5000EC5D000EED5912E22A0E0101EC25E96E62
:100B6000020E0101ED21EA6EEF50E66E4CEC3BF017
:100B7000E5520101EC2B000EED2309D00101050E19
:100B8000EC1901E1ED5103E10201220EA96FE5EF3D
:100B90000BF0030EDBCFE6FF4CEC3BF0E55202011D
:100BA000230EA96F0101EC6BED6BE5EF0BF0E7C1D4
:100BB00014F0156A14BE1568180EDB50141803E102
:100BC000190EDB50151804E102012C0EA96F03D099
:100BD0000201240EA96FE5EF0BF0010EDBCFE6FF5B
:100BE0004CEC3BF0E5520201250EA96F0101EC6BC4
:100BF000ED6BE5EF0BF00101060EEC5D000EED591B
:100C000012E2080E0101EC25E96E020E0101ED2150
:100C1000EA6EEF50E66E4CEC3BF0E5520101EC2B36
:100C2000000EED2309D00101060EEC1901E1ED5192
:100C300003E10201260EA96FE5EF0BF0030EDBCFF7
:100C4000E6FF4CEC3BF0E5520201270EA96F0101D3
:100C5000EC6BED6BE5EF0BF00101E751020A49E0A7
:100C6000030A25E0010A01E066D00101030EEC5DF4
:100C7000000EED5912E2870E0101EC25E96E020E1D
:100C80000101ED21EA6EEF50E66E4CEC3BF0E552CF
:100C90000101EC2B000EED2309D00101030EEC192C
:100CA00001E1ED5103E10201280EA96F47D00101D6
:100CB000030EEC5D000EED5912E28B0E0101EC25E6
:100CC000E96E020E0101ED21EA6EEF50E66E4CEC8A
:100CD0003BF0E5520101EC2B000EED2309D00101A0
:100CE000030EEC1901E1ED5103E10201280EA96F99
:100CF00025D00101060EEC5D000EED5912E28F0EBB
:100D00000101EC25E96E020E0101ED21EA6EEF50C2
:100D1000E66E4CEC3BF0E5520101EC2B000EED23AE
:100D200009D00101060EEC1901E1ED5103E10201C8
:100D3000280EA96F03D00201280EA96FE5EF0BF072
:100D4000010EDBCFE6FF4CEC3BF0E5520201290E31
:100D5000A96F0101EC6BED6BE5EF0BF0020EDBCF41
:100D6000E6FF4CEC3BF0E55202012A0EA96F0101AF
:100D7000EC6BED6BE5EF0BF00101060EEC5D000E88
:100D8000ED5912E2080E0101EC25E96E020E010197
:100D9000ED21EA6EEF50E66E4CEC3BF0E5520101BE
:100DA000EC2B000EED2309D00101060EEC1901E138
:100DB000ED5103E102012B0EA96FE5EF0BF0030EDD
:100DC000DBCFE6FF4CEC3BF0E55202012C0EA96FA5
:100DD0000101EC6BED6BE5EF0BF0E5C114F0156A6A
:100DE00014BE1568180EDB50141803E1190EDB5001
:100DF000151804E0040E0101E55D04E10201360E60
:100E0000A96F03D002012D0EA96FE5EF0BF0010EC3
:100E1000DBCFE6FF4CEC3BF0E55202012E0EA96F52
:100E20000101EC6BED6BE5EF0BF00101050EEC5DE4
:100E3000000EED5912E2240E0101EC25E96E020EBE
:100E40000101ED21EA6EEF50E66E4CEC3BF0E5520D
:100E50000101EC2B000EED2309D00101050EEC1968
:100E600001E1ED5103E102012F0EA96FE5EF0BF057
:100E7000030EDBCFE6FF4CEC3BF0E5520201300EF7
:100E8000A96F0101EC6BED6BE5EF0BF00101E55192
:100E900001E004D00201310EA96F03D00201320E2D
:100EA000A96FE5EF0BF00101070EEC5D000EED59A7
:100EB00017E2D950100F146EDACF15F0145001015B
:100EC000EC25E96E15500101ED21EA6EEF50E66E5A
:100ED0004CEC3BF0E5520101EC2B000EED2309D068
:100EE0000101070EEC1901E1ED5103E10201320E9F
:100EF000A96FE5EF0BF0010EDBCFE6FF4CEC3BF00A
:100F0000E5520201330EA96F0101EC6BED6BE5EFC9
:100F10000BF0020EDBCFE6FF4CEC3BF0E55202019A
:100F2000340EA96F0101EC6BED6BE5EF0BF00101E5
:100F3000050EEC5D000EED5912E2240E0101EC25C8
:100F4000E96E020E0101ED21EA6EEF50E66E4CEC07
:100F50003BF0E5520101EC2B000EED2309D001011D
:100F6000050EEC1901E1ED5103E10201350EA96F07
:100F7000E5EF0BF0030EDBCFE6FF4CEC3BF0E55268
:100F80000201030EA96F0101EC6BED6BE5EF0BF0B5
:100F9000DEC114F0156A14BE1568180EDB50141863
:100FA00003E1190EDB50151804E102013F0EA96F91
:100FB00003D00201370EA96FE5EF0BF0010EDBCF76
:100FC000E6FF4CEC3BF0E5520201380EA96F01013F
:100FD000EC6BED6BFAD301010B0EEC5D000EED59DD
:100FE00012E20F0E0101EC25E96E020E0101ED2166
:100FF000EA6EEF50E66E4CEC3BF0E5520101EC2B53
:10100000000EED2309D001010B0EEC1901E1ED51A9
:1010100003E10201390EA96FD8D3030EDBCFE6FF3F
:101020004CEC3BF0E55202013A0EA96F0101EC6B6A
:10103000ED6BCBD30101DE51010A25E0010A01E08D
:1010400044D00101030EEC5D000EED5912E2510E89
:101050000101EC25E96E020E0101ED21EA6EEF506F
:10106000E66E4CEC3BF0E5520101EC2B000EED235B
:1010700009D00101030EEC1901E1ED5103E1020178
:101080003B0EA96F25D00101030EEC5D000EED595A
:1010900012E2550E0101EC25E96E020E0101ED216F
:1010A000EA6EEF50E66E4CEC3BF0E5520101EC2BA2
:1010B000000EED2309D00101030EEC1901E1ED5101
:1010C00003E102013B0EA96F03D002013B0EA96FA1
:1010D0007CD3010EDBCFE6FF4CEC3BF0E552020186
:1010E0003C0EA96F0101EC6BED6B6FD3020EDBCFF1
:1010F000E6FF4CEC3BF0E55202013D0EA96F010109
:10110000EC6BED6B62D301010B0EEC5D000EED5943
:1011100012E20F0E0101EC25E96E020E0101ED2134
:10112000EA6EEF50E66E4CEC3BF0E5520101EC2B21
:10113000000EED2309D001010B0EEC1901E1ED5178
:1011400003E102013E0EA96F40D3030EDBCFE6FFA1
:101150004CEC3BF0E55202013F0EA96F0101EC6B34
:10116000ED6B33D3E1C114F0156A14BE1568180E87
:10117000DB50141803E1190EDB50151804E10201CD
:10118000480EA96F03D00201400EA96F1ED3010EB5
:10119000DBCFE6FF4CEC3BF0E5520201410EA96FBC
:1011A0000101EC6BED6B11D30101080EEC5D000E3B
:1011B000ED5912E21B0E0101EC25E96E020E010150
:1011C000ED21EA6EEF50E66E4CEC3BF0E55201018A
:1011D000EC2B000EED2309D00101080EEC1901E102
:1011E000ED5103E10201420EA96FEFD2030EDBCFF6
:1011F000E6FF4CEC3BF0E5520201430EA96F010102
:10120000EC6BED6BE2D20101E151010A0FE0010A42
:1012100001E018D059C2E6FF4CEC3BF0E552020168
:10122000440EA96F0101EC6BED6B0FD05BC2E6FFC2
:101230004CEC3BF0E5520201440EA96F0101EC6B4E
:10124000ED6B03D00201440EA96F010EDBCFE6FF68
:101250004CEC3BF0E5520201450EA96F0101EC6B2D
:10126000ED6BB3D2020EDBCFE6FF4CEC3BF0E55268
:101270000201460EA96F0101EC6BED6BA6D20101D4
:10128000080EEC5D000EED5912E21B0E0101EC257B
:10129000E96E020E0101ED21EA6EEF50E66E4CECB4
:1012A0003BF0E5520101EC2B000EED2309D00101CA
:1012B000080EEC1901E1ED5103E10201470EA96F9F
:1012C00084D2030EDBCFE6FF4CEC3BF0E55202018B
:1012D000480EA96F0101EC6BED6B77D2E4C114F0FD
:1012E000156A14BE1568180EDB50141803E1190EA8
:1012F000DB50151804E10201510EA96F03D0020161
:10130000490EA96F62D2010EDBCFE6FF4CEC3BF039
:10131000E55202014A0EA96F0101EC6BED6B55D24B
:101320000101090EEC5D000EED5912E2300E0101D3
:10133000EC25E96E020E0101ED21EA6EEF50E66E3A
:101340004CEC3BF0E5520101EC2B000EED2309D0F3
:101350000101090EEC1901E1ED5103E102014B0E0F
:10136000A96F33D2030EDBCFE6FF4CEC3BF0E55226
:1013700002014C0EA96F0101EC6BED6B26D201014D
:10138000E451030A49E0070A25E0040A01E066D0B7
:101390000101040EEC5D000EED5912E25D0E01013B
:1013A000EC25E96E020E0101ED21EA6EEF50E66ECA
:1013B0004CEC3BF0E5520101EC2B000EED2309D083
:1013C0000101040EEC1901E1ED5103E102014D0EA2
:1013D000A96F47D00101060EEC5D000EED5912E237
:1013E0006C0E0101EC25E96E020E0101ED21EA6EA1
:1013F000EF50E66E4CEC3BF0E5520101EC2B000E99
:10140000ED2309D00101060EEC1901E1ED5103E1D4
:1014100002014D0EA96F25D00101040EEC5D000EF6
:10142000ED5912E2730E0101EC25E96E020E010185
:10143000ED21EA6EEF50E66E4CEC3BF0E552010117
:10144000EC2B000EED2309D00101040EEC1901E193
:10145000ED5103E102014D0EA96F03D002014D0EC3
:10146000A96FB3D1010EDBCFE6FF4CEC3BF0E552A8
:1014700002014E0EA96F0101EC6BED6BA6D1020EBD
:10148000DBCFE6FF4CEC3BF0E55202014F0EA96FBB
:101490000101EC6BED6B99D10101090EEC5D000EC1
:1014A000ED5912E2300E0101EC25E96E020E010148
:1014B000ED21EA6EEF50E66E4CEC3BF0E552010197
:1014C000EC2B000EED2309D00101090EEC1901E10E
:1014D000ED5103E10201500EA96F77D1030EDBCF6E
:1014E000E6FF4CEC3BF0E5520201510EA96F010101
:1014F000EC6BED6B6AD1E2C114F0E3C115F0180E8C
:10150000DB50141803E1190EDB50151804E1020139
:101510005A0EA96F03D00201520EA96F56D1010EC7
:10152000DBCFE6FF4CEC3BF0E5520201530EA96F16
:101530000101EC6BED6B49D10101050EEC5D000E74
:10154000ED5912E23A0E0101EC25E96E020E01019D
:10155000ED21EA6EEF50E66E4CEC3BF0E5520101F6
:10156000EC2B000EED2309D00101050EEC1901E171
:10157000ED5103E10201540EA96F27D1030EDBCF19
:10158000E6FF4CEC3BF0E5520201550EA96F01015C
:10159000EC6BED6B1AD10201560EA96F010EDBCF79
:1015A000E6FF4CEC3BF0E5520201570EA96F01013A
:1015B000EC6BED6B0AD1020EDBCFE6FF4CEC3BF09F
:1015C000E5520201580EA96F0101EC6BED6BFDD0E5
:1015D0000101050EEC5D000EED5912E23A0E01011B
:1015E000EC25E96E020E0101ED21EA6EEF50E66E88
:1015F0004CEC3BF0E5520101EC2B000EED2309D041
:101600000101050EEC1901E1ED5103E10201590E52
:10161000A96FDBD0030EDBCFE6FF4CEC3BF0E552CD
:1016200002015A0EA96F0101EC6BED6BCED0E6C141
:1016300014F0156A14BE1568180EDB50141803E177
:10164000190EDB50151804E10201030EA96F03D037
:1016500002015B0EA96FB9D0010EDBCFE6FF4CECA7
:101660003BF0E55202015C0EA96F0101EC6BED6BE2
:10167000ACD001010E0EEC5D000EED5912E2400EF1
:101680000101EC25E96E020E0101ED21EA6EEF5039
:10169000E66E4CEC3BF0E5520101EC2B000EED2325
:1016A00009D001010E0EEC1901E1ED5103E1020137
:1016B0005D0EA96F8AD0030EDBCFE6FF4CEC3BF04A
:1016C000E55202015E0EA96F0101EC6BED6B7DD05E
:1016D0000101E651010A0FE0010A01E018D059C2E8
:1016E000E6FF4CEC3BF0E55202015F0EA96F0101F1
:1016F000EC6BED6B0FD05BC2E6FF4CEC3BF0E552C0
:1017000002015F0EA96F0101EC6BED6B03D00201CA
:101710005F0EA96F010EDBCFE6FF4CEC3BF0E5520C
:101720000201600EA96F0101EC6BED6B4ED0020E51
:10173000DBCFE6FF4CEC3BF0E5520201610EA96FF6
:101740000101EC6BED6B41D001010E0EEC5D000E62
:10175000ED5912E2400E0101EC25E96E020E010185
:10176000ED21EA6EEF50E66E4CEC3BF0E5520101E4
:10177000EC2B000EED2309D001010E0EEC1901E156
:10178000ED5103E10201620EA96F1FD0030EDBCF02
:10179000E6FF4CEC3BF0E5520201030EA96F01019C
:1017A000EC6BED6B12D04FC2E6FF4CEC3BF0E55218
:1017B000DFC1E6FFE0C1E6FF2EEC16F0E552E55290
:1017C0000201010EA96FDF6A00D0DF5000D0146E55
:1017D0001A0EE15C02E2E16AE552E16E1450E55254
:0617E000E7CFD9FF120063
:0A17E600D9CFE6FFE1CFD9FF020ED4
:1017F000E126DE6ADD6ADECF14F0DDCF15F00001F0
:101800001550CA19E8AE02D0CA3504D0C951145CCB
:10181000CA5115581AE2DECFE9FFDDCFEAFF0E0EFE
:10182000EA02F3CFEAFF0E0EE902F3CFE9FFF4502C
:10183000EA26600EE926000EEA22EF5001E105D00B
:10184000DF2A010E01E3DB2AD6D7DECF14F0DDCF8D
:1018500015F014C0F3FF15C0F4FF00D0020EE15CD8
:1018600002E2E16AE552E16EE552E7CFD9FF1200EC
:101870000001BA6BBB6B0001BB510001CA19E8AE95
:1018800002D0CA3507D0C9510001BA5D0001CA5162
:101890000001BB5901E321D1BAC0E9FFBBC0EAFF97
:1018A0000E0EEA02F3CFEAFF0E0EE902F3CFE9FFD4
:1018B000F450EA26600EE926000EEA22EF6ABAC06A
:1018C000E9FFBBC0EAFF0E0EEA02F3CFEAFF0E0EFD
:1018D000E902F3CFE9FFF450EA26600EE926000E94
:1018E000EA22EE52010EEF6EBAC0E9FFBBC0EAFF7A
:1018F0000E0EEA02F3CFEAFF0E0EE902F3CFE9FF84
:10190000F450EA26600EE926000EEA22020EE926CD
:10191000000EEA22BCC0EFFFBAC0E9FFBBC0EAFF7D
:101920000E0EEA02F3CFEAFF0E0EE902F3CFE9FF53
:10193000F450EA26600EE926000EEA22030EE9269C
:10194000000EEA22BCC0EFFFBAC0E9FFBBC0EAFF4D
:101950000E0EEA02F3CFEAFF0E0EE902F3CFE9FF23
:10196000F450EA26600EE926000EEA22040EE9266B
:10197000000EEA22BCC0EFFFBAC0E9FFBBC0EAFF1D
:101980000E0EEA02F3CFEAFF0E0EE902F3CFE9FFF3
:10199000F450EA26600EE926000EEA22070EE92638
:1019A000000EEA22BCC0EFFFBAC0E9FFBBC0EAFFED
:1019B0000E0EEA02F3CFEAFF0E0EE902F3CFE9FFC3
:1019C000F450EA26600EE926000EEA220A0EE92605
:1019D000000EEA22BCC0EFFFBAC0E9FFBBC0EAFFBD
:1019E0000E0EEA02F3CFEAFF0E0EE902F3CFE9FF93
:1019F000F450EA26600EE926000EEA22080EE926D7
:101A0000000EEA22BCC0EEFFBDC0EDFFBAC0E9FF88
:101A1000BBC0EAFF0E0EEA02F3CFEAFF0E0EE902A8
:101A2000F3CFE9FFF450EA26600EE926000EEA2221
:101A30000B0EE926000EEA22BCC0EFFFBAC0E9FF98
:101A4000BBC0EAFF0E0EEA02F3CFEAFF0E0EE90278
:101A5000F3CFE9FFF450EA26600EE926000EEA22F1
:101A6000050EE926000EEA22BCC0EEFFBDC0EDFF68
:101A7000BAC0E9FFBBC0EAFF0E0EEA02F3CFEAFFED
:101A80000E0EE902F3CFE9FFF450EA26600EE926D4
:101A9000000EEA220C0EE926000EEA22BCC0EFFF7F
:101AA000BAC0E9FFBBC0EAFF0E0EEA02F3CFEAFFBD
:101AB0000E0EE902F3CFE9FFF450EA26600EE926A4
:101AC000000EEA220D0EE926000EEA22BCC0EFFF4E
:101AD0000001BA2B000EBB23CED61200D9CFE6FFF1
:101AE000E1CFD9FF020EE1267EDEF3CFDEFFF4CF99
:101AF000DDFFDECFE9FFDDCFEAFF0E0EEA02F3CF16
:101B0000EAFF0E0EE902F3CFE9FFF450EA26600E79
:101B1000E926000EEA22010EEF6EDECFE9FFDDCFEF
:101B2000EAFF0E0EEA02F3CFEAFF0E0EE902F3CF50
:101B3000E9FFF450EA26600EE926000EEA22EE5292
:101B4000010EEF6EDECFE9FFDDCFEAFF0E0EEA02F7
:101B5000F3CFEAFF0E0EE902F3CFE9FFF450EA26D5
:101B6000600EE926000EEA22020EE926000EEA22A5
:101B7000FE0EDBCFEFFFDECFE9FFDDCFEAFF0E0E7B
:101B8000EA02F3CFEAFF0E0EE902F3CFE9FFF450C9
:101B9000EA26600EE926000EEA22030EE926000E70
:101BA000EA22FD0EDBCFEFFFDECFE9FFDDCFEAFF5C
:101BB0000E0EEA02F3CFEAFF0E0EE902F3CFE9FFC1
:101BC000F450EA26600EE926000EEA22040EE92609
:101BD000000EEA22FC0EDBCFEFFFDECFE9FFDDCF08
:101BE000EAFF0E0EEA02F3CFEAFF0E0EE902F3CF90
:101BF000E9FFF450EA26600EE926000EEA22070EFD
:101C0000E926000EEA22F90EDBCFEFFFDECFE9FF77
:101C1000DDCFEAFF0E0EEA02F3CFEAFF0E0EE90275
:101C2000F3CFE9FFF450EA26600EE926000EEA221F
:101C30000A0EE926000EEA22F80EDBCFEFFFDECF18
:101C4000E9FFDDCFEAFF0E0EEA02F3CFEAFF0E0E48
:101C5000E902F3CFE9FFF450EA26600EE926000E10
:101C6000EA22080EE926000EEA22F60EDBCFEEFF8E
:101C7000F70EDBCFEDFFDECFE9FFDDCFEAFF0E0E83
:101C8000EA02F3CFEAFF0E0EE902F3CFE9FFF450C8
:101C9000EA26600EE926000EEA220B0EE926000E67
:101CA000EA22040EEF6EDECFE9FFDDCFEAFF0E0E73
:101CB000EA02F3CFEAFF0E0EE902F3CFE9FFF45098
:101CC000EA26600EE926000EEA22050EE926000E3D
:101CD000EA22FA0EDBCFEEFFFB0EDBCFEDFFDECF0D
:101CE000E9FFDDCFEAFF0E0EEA02F3CFEAFF0E0EA8
:101CF000E902F3CFE9FFF450EA26600EE926000E70
:101D0000EA220C0EE926000EEA22F50EDBCFEFFFE9
:101D1000D950FA0FE96EFF0EDA20EA6EEE50ED10A0
:101D200020E1EDEC16F0F3CF14F0F4CF15F0DECF98
:101D3000E9FFDDCFEAFF0E0EEA02F3CFEAFF0E0E57
:101D4000E902F3CFE9FFF450EA26600EE926000E1F
:101D5000EA22050EE926000EEA2214C0EEFF15C0A5
:101D6000EDFFDECFE9FFDDCFEAFF0E0EEA02F3CF93
:101D7000EAFF0E0EE902F3CFE9FFF450EA26600E07
:101D8000E926000EEA22020EE926000EEA22EFCF33
:101D900014F014C0E6FF06EC00F0E552E7CF14F0B3
:101DA000145C14E1DECFE9FFDDCFEAFF0E0EEA029C
:101DB000F3CFEAFF0E0EE902F3CFE9FFF450EA2673
:101DC000600EE926000EEA22EE52EF6ADECFE9FF4E
:101DD000DDCFEAFF0E0EEA02F3CFEAFF0E0EE902B4
:101DE000F3CFE9FFF450EA26600EE926000EEA225E
:101DF000020EE926000EEA22EFCF14F014C0E6FF2F
:101E000006EC00F0E552E7CF14F0145C39E0DECFC9
:101E1000E9FFDDCFEAFF0E0EEA02F3CFEAFF0E0E76
:101E2000E902F3CFE9FFF450EA26600EE926000E3E
:101E3000EA22030EE926000EEA22EFCF15F015C0C4
:101E4000E6FF06EC00F0E552E7CF15F0155C18E070
:101E5000DECFE9FFDDCFEAFF0E0EEA02F3CFEAFFA5
:101E60000E0EE902F3CFE9FFF450EA26600EE926F0
:101E7000000EEA220B0EE926000EEA22BCC0EFFF9C
:101E8000020EE15C02E2E16AE552E16EE552E7CF63
:101E9000D9FF1200D9CFE6FFE1CFD9FF020EE1262C
:101EA000A2DCF3CFDEFFF4CFDDFFDECFE9FFDDCF35
:101EB000EAFF0E0EEA02F3CFEAFF0E0EE902F3CFBD
:101EC000E9FFF450EA26600EE926000EEA22010E30
:101ED000EF6EDECFE9FFDDCFEAFF0E0EEA02F3CFB1
:101EE000EAFF0E0EE902F3CFE9FFF450EA26600E96
:101EF000E926000EEA22EE52010EEF6EDECFE9FF78
:101F0000DDCFEAFF0E0EEA02F3CFEAFF0E0EE90282
:101F1000F3CFE9FFF450EA26600EE926000EEA222C
:101F2000020EE926000EEA22FE0EDBCFEFFFDECF27
:101F3000E9FFDDCFEAFF0E0EEA02F3CFEAFF0E0E55
:101F4000E902F3CFE9FFF450EA26600EE926000E1D
:101F5000EA22030EE926000EEA22FD0EDBCFEFFF98
:101F6000DECFE9FFDDCFEAFF0E0EEA02F3CFEAFF94
:101F70000E0EE902F3CFE9FFF450EA26600EE926DF
:101F8000000EEA220B0EE926000EEA22FA0EDBCF43
:101F9000EFFFDECFE9FFDDCFEAFF0E0EEA02F3CF5F
:101FA000EAFF0E0EE902F3CFE9FFF450EA26600ED5
:101FB000E926000EEA22050EE926000EEA22FB0EB3
:101FC000DBCFEEFFFC0EDBCFEDFF020EE15C02E2A9
:101FD000E16AE552E16EE552E7CFD9FF1200D9CFB1
:101FE000E6FFE1CFD9FF020EE126F3EC0BF0F3CFD1
:101FF000DEFFF4CFDDFF06EC00F0F36EFE0EDB50EB
:10200000F35C01E1D9D0DECFE9FFDDCFEAFF0E0EB0
:10201000EA02F3CFEAFF0E0EE902F3CFE9FFF45034
:10202000EA26600EE926000EEA22010EEF6EDECFF0
:10203000E9FFDDCFEAFF0E0EEA02F3CFEAFF0E0E54
:10204000E902F3CFE9FFF450EA26600EE926000E1C
:10205000EA22EE52010EEF6EDECFE9FFDDCFEAFF9E
:102060000E0EEA02F3CFEAFF0E0EE902F3CFE9FF0C
:10207000F450EA26600EE926000EEA22020EE92656
:10208000000EEA22FE0EDBCFEFFFDECFE9FFDDCF51
:10209000EAFF0E0EEA02F3CFEAFF0E0EE902F3CFDB
:1020A000E9FFF450EA26600EE926000EEA22030E4C
:1020B000E926000EEA22FD0EDBCFEFFFDECFE9FFBF
:1020C000DDCFEAFF0E0EEA02F3CFEAFF0E0EE902C1
:1020D000F3CFE9FFF450EA26600EE926000EEA226B
:1020E000040EE926000EEA22FA0EDBCFEFFFDECF68
:1020F000E9FFDDCFEAFF0E0EEA02F3CFEAFF0E0E94
:10210000E902F3CFE9FFF450EA26600EE926000E5B
:10211000EA22070EE926000EEA22FB0EDBCFEFFFD4
:10212000DECFE9FFDDCFEAFF0E0EEA02F3CFEAFFD2
:102130000E0EE902F3CFE9FFF450EA26600EE9261D
:10214000000EEA220A0EE926000EEA22F90EDBCF83
:10215000EFFFDECFE9FFDDCFEAFF0E0EEA02F3CF9D
:10216000EAFF0E0EE902F3CFE9FFF450EA26600E13
:10217000E926000EEA220C0EE926000EEA22F80EED
:10218000DBCFEFFFDECFE9FFDDCFEAFF0E0EEA0285
:10219000F3CFEAFF0E0EE902F3CFE9FFF450EA268F
:1021A000600EE926000EEA220D0EE926000EEA2254
:1021B000FC0EDBCFEFFF6BD0FC0EDB50020A53E0CE
:1021C000030A04E0010A01E062D061D0FB0EDBCF1C
:1021D00014F0156A14BE15680001BC51141802E110
:1021E000BD5115183FE0FA0EDBCF16F0176A16BE88
:1021F00017680001BC51161802E1BD51171832E0F2
:10220000F80EDBCF18F0196A18BE19680001BC512E
:10221000181802E1BD51191825E0FB0EDBCFE6FFCF
:10222000FA0EDBCFE6FFF80EDBCFE6FFC7EC27F0B8
:10223000E552E552E552F90EDBCF14F0156A14BEF3
:1022400015680001BC51141802E1BD5115180AE0CF
:10225000F90EDBCFE6FFF80EDBCFE6FF5DEC28F0F2
:10226000E552E55214D0F80EDBCF14F0156A14BE17
:1022700015680001BC51141802E1BD51151806E0A3
:10228000F80EDBCFE6FFD9EC28F0E55200D0020EC5
:10229000E15C02E2E16AE552E16EE552E7CFD9FF87
:1022A0001200D9CFE6FFE1CFD9FF020EE126DE6AA8
:1022B000DD6ADECF14F0DDCF15F000011550CA192C
:1022C000E8AE02D0CA3504D0C951145CCA511558C1
:1022D00001E345D1DECFE9FFDDCFEAFF0E0EEA02D2
:1022E000F3CFEAFF0E0EE902F3CFE9FFF450EA263E
:1022F000600EE926000EEA22050EE926000EEA220B
:10230000EECF14F0EFCF15F0FD0EDB50141803E103
:10231000FE0EDB50151801E01DD1DECFE9FFDDCF49
:10232000EAFF0E0EEA02F3CFEAFF0E0EE902F3CF48
:10233000E9FFF450EA26600EE926000EEA22EF6A71
:10234000DECFE9FFDDCFEAFF0E0EEA02F3CFEAFFB0
:102350000E0EE902F3CFE9FFF450EA26600EE926FB
:10236000000EEA22EE52010EEF6EDECFE9FFDDCF66
:10237000EAFF0E0EEA02F3CFEAFF0E0EE902F3CFF8
:10238000E9FFF450EA26600EE926000EEA22020E6A
:10239000E926000EEA22BCC0EFFFDECFE9FFDDCF69
:1023A000EAFF0E0EEA02F3CFEAFF0E0EE902F3CFC8
:1023B000E9FFF450EA26600EE926000EEA22030E39
:1023C000E926000EEA22BCC0EFFFDECFE9FFDDCF39
:1023D000EAFF0E0EEA02F3CFEAFF0E0EE902F3CF98
:1023E000E9FFF450EA26600EE926000EEA22040E08
:1023F000E926000EEA22BCC0EFFFDECFE9FFDDCF09
:10240000EAFF0E0EEA02F3CFEAFF0E0EE902F3CF67
:10241000E9FFF450EA26600EE926000EEA22070ED4
:10242000E926000EEA22BCC0EFFFDECFE9FFDDCFD8
:10243000EAFF0E0EEA02F3CFEAFF0E0EE902F3CF37
:10244000E9FFF450EA26600EE926000EEA220A0EA1
:10245000E926000EEA22BCC0EFFFDECFE9FFDDCFA8
:10246000EAFF0E0EEA02F3CFEAFF0E0EE902F3CF07
:10247000E9FFF450EA26600EE926000EEA22080E73
:10248000E926000EEA22BCC0EEFFBDC0EDFFDECFA4
:10249000E9FFDDCFEAFF0E0EEA02F3CFEAFF0E0EF0
:1024A000E902F3CFE9FFF450EA26600EE926000EB8
:1024B000EA220B0EE926000EEA22BCC0EFFFDECFB7
:1024C000E9FFDDCFEAFF0E0EEA02F3CFEAFF0E0EC0
:1024D000E902F3CFE9FFF450EA26600EE926000E88
:1024E000EA22050EE926000EEA22BCC0EEFFBDC0BE
:1024F000EDFFDECFE9FFDDCFEAFF0E0EEA02F3CFFC
:10250000EAFF0E0EE902F3CFE9FFF450EA26600E6F
:10251000E926000EEA220C0EE926000EEA22BCC0D3
:10252000EFFFDECFE9FFDDCFEAFF0E0EEA02F3CFC9
:10253000EAFF0E0EE902F3CFE9FFF450EA26600E3F
:10254000E926000EEA220D0EE926000EEA22BCC0A2
:10255000EFFF05D0DF2A010E01E3DB2AAAD6020E27
:10256000E15C02E2E16AE552E16EE552E7CFD9FFB4
:102570001200D9CFE6FFE1CFD9FF040EE126DE6AD3
:10258000DD6A020EDB6A030EDB6A020EDBCF14F09B
:10259000030EDBCF15F000011550CA19E8AE02D0CA
:1025A000CA3504D0C951145CCA51155824E2020E30
:1025B000DBCFE9FF030EDBCFEAFF0E0EEA02F3CF1B
:1025C000EAFF0E0EE902F3CFE9FFF450EA26600EAF
:1025D000E926000EEA220B0EE926000EEA22EF5051
:1025E00004E1010EDE6EDD6A06D0020EDB2A030E68
:1025F00001E3DB2ACAD7D9CFE9FFDACFEAFFEE50F1
:10260000ED1003E1010E03D002D0000E00D0146ED5
:10261000040EE15C02E2E16AE552E16E1450E5521B
:10262000E7CFD9FF1200D9CFE6FFE1CFD9FF020EE5
:10263000E126DE6ADD6ADECF14F0DDCF15F00001A1
:102640001550CA19E8AE02D0CA3504D0C951145C7D
:10265000CA5115583FE2DECFE9FFDDCFEAFF0E0E8B
:10266000EA02F3CFEAFF0E0EE902F3CFE9FFF450DE
:10267000EA26600EE926000EEA22050EE926000E83
:10268000EA22EECF14F0EFCF15F0FD0EDB50141858
:1026900003E1FE0EDB50151818E1DECFE9FFDDCFB8
:1026A000EAFF0E0EEA02F3CFEAFF0E0EE902F3CFC5
:1026B000E9FFF450EA26600EE926000EEA220B0E2E
:1026C000E926000EEA22EF6A05D0DF2A010E01E3B7
:1026D000DB2AB1D7020EE15C02E2E16AE552E16E6B
:1026E000E552E7CFD9FF1200D9CFE6FFE1CFD9FFFE
:1026F000020EE126DE6ADD6ADECF14F0DDCF15F0D2
:1027000000011550CA19E8AE02D0CA3504D0C9512B
:10271000145CCA51155801E3E7D0DECFE9FFDDCFE5
:10272000EAFF0E0EEA02F3CFEAFF0E0EE902F3CF44
:10273000E9FFF450EA26600EE926000EEA22020EB6
:10274000E926000EEA22EFCF14F014C0E6FF06ECF3
:1027500000F0E552E7CF14F0145C01E0C0D0DECF0A
:10276000E9FFDDCFEAFF0E0EEA02F3CFEAFF0E0E1D
:10277000E902F3CFE9FFF450EA26600EE926000EE5
:10278000EA220B0EE926000EEA22EF50040801E0CF
:10279000A6D0DECFE9FFDDCFEAFF0E0EEA02F3CFCF
:1027A000EAFF0E0EE902F3CFE9FFF450EA26600ECD
:1027B000E926000EEA22EE52EF5001E090D0DECF83
:1027C000E9FFDDCFEAFF0E0EEA02F3CFEAFF0E0EBD
:1027D000E902F3CFE9FFF450EA26600EE926000E85
:1027E000EA22070EE926000EEA22EF50E66E74ECAC
:1027F0002AF0E55200092EE1DECFE9FFDDCFEAFF46
:102800000E0EEA02F3CFEAFF0E0EE902F3CFE9FF64
:10281000F450EA26600EE926000EEA220B0EE926A5
:10282000000EEA22EF6ADECFE9FFDDCFEAFF0E0EEF
:10283000EA02F3CFEAFF0E0EE902F3CFE9FFF4500C
:10284000EA26600EE926000EEA22EE52010EEF6E35
:102850004BD045D0DECFE9FFDDCFEAFF0E0EEA0216
:10286000F3CFEAFF0E0EE902F3CFE9FFF450EA26B8
:10287000600EE926000EEA220A0EE926000EEA2280
:10288000EF5003082CE1DECFE9FFDDCFEAFF0E0EAB
:10289000EA02F3CFEAFF0E0EE902F3CFE9FFF450AC
:1028A000EA26600EE926000EEA220B0EE926000E4B
:1028B000EA22EF6ADECFE9FFDDCFEAFF0E0EEA0281
:1028C000F3CFEAFF0E0EE902F3CFE9FFF450EA2658
:1028D000600EE926000EEA22EE52010EEF6EDF2AAC
:1028E000010E01E3DB2A08D7020EE15C02E2E16A95
:1028F000E552E16EE552E7CFD9FF1200D9CFE6FFEE
:10290000E1CFD9FF140EE126100EDB6A110EDB6A4F
:10291000120EDB6A130EDB6A120EDBCF14F0130EFD
:10292000DBCF15F000011550CA19E8AE02D0CA3548
:1029300004D0C951145CCA51155834E2120EDBCFD1
:10294000E9FF130EDBCFEAFF0E0EEA02F3CFEAFF38
:102950000E0EE902F3CFE9FFF450EA26600EE926F5
:10296000000EEA220B0EE926000EEA22EF5014E1D7
:10297000120EDBCF06F0130EDBCF07F00E0E06C0F3
:10298000DBFF0F0E07C0DBFF010EF36E100EF3CF5F
:10299000DBFF110EDB6A06D0120EDB2A130E01E3F9
:1029A000DB2ABAD70E0EDBCFE9FF0F0EDBCFEAFF33
:1029B0000E0EEA02F3CFEAFF0E0EE902F3CFE9FFB3
:1029C000F450EA26600EE926000EEA22EECF14F05B
:1029D000EECF15F0EECF16F0EECF17F0EECF18F0E9
:1029E000EECF19F0EECF1AF0EECF1BF0EECF1CF0C9
:1029F000EECF1DF0EECF1EF0EECF1FF0EECF20F0A9
:102A0000EFCF21F0D9CFE9FFDACFEAFFED50ED505B
:102A100021C0EDFF20C0EDFF1FC0EDFF1EC0EDFF88
:102A20001DC0EDFF1CC0EDFF1BC0EDFF1AC0EDFF88
:102A300019C0EDFF18C0EDFF17C0EDFF16C0EDFF88
:102A400015C0EDFF14C0EFFF00D0140EE15C02E2F0
:102A5000E16AE552E16EE552E7CFD9FF1200D9CF26
:102A6000E6FFE1CFD9FF030EE126010EF36E020E61
:102A7000F3CFDBFFDE6ADD6ADECF14F0DDCF15F0C9
:102A800000011550CA19E8AE02D0CA3504D0C951A8
:102A9000145CCA51155831E2DECFE9FFDDCFEAFF01
:102AA0000E0EEA02F3CFEAFF0E0EE902F3CFE9FFC2
:102AB000F450EA26600EE926000EEA22EE52EF04F8
:102AC00017E1DECFE9FFDDCFEAFF0E0EEA02F3CF1A
:102AD000EAFF0E0EE902F3CFE9FFF450EA26600E9A
:102AE000E926000EEA22EF0403E1020EDB6A05D0BC
:102AF000DF2A010E01E3DB2ABFD7020EDB5000D034
:102B0000146E030EE15C02E2E16AE552E16E1450DC
:102B1000E552E7CFD9FF1200D9CFE6FFE1CFD9FFC9
:102B2000020EE126DE6ADD6ADECF14F0DDCF15F09D
:102B300000011550CA19E8AE02D0CA3504D0C951F7
:102B4000145CCA5115582FE2DECFE9FFDDCFEAFF52
:102B50000E0EEA02F3CFEAFF0E0EE902F3CFE9FF11
:102B6000F450EA26600EE926000EEA22EE52EF0447
:102B700015E1DECFE9FFDDCFEAFF0E0EEA02F3CF6B
:102B8000EAFF0E0EE902F3CFE9FFF450EA26600EE9
:102B9000E926000EEA22EF0401E105D0DF2A010E4A
:102BA00001E3DB2AC1D7DECFE9FFDDCFEAFF0E0E5E
:102BB000EA02F3CFEAFF0E0EE902F3CFE9FFF45089
:102BC000EA26600EE926000EEA22EECF14F0EECFE0
:102BD00015F0EECF16F0EECF17F0EECF18F0EECFE7
:102BE00019F0EECF1AF0EECF1BF0EECF1CF0EECFC7
:102BF0001DF0EECF1EF0EECF1FF0EECF20F0EFCFA6
:102C000021F0D9CFE9FFDACFEAFFED50ED5021C036
:102C1000EDFF20C0EDFF1FC0EDFF1EC0EDFF1DC08A
:102C2000EDFF1CC0EDFF1BC0EDFF1AC0EDFF19C08A
:102C3000EDFF18C0EDFF17C0EDFF16C0EDFF15C08A
:102C4000EDFF14C0EFFF00D0020EE15C02E2E16A8A
:102C5000E552E16EE552E7CFD9FF1200D9CFE6FF8A
:102C6000E1CFD9FF020EE126DE6ADD6ADECF14F085
:102C7000DDCF15F000011550CA19E8AE02D0CA35F3
:102C800004D0C951145CCA51155801E39CD0DECF61
:102C9000E9FFDDCFEAFF0E0EEA02F3CFEAFF0E0EE8
:102CA000E902F3CFE9FFF450EA26600EE926000EB0
:102CB000EA22050EE926000EEA22EECF14F0EFCF4D
:102CC00015F0FD0EDB50141803E1FE0EDB50151855
:102CD00075E1DECFE9FFDDCFEAFF0E0EEA02F3CFAA
:102CE000EAFF0E0EE902F3CFE9FFF450EA26600E88
:102CF000E926000EEA22EE52EF6ADECFE9FFDDCFD1
:102D0000EAFF0E0EEA02F3CFEAFF0E0EE902F3CF5E
:102D1000E9FFF450EA26600EE926000EEA22020ED0
:102D2000E926000EEA22EFCF14F014C0E6FF06EC0D
:102D300000F0E552E7CF14F0145C3FE0DECFE9FF8E
:102D4000DDCFEAFF0E0EEA02F3CFEAFF0E0EE90234
:102D5000F3CFE9FFF450EA26600EE926000EEA22DE
:102D6000030EE926000EEA22EFCF15F015C0E6FFAC
:102D700006EC00F0E552E7CF15F0155C1EE0DECF63
:102D8000E9FFDDCFEAFF0E0EEA02F3CFEAFF0E0EF7
:102D9000E902F3CFE9FFF450EA26600EE926000EBF
:102DA000EA22050EE926000EEA22EECFE6FFEFCF7B
:102DB000E6FF51EC11F0E552E55205D0DF2A010E95
:102DC00001E3DB2A53D7020EE15C02E2E16AE5523D
:102DD000E16EE552E7CFD9FF1200D9CFE6FFE1CF90
:102DE000D9FF030EE12606EC00F0E76E020EE7CFF6
:102DF000DBFF020EDB50010A08E0030A01E00AD003
:102E0000E80EDE6E030EDD6E09D0D00EDE6E070E0C
:102E1000DD6E04D0880EDE6E130EDD6E010E000135
:102E2000CB250001CB6F000E0001CC210001CC6F3F
:102E3000DE500001CB250001146EDD500001CC21D5
:102E40000001156E14C0DEFF15C0DDFFDECF14F0EB
:102E5000DDCF15F014C0F3FF15C0F4FF00D0030E52
:102E6000E15C02E2E16AE552E16EE552E7CFD9FFAB
:022E700012004E
:0E2E7200D9CFE6FFE1CFD9FF0D0EE126010E0C
:102E8000DF6EC80EF36E020EF3CFDBFF030EDB6ABC
:102E9000F60EF36E040EF3CFDBFF050EDB68D950A0
:102EA000080FE96EDACFEAFF3C0EEE6E3E0EEE6ED4
:102EB000EE6A0B0EDB6A0C0EDB6A0201A2510D0AF0
:102EC00002E110EF1CF0020A02E10FEF1CF0010A10
:102ED00002E10EEF1CF0050A02E1EAEF1BF0070A1F
:102EE00002E180EF1BF0060A01E1D3D3030A01E1FE
:102EF00041D3010A01E129D30E0A01E10ED3030AED
:102F000001E1F6D2060A01E1BBD2010A01E1BAD021
:102F1000030A5DE0010A02E014EF1CF0040EDBCFAF
:102F200000F1040EDBCF01F1040EDBCF02F1040E41
:102F3000DBCF03F1040EDBCF04F1040EDBCF05F190
:102F4000040EDBCF06F1050EDBCF07F1040EDBCF5D
:102F500008F1040EDBCF09F1040EDBCF0AF1050EF8
:102F6000DBCF0BF1040EDBCF0CF1040EDBCF0DF148
:102F7000040EDBCF0EF1050EDBCF0FF1040EDBCF1D
:102F800010F10201A36BA46B020EDBCF14F0030E51
:102F9000DBCF15F002011450A35D1550A4590FE2C8
:102FA000110E0201A325E96E010E0201A421EA6EB1
:102FB000200EEF6E0201A32B000EA423E5D7020121
:102FC000A36BA46B0201010EA26F14EF1CF09E50C4
:102FD000200B56E0AC50020B53E0C2EC3AF0E76E27
:102FE000010EE7CFDBFF010EDB5002014F5D05E074
:102FF000010EDB500201505D22E1020EDBCF14F026
:10300000030EDBCF15F01406000E155A1450020102
:10301000A31902E11550A41904E102010D0EA26FDB
:103020000DD0110E0201A325E96E010E0201A421AB
:10303000EA6E4FC2EFFF0201020EA26F20D0020E15
:10304000DBCF14F0030EDBCF15F01406000E155A7B
:1030500014500201A31902E11550A41901E10FD087
:10306000110E0201A325E96E010E0201A421EA6EF0
:10307000010EDBCFEFFF0201A32B000EA42301D032
:10308000DF6AD2D3D950080FE66E000EDA20E66E62
:10309000110EE66E010EE66ED6EC35F0E552E55205
:1030A000E552E5520B0EF3CFDBFF0C0EF4CFDBFF46
:1030B000D9500B0FE96EDACFEAFFEE50ED1001E1C7
:1030C000DBD1000EE66E020EE66E0B0EDBCFE6FFE6
:1030D0000C0EDBCFE6FF7FEC34F0E552E552E55213
:1030E000E55200091BE1D950080FE66E000EDA2008
:1030F000E66E000EE66EE66AD6EC35F0E552E55275
:10310000E552E552F3CF14F0F4CF15F014C0E6FF0A
:1031100015C0E6FF97DBE552E55298D1030EE66E47
:10312000020EE66E0B0EDBCFE6FF0C0EDBCFE6FFEA
:103130007FEC34F0E552E552E552E55200091BE11F
:10314000D950080FE66E000EDA20E66E000EE66E2D
:10315000E66AD6EC35F0E552E552E552E552F3CF9A
:1031600014F0F4CF15F014C0E6FF15C0E6FFB2DB93
:10317000E552E5526BD1080EE66E020EE66E0B0EBE
:10318000DBCFE6FF0C0EDBCFE6FF7FEC34F0E55241
:10319000E552E552E55200091BE1D950080FE66EF1
:1031A000000EDA20E66E000EE66EE66AD6EC35F02A
:1031B000E552E552E552E552F3CF14F0F4CF15F0A5
:1031C00014C0E6FF15C0E6FFCDDBE552E5523ED167
:1031D0000F0EE66E020EE66E0B0EDBCFE6FF0C0E58
:1031E000DBCFE6FF7FEC34F0E552E552E552E552E5
:1031F00000091BE1D950080FE66E000EDA20E66EDA
:10320000000EE66EE66AD6EC35F0E552E552E55280
:10321000E552F3CF14F0F4CF15F014C0E6FF15C05B
:10322000E6FFE8DBE552E55211D11B0EE66E020E19
:10323000E66E0B0EDBCFE6FF0C0EDBCFE6FF7FEC7E
:1032400034F0E552E552E552E55200091BE1D95050
:10325000080FE66E000EDA20E66E000EE66EE66AF5
:10326000D6EC35F0E552E552E552E552F3CF14F0D5
:10327000F4CF15F014C0E6FF15C0E6FFEDDBE55214
:10328000E552E4D0240EE66E020EE66E0B0EDBCFA6
:10329000E6FF0C0EDBCFE6FF7FEC34F0E552E552A3
:1032A000E552E55200091CE1D950080FE66E000E08
:1032B000DA20E66E000EE66EE66AD6EC35F0E552F0
:1032C000E552E552E552F3CF14F0F4CF15F014C0F7
:1032D000E6FF15C0E6FF90EC1DF0E552E552B6D0D2
:1032E0002A0EE66E020EE66E0B0EDBCFE6FF0C0E2C
:1032F000DBCFE6FF7FEC34F0E552E552E552E552D4
:1033000000091CE1D950080FE66E000EDA20E66EC7
:10331000000EE66EE66AD6EC35F0E552E552E5526F
:10332000E552F3CF14F0F4CF15F014C0E6FF15C04A
:10333000E6FF1FEC20F0E552E55288D0300EE66E35
:10334000020EE66E0B0EDBCFE6FF0C0EDBCFE6FFC8
:103350007FEC34F0E552E552E552E55200091CE1FC
:10336000D950080FE66E000EDA20E66E000EE66E0B
:10337000E66AD6EC35F0E552E552E552E552F3CF78
:1033800014F0F4CF15F014C0E6FF15C0E6FF3FECD3
:103390001EF0E552E5525AD03A0EE66E020EE66E87
:1033A0000B0EDBCFE6FF0C0EDBCFE6FF7FEC34F03D
:1033B000E552E552E552E55200091CE1D950080FEB
:1033C000E66E000EDA20E66E000EE66EE66AD6ECD9
:1033D00035F0E552E552E552E552F3CF14F0F4CF63
:1033E00015F014C0E6FF15C0E6FFB3EC1EF0E55281
:1033F000E5522CD0400EE66E020EE66E0B0EDBCFD1
:10340000E6FF0C0EDBCFE6FF7FEC34F0E552E55231
:10341000E552E55200091AE1D950080FE66E000E98
:10342000DA20E66E000EE66EE66AD6EC35F0E5527E
:10343000E552E552E552F3CF14F0F4CF15F014C085
:10344000E6FF15C0E6FF3ADBE552E552D950080F1A
:10345000E66E000EDA20E66E000EE66EE66AD6EC48
:1034600035F0E552E552E552E5520B0EF3CFDBFFA6
:103470000C0EF4CFDBFF1CD60201030EA26FD4D1D9
:1034800000C114F0156A14BE1568040EDB50141840
:1034900003E1050EDB5015180DE001C116F0176AA7
:1034A00016BE1768040EDB50161803E1050EDB503C
:1034B000171811E1ACA20ED0530EE66E770EE66E31
:1034C000000EE66E8FEC39F0E552E552E55202014E
:1034D0000D0EA26F0CD006EC00F00101015D04E1BD
:1034E00002010D0EA26F03D00201050EA26F9CD146
:1034F00002C114F0156A14BE1568040EDB501418CE
:1035000003E1050EDB50151804E00201060EA26F60
:1035100003D00201080EA26F87D103C1E6FF09C1E3
:10352000E6FF04C1E6FF05C1E6FF02C1E6FF01C1F7
:10353000E6FF00C1E6FFEFEC0FF0146E070EE15E50
:10354000145002010D0EA26F6FD108C114F0156A5C
:1035500014BE1568040EDB50141803E1050EDB5091
:10356000151804E002010A0EA26F03D00201090E31
:10357000A26F5AD1060EDB6A070EDB6A06C114F091
:1035800007C115F0040EDB50141803E1050EDB50E3
:10359000151807E1010EF36E060EF3CFDBFF070EE1
:1035A000DB6A04C114F0156A14BE1568040EDB5002
:1035B000141803E1050EDB50151807E1010EF36E38
:1035C000060EF3CFDBFF070EDB6A05C114F0156AA8
:1035D00014BE1568040EDB50141803E1050EDB5011
:1035E000151807E1010EF36E060EF3CFDBFF070E91
:1035F000DB6A09C114F0156A14BE1568040EDB50AD
:10360000141803E1050EDB50151807E1010EF36EE7
:10361000060EF3CFDBFF070EDB6A0AC114F00BC105
:1036200015F0040EDB50141803E1050EDB501518DD
:1036300004E1320E01010A6F0B6BD950060FE96EDF
:10364000DACFEAFF010EEE1801E1ED501EE003C1F2
:10365000E6FF0AC1E6FF0BC1E6FF09C1E6FF05C1AF
:10366000E6FF06C1E6FF07C1E6FF04C1E6FF01C1B0
:10367000E6FF00C1E6FF6EEC0DF0146E0A0EE15E8F
:10368000145002010D0EA26F03D002010D0EA26FA5
:10369000CBD006C114F007C115F0040EDB5014188E
:1036A00003E1050EDB50151801E126D006EC00F011
:1036B0000101005D16E006EC00F00101015D11E082
:1036C00008C1E6FF06C1E6FF07C1E6FF01C1E6FF4C
:1036D00000C1E6FF4AEC0FF0146E050EE15E1450D7
:1036E0000BD00101085108E106C1E6FF07C1E6FF62
:1036F00013EC13F0E552E55202010D0EA26F94D0C7
:1037000005C114F0156A14BE1568040EDB501418B8
:1037100003E1050EDB5015181EE004C116F0176A10
:1037200016BE1768040EDB50161803E1050EDB50B9
:10373000171811E003C118F0196A18BE1968040EB1
:10374000DB50181803E1050EDB50191804E00201E4
:103750000B0EA26F3ED00CC114F0156A14BE156892
:10376000040EDB50141803E1050EDB50151811E0B0
:103770000DC116F0176A16BE1768040EDB50161836
:1037800003E1050EDB50171804E002010E0EA26FD4
:1037900020D00EC114F00FC115F0040EDB50141828
:1037A00003E1050EDB50151811E010C116F0176A81
:1037B00016BE1768040EDB50161803E1050EDB5029
:1037C000171804E002010F0EA26F03D002010D0EC4
:1037D000A26F2AD005C1E6FF04C1E6FF03C1E6FFE0
:1037E000C7EC27F0E552E552E55209C114F0156A1D
:1037F00014BE1568040EDB50141803E1050EDB50EF
:10380000151808E009C1E6FF03C1E6FF5DEC28F0EA
:10381000E552E55202010D0EA26F06D005D004D08C
:103820000201A26BDF6A00D0DF5000D0146E0D0ED3
:10383000E15C02E2E16AE552E16E1450E552E7CF45
:10384000D9FF1200D9CFE6FFE1CFD9FF960EE66E81
:10385000020EE66EFD0EDBCFE6FFFE0EDBCFE6FFCF
:103860007FEC34F0E552E552E552E552000903E100
:103870000101006B2BD09A0EE66E020EE66EFD0E75
:10388000DBCFE6FFFE0EDBCFE6FF7FEC34F0E55248
:10389000E552E552E552000904E10101010E006F15
:1038A00015D09E0EE66E020EE66EFD0EDBCFE6FF35
:1038B000FE0EDBCFE6FF7FEC34F0E552E552E55239
:1038C000E552000903E10101020E006FE552E7CF66
:1038D000D9FF1200D9CFE6FFE1CFD9FF960EE66EF1
:1038E000020EE66EFD0EDBCFE6FFFE0EDBCFE6FF3F
:1038F0007FEC34F0E552E552E552E552000903E170
:103900000101016B2BD09A0EE66E020EE66EFD0EE3
:10391000DBCFE6FFFE0EDBCFE6FF7FEC34F0E552B7
:10392000E552E552E552000904E10101010E016F83
:1039300015D09E0EE66E020EE66EFD0EDBCFE6FFA4
:10394000FE0EDBCFE6FF7FEC34F0E552E552E552A8
:10395000E552000903E10101020E016FE552E7CFD4
:10396000D9FF1200D9CFE6FFE1CFD9FF870EE66E6F
:10397000020EE66EFD0EDBCFE6FFFE0EDBCFE6FFAE
:103980007FEC34F0E552E552E552E552000903E1DF
:103990000101026B2BD08B0EE66E020EE66EFD0E61
:1039A000DBCFE6FFFE0EDBCFE6FF7FEC34F0E55227
:1039B000E552E552E552000904E10101010E026FF2
:1039C00015D08F0EE66E020EE66EFD0EDBCFE6FF23
:1039D000FE0EDBCFE6FF7FEC34F0E552E552E55218
:1039E000E552000903E10101020E026FE552E7CF43
:1039F000D9FF1200D9CFE6FFE1CFD9FF510EE66E15
:103A0000020EE66EFD0EDBCFE6FFFE0EDBCFE6FF1D
:103A10007FEC34F0E552E552E552E552000903E14E
:103A20000101046B15D0550EE66E020EE66EFD0E1A
:103A3000DBCFE6FFFE0EDBCFE6FF7FEC34F0E55296
:103A4000E552E552E552000903E10101010E046F60
:103A5000E552E7CFD9FF1200D9CFE6FFE1CFD9FF7A
:103A6000590EE66E020EE66EFD0EDBCFE6FFFE0E91
:103A7000DBCFE6FF7FEC34F0E552E552E552E5524C
:103A8000000903E10101056B15D05B0EE66E020E25
:103A9000E66EFD0EDBCFE6FFFE0EDBCFE6FF7FEC32
:103AA00034F0E552E552E552E552000903E1010127
:103AB000010E056FE552E7CFD9FF1200D9CFE6FF1F
:103AC000E1CFD9FF590EE66E020EE66EFD0EDBCF9A
:103AD000E6FFFE0EDBCFE6FF7FEC34F0E552E55269
:103AE000E552E552000903E10101036B15D05B0EBD
:103AF000E66E020EE66EFD0EDBCFE6FFFE0EDBCFBE
:103B0000E6FF7FEC34F0E552E552E552E55200095C
:103B100003E10101010E036FE552E7CFD9FF120067
:103B2000D9CFE6FFE1CFD9FF1A0EE126D9CFE9FFC1
:103B3000DACFEAFF670EEE6E720EEE6E610EEE6E7B
:103B40006E0EEE6E740EEE6E650EEE6E640EEE6E22
:103B5000EE6AD950080FE96EDACFEAFF640EEE6E16
:103B6000650EEE6E6E0EEE6E690EEE6E650EEE6E0C
:103B7000640EEE6EEE6AD9500F0FE96EDACFEAFFEF
:103B8000740EEE6E720EEE6E750EEE6E650EEE6ECD
:103B9000EE6AD950140FE96EDACFEAFF660EEE6EC8
:103BA000610EEE6E6C0EEE6E730EEE6E650EEE6EC8
:103BB000EE6AD9CFE6FFDACFE6FFFD0EDBCFE6FFF8
:103BC000FE0EDBCFE6FF7FEC34F0E552E552E55226
:103BD000E552000903E10101086B47D0D950080FF5
:103BE000E66E000EDA20E66EFD0EDBCFE6FFFE0E7F
:103BF000DBCFE6FF7FEC34F0E552E552E552E552CB
:103C0000000904E10101010E086F2FD0D9500F0FF8
:103C1000E66E000EDA20E66EFD0EDBCFE6FFFE0E4E
:103C2000DBCFE6FF7FEC34F0E552E552E552E5529A
:103C3000000904E10101020E086F17D0D950140FDA
:103C4000E66E000EDA20E66EFD0EDBCFE6FFFE0E1E
:103C5000DBCFE6FF7FEC34F0E552E552E552E5526A
:103C6000000903E10101030E086F1A0EE15C02E294
:103C7000E16AE552E16EE552E7CFD9FF1200D9CFF4
:103C8000E6FFE1CFD9FF5D0EE66E020EE66EFD0E99
:103C9000DBCFE6FFFE0EDBCFE6FF7FEC34F0E55234
:103CA000E552E552E552000903E10101096B57D0E5
:103CB000620EE66E020EE66EFD0EDBCFE6FFFE0E36
:103CC000DBCFE6FF7FEC34F0E552E552E552E552FA
:103CD000000904E10101010E096F41D0670EE66E93
:103CE000020EE66EFD0EDBCFE6FFFE0EDBCFE6FF3B
:103CF0007FEC34F0E552E552E552E552000904E16B
:103D00000101020E096F2BD06C0EE66E020EE66EFC
:103D1000FD0EDBCFE6FFFE0EDBCFE6FF7FEC34F0DF
:103D2000E552E552E552E552000904E10101040EB5
:103D3000096F15D0730EE66E020EE66EFD0EDBCF38
:103D4000E6FFFE0EDBCFE6FF7FEC34F0E552E552F6
:103D5000E552E552000903E10101030E096FE55246
:103D6000E7CFD9FF1200D9CFE6FFE1CFD9FF1F0E71
:103D7000E126D9CFE9FFDACFEAFF310EEE6E300E41
:103D8000EE6EEE6AD950030FE96EDACFEAFF320E1B
:103D9000EE6E300EEE6EEE6AD950060FE96EDACF97
:103DA000EAFF330EEE6E300EEE6EEE6AD950090F5A
:103DB000E96EDACFEAFF340EEE6E300EEE6EEE6A8A
:103DC000D9500C0FE96EDACFEAFF350EEE6E300EE9
:103DD000EE6EEE6AD9500F0FE96EDACFEAFF360EBB
:103DE000EE6E300EEE6EEE6AD950120FE96EDACF3B
:103DF000EAFF370EEE6E300EEE6EEE6AD950150FFA
:103E0000E96EDACFEAFF380EEE6E300EEE6EEE6A35
:103E1000D950180FE96EDACFEAFF390EEE6E300E88
:103E2000EE6EEE6AD9501B0FE96EDACFEAFF310E63
:103E3000EE6E300EEE6E300EEE6EEE6AD9CFE6FF0D
:103E4000DACFE6FFFD0EDBCFE6FFFE0EDBCFE6FFAF
:103E50007FEC34F0E552E552E552E552000905E108
:103E60000A0E01010A6F0B6BE0D0D950030FE66E0A
:103E7000000EDA20E66EFD0EDBCFE6FFFE0EDBCF96
:103E8000E6FF7FEC34F0E552E552E552E5520009D9
:103E900005E1140E01010A6F0B6BC7D0D950060F54
:103EA000E66E000EDA20E66EFD0EDBCFE6FFFE0EBC
:103EB000DBCFE6FF7FEC34F0E552E552E552E55208
:103EC000000905E11E0E01010A6F0B6BAED0D9503F
:103ED000090FE66E000EDA20E66EFD0EDBCFE6FF80
:103EE000FE0EDBCFE6FF7FEC34F0E552E552E55203
:103EF000E552000905E1280E01010A6F0B6B95D010
:103F0000D9500C0FE66E000EDA20E66EFD0EDBCF08
:103F1000E6FFFE0EDBCFE6FF7FEC34F0E552E55224
:103F2000E552E552000905E1320E01010A6F0B6B03
:103F30007CD0D9500F0FE66E000EDA20E66EFD0E33
:103F4000DBCFE6FFFE0EDBCFE6FF7FEC34F0E55281
:103F5000E552E552E552000905E13C0E01010A6F08
:103F60000B6B63D0D950120FE66E000EDA20E66EAE
:103F7000FD0EDBCFE6FFFE0EDBCFE6FF7FEC34F07D
:103F8000E552E552E552E552000905E1460E010110
:103F90000A6F0B6B4AD0D950150FE66E000EDA206F
:103FA000E66EFD0EDBCFE6FFFE0EDBCFE6FF7FEC1D
:103FB00034F0E552E552E552E552000905E1500EB4
:103FC00001010A6F0B6B31D0D950180FE66E000E4D
:103FD000DA20E66EFD0EDBCFE6FFFE0EDBCFE6FF5E
:103FE0007FEC34F0E552E552E552E552000905E177
:103FF0005A0E01010A6F0B6B18D0D9501B0FE66ED9
:10400000000EDA20E66EFD0EDBCFE6FFFE0EDBCF04
:10401000E6FF7FEC34F0E552E552E552E552000947
:1040200004E1640E01010A6F0B6B1F0EE15C02E2FA
:10403000E16AE552E16EE552E7CFD9FF1200D9CF30
:10404000E6FFE1CFD9FFFD0EDBCFE6FFFE0EDBCFB3
:10405000E6FFE3EC36F0E552E552F3CF06F1F4CF9C
:0A40600007F1E552E7CFD9FF120087
:06406A0071EC25F0FB0ED5
:10407000DBCFF3FFDB06F35000090AE0BFEC25F0CD
:10408000FA0E2AEC26F0F3E1151CF1E1010E01D045
:10409000000EA0EF25F071EC25F03B0EE12402E3C9
:1040A000E168E652E16E010EDB6A020EDB6AF90E90
:1040B000DBCFF6FFFA0EDBCFF7FFFB0EDBCFF8FF0F
:1040C0000800F550DF6EDF5002E1C4EF24F0250E4A
:1040D000DF5C02E0B7EF24F0030EDB6A040EDB6A5C
:1040E000050EDB6A060EDB6A070EDB6AD9EC24F0EC
:1040F0002D0EDF5C0CE02B0EDF5C09E0200EDF5C98
:1041000006E0230EDF5C03E0300EDF5C1AE1DF50D7
:10411000300A14E0130A0FE0030A0AE00B0A05E074
:10412000060AE4E1030EDB80E1D7030EDB82DED773
:10413000030EDB84DBD7030EDB86D8D7030EDB88C8
:10414000D5D72A0EDF5C1BE1D5EC24F023EC25F05B
:1041500010E0030EDB8006680768130EDBCF0DF05E
:10416000140EDBCF0EF051EC3AF0040E04C0DBFF6E
:1041700003D0130E0CEC25F0D9EC24F00BD0090E73
:10418000DB6A7AEC25F003E0EEEC25F0FAD7090EB5
:104190000CEC25F0030EDBB0DB982E0EDF5C1BE190
:1041A000D9EC24F02A0EDF5C0BE1D5EC24F023ECF3
:1041B00025F003E1130E5EEC25F0D9EC24F00BD0D2
:1041C000090EDB6A7AEC25F003E0EEEC25F0FAD775
:1041D000090E5EEC25F0680EDF5C07E1D9EC24F0F7
:1041E000680EDF5C1DE1030E18D0740EDF5C17E073
:1041F0007A0EDF5C14E0480EDF5C06E0540EDF5CF4
:1042000003E05A0EDF5C02E1020E07D06C0EDF5CA9
:1042100003E06A0EDF5C04E1010EB1EC25F0C9DBBE
:10422000DF506E0A01E17FD31E0A01E192D1200A1C
:1042300001E18FD13F0A01E149D11A0A01E146D1DA
:104240000D0A01E143D1200A01E140D13A0A01E11E
:104250003DD1200A01E13AD1260A01E135D10D0A0A
:1042600001E132D11A0A01E1D9D0200A4AE0300A2C
:104270001FE0460A0EE0250A01E083D3D950F90F6A
:10428000E96EFF0EDA20EA6E010EEE5E000EEE5AC7
:10429000EE5ABFEC25F0250EE66E95DB03E1151C0A
:1042A00001E169D3BBEC25F001E26BD3DB2A69D3D2
:1042B000080EDB6A040EDB50010806E2040EDB0484
:1042C00083EC25F0DB508BDB080EDB5009E0030E9E
:1042D000DB50010B05E172DB01E04DD3080EDB6A18
:1042E00064DBEFCFDFFF33EC26F003E1151C01E1C7
:1042F00042D3BBEC25F001E3DB2A60DB01E141D3D3
:104300003AD3070EDB5002080FE1FFEC25F0030E55
:10431000C6EC25F00E0EEECFDBFF0F0EEECFDBFF6F
:10432000100EEECFDBFF20D0F70EDBCF17F0F80E2C
:10433000DBCF18F0020E175E000E185AF70E17C0EA
:10434000DBFFF80E18C0DBFF17C0E9FF18C0EAFF5B
:10435000B6EC25F0166A0E0E14C0DBFF0F0E15C06A
:10436000DBFF100E16C0DBFF0E0EDBCFE6FF0F0EDD
:10437000DBCFE6FF100EDBCFE6FF15EC35F0E552A4
:10438000E552E552130E05C0DBFF140E06C0DBFF3D
:10439000060EDB5005E0130EFAEC25F001E26ADBB5
:1043A0001EEC26F002E2130E37DBE1EC25F006E00E
:1043B000040EFAEC25F002E2050E2EDB030EDBB054
:1043C00005D0FCDA01E0D7D2080EDB6A090EDB6A01
:1043D0000E0EDBCFF6FF0F0EDBCFF7FF100EDBCF9D
:1043E000F8FF0800F550DF6EDF5014E024EC26F0F3
:1043F00011E233EC26F003E1151C01E1BCD2BBDB7A
:1044000001E3DB2A090EDB2AD9500E0FE96E000EFC
:10441000CBDBE7D7D3DA01E1B4D2ADD2C6DA110EE5
:10442000EECFDBFF120EEDCFDBFF110EDBCFE6FF91
:10443000120EDBCFE6FF07EC35F0E552E552130E26
:10444000F3CFDBFF140EF4CFDBFF060EDB5004E0EE
:10445000130ED0DB01E20EDB1EEC26F002E2130E9F
:10446000DBDAAFDB05E0040EC5DB02E2050ED4DAD1
:10447000030EDBB005D0A2DA01E07DD2080EDB6AC4
:10448000090EDB6A110EDBCFE9FF120EDBCFEAFF6C
:10449000EFCFDFFFDF5014E0D7DB12E2E4DB03E114
:1044A000151C01E168D267DB01E3DB2A090EDB2A78
:1044B000110EDB2ADBCFE9FF120EE8E3DB2AE6D799
:1044C0007DDA01E15ED257D2030EDB8E070EDB04EC
:1044D00010E195DB040E5ADB0A0EEECFDBFF0B0E6C
:1044E000EECFDBFF0C0EEECFDBFF0D0EEECFDBFFD2
:1044F0006CD0070EDB5003082CE1030EDBAE0DD0B1
:10450000B2DA020E76DAEFCF14F0156A166A176A7D
:1045100014AE39D01568166835D0F70EDBCF15F01C
:10452000F80EDBCF16F0020E155E000E165AF70ECF
:1045300015C0DBFFF80E16C0DBFF15C0E9FF16C083
:10454000EAFFEFCF14F00A0E14C0DBFF0B0EDB6A9C
:1045500038D0070EDB50020809E1030EDBAE04D0B1
:1045600059DB16AE10D00ED055DB0DD0030EDBAEEE
:1045700012D079DA020E3DDAF9DA166A176A15AE48
:1045800002D016681768E2DA0C0E16C0DBFF0D0EBB
:1045900017C0DBFF1AD0F70EDBCF16F0F80EDBCF1B
:1045A00017F0020E165E000E175AF70E16C0DBFF4C
:1045B000F80E17C0DBFF16C0E9FF17C0EAFFD6DA16
:1045C000C5DA0C0EDB6A0D0EDB6A060EDB5005E168
:1045D000010EF36E050EF3CFDBFF150EDB6A160E30
:1045E000DB6AD950370F146E000EDA20156E390EC3
:1045F00014C0DBFF3A0E15C0DBFF380EDB6A080E75
:10460000DB6A0A0EAEDADF50780A12E0200A10E008
:10461000280A0CE0200A0AE03F0A06E00D0A02E040
:10462000200A08E1020E05D0080E03D0080EDF268E
:10463000100E97DA030EDBBE02D0DB92DB94DB5068
:10464000800B24E08ADAD890030EEB50000A08E6CB
:10465000000EEE5C000EEE58000EEE58000EEE5806
:1046600015E213DA0B680C680D680E6857EC39F028
:104670000A0E00C0DBFF0B0E01C0DBFF0C0E02C0F8
:10468000DBFF0D0E03C0DBFF2D0E08D0030EDBA2F7
:1046900002D02B0E03D0DBA408D0200EF36E170E31
:1046A000F3CFDBFF150EDB2A02D0170EDB6A050EF7
:1046B000DB5003E1B7D901E189D0680E146E770EA3
:1046C000156E000E166E070EDBCF17F0186A196A0A
:1046D0001A6A17C00BF018C00CF019C00DF01AC000
:1046E0000EF0D3D97EEC3AF014500024F36E15503E
:1046F0000120F46E16500220F86EF4CFF7FFF3CFCE
:10470000F6FF0800090EF5CFDBFF580EDF5C0FE166
:10471000610EF36E090E7BD90AE3200E146E090EAA
:10472000DBCFE7FF1450E75E090EE7CFDBFF070E94
:10473000DBCF14F0156A166A176A0FDA14C00BF093
:1047400015C00CF016C00DF017C00EF0EECF04F03F
:10475000EECF05F0EECF06F0EFCF07F07EEC3AF0AB
:1047600007C0EDFF06C0EDFF05C0EDFF04C0EFFF81
:10477000390EDBCFE9FFDB063A0EDBCFEAFF01E2C1
:10478000DB06090EDBCFEFFF150EDB2A4BD995E1D7
:10479000030EDBA61DD06F0EDF5C06E1C1D918E366
:1047A000150EDB285BDA14D0780EDF5C09E0580EBA
:1047B000DF5C06E0620EDF5C03E0420EDF5C08E1D6
:1047C000020EF36E160EF3CFDBFF02D0150EDB6A7E
:1047D000030EDB50100B0EE0040EDBCF14F0050EC1
:1047E000DB50D880145406E2060EDB5003E1040EC1
:1047F000DB5034DA95D90AE2050EDBCFE7FF150E60
:10480000DB50E75E050EE7CFDBFF02D0050EDB6A6B
:10481000040EDBCF14F0160E45D9D880145414E2E0
:10482000160EDBCFE6FF150EDBCFE6FF040EDBCF67
:10483000E6FF050EDB50E552E75CE552D880E75411
:10484000E552D880E7545FD9030EDB50010B0BE132
:10485000080EDB5008E0B2D801E08DD0080EDB5026
:10486000BED8080EDB6A170EDB5007E088D9170E9A
:10487000F1D903E1151C01E17ED0160EDB5016E0E4
:104880007ED9300EE66E9FD802E1151C74E077D910
:10489000DFCFE6FF9DEC38F0E552E552E552F4CF6C
:1048A00015F00001F31C02E1151C65E0050EDBCFDD
:1048B00014F0160EDB50D880145409E2050EDBCF3D
:1048C000E7FF160EDB50E75E050EE7CFDBFF300E8D
:1048D000E66E050ECBD94FE1390EDB2ADBCFE9FFBF
:1048E0003A0E01E3DB2ADBCFEAFF090EEFCFDBFF55
:1048F000DB500EE044D9090EADD902E1151C3BE0B6
:10490000390EDB2ADBCFE9FF3A0EEDE3DB2AEBD7EA
:1049100055D831E1160EDBCFE6FF080EC3D8E552BD
:10492000E7245DD82ED0070EDB50030A1CE0010AF5
:1049300014E0030A07E07BD9DBCFEEFF020EDBCFEA
:10494000EDFF1FD0F5D8196A17AE02D018681968A4
:104950002CD8BCD819C0EEFF14D0EAD817BE1868FE
:1049600024D8B4D80ED063D9DBCFEFFF0AD07BD9DF
:1049700005E1151C03E1F368F46810D0FCD801E3ED
:10498000DB2A79D960EF20F0010EDBCF14F0020EA4
:10499000DBCF15F014C0F3FF15C0F4FF3B0EE15C54
:1049A00002E2E16AE552E16ECBD029D9020EC6EFF0
:1049B00025F061D90800F550DF6E1200200EE66E7A
:1049C000080E36EF26F09DEC38F0E552E552E55240
:1049D000F3CF14F0F4CF15F00001F31C1200146EA5
:1049E000156AD950010F4DD91450EE261550ED22FD
:1049F0001200185E000E195AF70E18C0DBFFF80EF1
:104A000019C0DBFF18C0E9FF19C0EAFF1200DBCFB5
:104A1000F4FFF350F45C1200DB50E76E040EE7CFB6
:104A2000DBFF12000A0EDBCF14F00B0EDBCF15F00C
:104A30000C0EDBCF16F00D0EDBCF17F01450151057
:104A4000161017101200130EEECFDBFF140EEDCF71
:104A5000DBFF130EDBCF14F0140EDBCF15F00001DB
:104A6000800E15141200F70EDBCF18F0F80EDBCF16
:104A700019F01200050EDB50E66ED950130F01D964
:104A8000E552E750EE6EED6A12000A0EDBCF04F03D
:104A90000B0EDBCF05F00C0EDBCF06F00D0EDBCFDF
:104AA00007F01200DBCFE6FF150EDBCFE6FF050EA9
:104AB000DB50E552E724E552E7241200DB50CED864
:104AC000010EF36E060EF3CFDBFF1200EE50EFCFB8
:104AD000EAFFE96E16C0EEFF17C0EEFF18C0EEFF4A
:104AE0001200D9CFE6FFDACFE6FFE1CFD9FFE2CF60
:104AF000DAFF1200DFCFE6FFE66A7AEC3BF0E55220
:104B0000E552F3501200E76E080EE7CFDBFF12000C
:104B1000EECF14F0EECF15F0EFCF16F0176A1200BB
:104B2000050EDBCF14F0150EDB50D88014541200A4
:104B3000010EDBCF16F0020EDBCF17F0186A120061
:104B4000E552E5CFDAFFE7CFD9FF12000A0E14C015
:104B5000DBFF0B0E15C0DBFF1200D9500A0F41EF2F
:104B600026F0F36E070EF3CFDBFF1200EECF14F04A
:104B7000EFCF15F01200010EDB2A020E1200FC0E20
:104B8000DBCFE6FFFD0EDBCFE6FF1200145E000E6A
:104B9000155AF70E14C0DBFFF80E15C0DBFF14C06A
:104BA000E9FF15C0EAFF1200DA20EA6EEF2AEECF25
:104BB000F6FF000EEF22EECFF7FFEF22EECFF8FF69
:104BC0001200040EDBCFE6FF130EDB50E552E75C6C
:104BD0009ADFDB5004DF060EDB501200090EDB50BB
:104BE0000A0DF350DF24D00FE76E090EE7CFDBFF8D
:104BF000D9EF24F0DB50F36E050E07EF25F0F70E2A
:104C0000DBCF14F0F80EDBCF15F01200DFCFE6FF9C
:104C1000E3EF24F028DF030EECDE88EF25F035EC1F
:104C200020F0E552E552E552E55200091200BDDEE2
:104C3000EE50EFCFEAFFE96E010E1200130EDB50CB
:104C4000F36E040E07EF25F0040EDB50F36E090E31
:104C500007EF25F0DBCFE6FFE3EF24F0E76E050E6C
:104C6000E7CFDBFF12008BDF06EF26F0DBCFE6FF9E
:104C700086DF0FEF26F0D950F90FE96EFF0ED4EF63
:0C4C800025F0E96E000EDA20EA6E12004A
:044C8C00D9CFE6FF97
:104C9000E1CFD9FF020EE126DE6ADD6ADECF14F035
:104CA000DDCF15F000011550F019E8AE02D0F03557
:104CB00004D0EF51145CF051155801E38DD0DECFD4
:104CC000E9FFDDCFEAFF070EEA02F3CFEAFF070EA6
:104CD000E902F3CFE9FFF450EA26F00EE926010ECF
:104CE000EA22EF6ADECFE9FFDDCFEAFF070EEA0234
:104CF000F3CFEAFF070EE902F3CFE9FFF450EA260B
:104D0000F00EE926010EEA22EE52010EEF6EDECF22
:104D1000E9FFDDCFEAFF070EEA02F3CFEAFF070E55
:104D2000E902F3CFE9FFF450EA26F00EE926010E7E
:104D3000EA22030EE926000EEA22EDC0EFFFDECFE5
:104D4000E9FFDDCFEAFF070EEA02F3CFEAFF070E25
:104D5000E902F3CFE9FFF450EA26F00EE926010E4E
:104D6000EA22040EE926000EEA22EDC0EFFFDECFB4
:104D7000E9FFDDCFEAFF070EEA02F3CFEAFF070EF5
:104D8000E902F3CFE9FFF450EA26F00EE926010E1E
:104D9000EA22050EE926000EEA22EDC0EFFFDECF83
:104DA000E9FFDDCFEAFF070EEA02F3CFEAFF070EC5
:104DB000E902F3CFE9FFF450EA26F00EE926010EEE
:104DC000EA22060EE926000EEA22010EEF6EDF2A25
:104DD000010E01E3DB2A62D70101F26B0101010E32
:104DE000F96F020EE15C02E2E16AE552E16EE55222
:104DF000E7CFD9FF1200D9CFE6FFE1CFD9FF020EEE
:104E0000E126DE6ADD6ADECF14F0DDCF15F00001A9
:104E10001550F019E8AE02D0F03504D0EF51145C13
:104E2000F051155801E3A9D0DECFE9FFDDCFEAFF4D
:104E3000070EEA02F3CFEAFF070EE902F3CFE9FF1C
:104E4000F450EA26F00EE926010EEA22020EE926C7
:104E5000000EEA22EFCF14F0FE0EDB50145C13E1DB
:104E6000DECFE9FFDDCFEAFF070EEA02F3CFEAFF6C
:104E7000070EE902F3CFE9FFF450EA26F00EE92627
:104E8000010EEA22EF6ADECFE9FFDDCFEAFF070E6F
:104E9000EA02F3CFEAFF070EE902F3CFE9FFF4508D
:104EA000EA26F00EE926010EEA22EE52010EEF6E1E
:104EB000DECFE9FFDDCFEAFF070EEA02F3CFEAFF1C
:104EC000070EE902F3CFE9FFF450EA26F00EE926D7
:104ED000010EEA22030EE926000EEA22EDC0EFFFE2
:104EE000DECFE9FFDDCFEAFF070EEA02F3CFEAFFEC
:104EF000070EE902F3CFE9FFF450EA26F00EE926A7
:104F0000010EEA22040EE926000EEA22EDC0EFFFB0
:104F1000DECFE9FFDDCFEAFF070EEA02F3CFEAFFBB
:104F2000070EE902F3CFE9FFF450EA26F00EE92676
:104F3000010EEA22050EE926000EEA22EDC0EFFF7F
:104F4000DECFE9FFDDCFEAFF070EEA02F3CFEAFF8B
:104F5000070EE902F3CFE9FFF450EA26F00EE92646
:104F6000010EEA22060EE926000EEA22010EEF6E7D
:104F7000DF2A010E01E3DB2A46D7020EE15C02E2E2
:104F8000E16AE552E16EE552E7CFD9FF1200D9CFD1
:104F9000E6FFE1CFD9FF020EE126FE0EDBCFE6FFF2
:104FA000A3DAE552000906E1FE0EDBCFE6FFE6ECF0
:104FB0002BF0E552DE6ADD6ADECF14F0DDCF15F0AE
:104FC00000011550F019E8AE02D0F03504D0EF51D1
:104FD000145CF051155867E2DECFE9FFDDCFEAFF40
:104FE000070EEA02F3CFEAFF070EE902F3CFE9FF6B
:104FF000F450EA26F00EE926010EEA22EF044EE113
:10500000DECFE9FFDDCFEAFF070EEA02F3CFEAFFCA
:10501000070EE902F3CFE9FFF450EA26F00EE92685
:10502000010EEA22020EE926000EEA22EFCF14F06A
:10503000FE0EDB50145C32E1DECFE9FFDDCFEAFF8C
:10504000070EEA02F3CFEAFF070EE902F3CFE9FF0A
:10505000F450EA26F00EE926010EEA22030EE926B4
:10506000000EEA22FC0EDBCFEFFFDECFE9FFDDCF43
:10507000EAFF070EEA02F3CFEAFF070EE902F3CFD9
:10508000E9FFF450EA26F00EE926010EEA22040EAA
:10509000E926000EEA22FD0EDBCFEFFFDF2A010E2C
:1050A00001E3DB2A89D7020EE15C02E2E16AE55204
:1050B000E16EE552E7CFD9FF1200D9CFE6FFE1CF8D
:1050C000D9FF020EE126FE0EDBCFE6FF0DDAE55238
:1050D000000905E1FE0EDBCFE6FF78DBE552DE6A74
:1050E000DD6ADECF14F0DDCF15F000011550F019A8
:1050F000E8AE02D0F03504D0EF51145CF0511558F1
:105100004EE2DECFE9FFDDCFEAFF070EEA02F3CF82
:10511000EAFF070EE902F3CFE9FFF450EA26F00EAA
:10512000E926010EEA22EF0435E1DECFE9FFDDCF0B
:10513000EAFF070EEA02F3CFEAFF070EE902F3CF18
:10514000E9FFF450EA26F00EE926010EEA22020EEB
:10515000E926000EEA22EFCF14F0FE0EDB50145CBD
:1051600019E1DECFE9FFDDCFEAFF070EEA02F3CF58
:10517000EAFF070EE902F3CFE9FFF450EA26F00E4A
:10518000E926010EEA22050EE926000EEA22FD0EAE
:10519000DBCFEFFFDF2A010E01E3DB2AA2D7020EED
:1051A000E15C02E2E16AE552E16EE552E7CFD9FF48
:1051B0001200D9CFE6FFE1CFD9FF030EE126DE6A68
:1051C000DD6ADECF14F0DDCF15F000011550F019C7
:1051D000E8AE02D0F03504D0EF51145CF051155810
:1051E00001E321D1DECFE9FFDDCFEAFF070EEA02BE
:1051F000F3CFEAFF070EE902F3CFE9FFF450EA2606
:10520000F00EE926010EEA22EF0401E007D1DECF1D
:10521000E9FFDDCFEAFF070EEA02F3CFEAFF070E50
:10522000E902F3CFE9FFF450EA26F00EE926010E79
:10523000EA22020EE926000EEA22EFCF14F0FE0E5B
:10524000DB50145C01E0EAD0DECFE9FFDDCFEAFFFE
:10525000070EEA02F3CFEAFF070EE902F3CFE9FFF8
:10526000F450EA26F00EE926010EEA22040EE926A1
:10527000000EEA22EFCF15F0166A15BE166800017F
:10528000ED51151802E1EE51161801E1C7D0DECF3D
:10529000E9FFDDCFEAFF070EEA02F3CFEAFF070ED0
:1052A000E902F3CFE9FFF450EA26F00EE926010EF9
:1052B000EA22030EE926000EEA22EFCF17F0186A61
:1052C00017BE18680001ED51171802E1EE511818C9
:1052D00001E1A4D0DECFE9FFDDCFEAFF070EEA024D
:1052E000F3CFEAFF070EE902F3CFE9FFF450EA2615
:1052F000F00EE926010EEA22EE52EF6A06EC00F00B
:10530000020A09E0030A01E00CD0020EF36E020E5D
:10531000F3CFDBFF06D0010EF36E020EF3CFDBFFFF
:1053200000D0DECFE9FFDDCFEAFF070EEA02F3CFC0
:10533000EAFF070EE902F3CFE9FFF450EA26F00E88
:10534000E926010EEA22020EE926000EEA22EF50BB
:10535000E66E3C0EE66EE66ADECFE9FFDDCFEAFFE1
:10536000070EEA02F3CFEAFF070EE902F3CFE9FFE7
:10537000F450EA26F00EE926010EEA22050EE9268F
:10538000000EEA22EF50E66EDECFE9FFDDCFEAFF46
:10539000070EEA02F3CFEAFF070EE902F3CFE9FFB7
:1053A000F450EA26F00EE926010EEA22030EE92661
:1053B000000EEA22EF50E66EEDEC16F0F3CF14F09B
:1053C000F4CF15F014C0E6FF15C0E6FFDECFE9FF0D
:1053D000DDCFEAFF070EEA02F3CFEAFF070EE9028C
:1053E000F3CFE9FFF450EA26F00EE926010EEA2297
:1053F000040EE926000EEA22EF50E66E06EC00F0FD
:10540000E66E020EDBCFE6FF6EEC0DF0166E0A0EB6
:10541000E15E16500001F12B000EF223DF2A010E8F
:1054200001E3DB2ACED6030EE15C02E2E16AE5523B
:10543000E16EE552E7CFD9FF1200D9CFE6FFE1CF09
:10544000D9FF020EE126DE6ADD6ADECF14F0DDCF81
:1054500015F000011550F019E8AE02D0F03504D077
:10546000EF51145CF051155835E2DECFE9FFDDCF86
:10547000EAFF070EEA02F3CFEAFF070EE902F3CFD5
:10548000E9FFF450EA26F00EE926010EEA22020EA8
:10549000E926000EEA22EFCF14F0FE0EDB50145C7A
:1054A00014E1DECFE9FFDDCFEAFF070EEA02F3CF1A
:1054B000EAFF070EE902F3CFE9FFF450EA26F00E07
:1054C000E926010EEA22010EEF6EDF2A010E01E34A
:1054D000DB2ABBD7020EE15C02E2E16AE552E16E33
:1054E000E552E7CFD9FF1200D9CFE6FFE1CFD9FFD0
:1054F000030EE126010EF36E020EF3CFDBFFDE6A30
:10550000DD6ADECF14F0DDCF15F000011550F01983
:10551000E8AE02D0F03504D0EF51145CF0511558CC
:1055200043E2DECFE9FFDDCFEAFF070EEA02F3CF69
:10553000EAFF070EE902F3CFE9FFF450EA26F00E86
:10554000E926010EEA22020EE926000EEA22EFCF3A
:1055500014F0FE0EDB50145C22E1DECFE9FFDDCF5C
:10556000EAFF070EEA02F3CFEAFF070EE902F3CFE4
:10557000E9FFF450EA26F00EE926010EEA22EF5088
:10558000010A06E0010A01E009D0020EDB6A06D03A
:10559000010EF36E020EF3CFDBFF00D005D0DF2A41
:1055A000010E01E3DB2AADD7020EDB5000D0146EF2
:1055B000030EE15C02E2E16AE552E16E1450E5524D
:1055C000E7CFD9FF1200D9CFE6FFE1CFD9FF020E16
:1055D000E126DE6ADD6ADECF14F0DDCF15F00001D2
:1055E0001550F019E8AE02D0F03504D0EF51145C3C
:1055F000F05115586EE2DECFE9FFDDCFEAFF070E6E
:10560000EA02F3CFEAFF070EE902F3CFE9FFF45015
:10561000EA26F00EE926010EEA22020EE926000E25
:10562000EA22EFCF14F0FE0EDB50145C4DE1DECF2A
:10563000E9FFDDCFEAFF070EEA02F3CFEAFF070E2C
:10564000E902F3CFE9FFF450EA26F00EE926010E55
:10565000EA22060EE926000EEA22EF50010A1CE0BB
:10566000010A01E031D0DECFE9FFDDCFEAFF070E0E
:10567000EA02F3CFEAFF070EE902F3CFE9FFF450A5
:10568000EA26F00EE926010EEA22060EE926000EB1
:10569000EA22010EEF6E18D0DECFE9FFDDCFEAFF80
:1056A000070EEA02F3CFEAFF070EE902F3CFE9FFA4
:1056B000F450EA26F00EE926010EEA22060EE9264B
:1056C000000EEA22EF6A00D0DF2A010E01E3DB2A96
:1056D00082D7020EE15C02E2E16AE552E16EE55238
:1056E000E7CFD9FF1200D9CFE6FFE1CFD9FF030EF4
:1056F000E126010EDF6E010EDB6A020EDB6A010E8F
:10570000DBCF14F0020EDBCF15F000011550F019BD
:10571000E8AE02D0F03504D0EF51145CF0511558CA
:1057200047E2010EDBCFE9FF020EDBCFEAFF070EF7
:10573000EA02F3CFEAFF070EE902F3CFE9FFF450E4
:10574000EA26F00EE926010EEA22020EE926000EF4
:10575000EA22EFCF14F0FE0EDB50145C23E1010EC1
:10576000DBCFE9FF020EDBCFEAFF070EEA02F3CF41
:10577000EAFF070EE902F3CFE9FFF450EA26F00E44
:10578000E926010EEA22060EE926000EEA22EF5073
:10579000010A05E0010A01E005D0DF6A03D0010E2D
:1057A000DF6E00D0010EDB2A020E01E3DB2AA7D751
:1057B000DF5000D0146E030EE15C02E2E16AE552B4
:1057C000E16E1450E552E7CFD9FF1200D9CFE6FFC2
:1057D000E1CFD9FFFE0EDB50010A10E0010A01E023
:1057E0001BD0020EE66EE66ADFEC38F0E552E552B9
:1057F000000903E1E66A21DEE5520ED0050EE66EF1
:10580000E66ADFEC38F0E552E552000904E1010EEA
:10581000E66E13DEE55200D0E552E7CFD9FF120065
:10582000D9CFE6FFE1CFD9FF030EE126DE6ADD6ABC
:10583000010EF36E020EF3CFDBFFFB0EDBCF06F0A3
:10584000FC0EDBCF07F0050E061801E1075027E03C
:10585000040E061801E107501DE0030E061801E1D1
:10586000075013E0020E061801E107500AE0010E8E
:10587000061801E1075001E017D0640EDE6EDD6A04
:1058800013D0C80EDE6EDD6A0FD02C0EDE6E010E58
:10589000DD6E0AD0900EDE6E010EDD6E05D0F40EC8
:1058A000DE6E010EDD6E00D0E66AFCEC2DF0E552F6
:1058B000030801E089D0FD0EDBCF14F0FE0EDBCF34
:1058C00015F00001F351141802E1F451151803E129
:1058D000020EDB6A69D0FD0EDBCF14F0FE0EDBCFCB
:1058E00015F00001F4511518E8AE02D0153404D0BB
:1058F0001450F35D1550F4591DE2DE500001F327FA
:10590000DD500001F4230001F43504E2F351FF08F7
:10591000030EF45506E2FD0EDBCFF3F0FE0EDBCFF7
:10592000F4F0F3C0E6FFF4C0E6FF22EC3AF0E552F3
:10593000E5523AD0FD0EDBCF14F0FE0EDBCF15F0B2
:1059400000011550F419E8AE02D0F43504D0F3513B
:10595000145CF451155828E2000EDB500001F35F8F
:10596000010EDB500001F45BFD0EDBCF14F0FE0EE8
:10597000DBCF15F00001F4511518E8AE02D0153454
:1059800004D01450F35D1550F45906E2FD0EDBCF40
:10599000F3F0FE0EDBCFF4F0F3C0E6FFF4C0E6FF59
:1059A00022EC3AF0E552E552000EE66EE66A010E90
:1059B000E66EE66A000EE66EE66AE66A47EC2EF0F0
:1059C000146E070EE15E1450020EDB5000D0146E10
:1059D000030EE15C02E2E16AE552E16E1450E55229
:1059E000E7CFD9FF1200D9CFE6FFE1CFD9FF030EF1
:1059F000E126DE6ADD6A010EF36E020EF3CFDBFFF5
:105A0000FB0EDBCF06F0FC0EDBCF07F0050E061811
:105A100001E1075027E0040E061801E107501DE0E0
:105A2000030E061801E1075013E0020E061801E10B
:105A300007500AE0010E061801E1075001E017D0F7
:105A4000640EDE6EDD6A13D0C80EDE6EDD6A0FD026
:105A50002C0EDE6E010EDD6E0AD0900EDE6E010E93
:105A6000DD6E05D0F40EDE6E010EDD6E00D0E66A4E
:105A7000FCEC2DF0E552030801E089D0FD0EDBCFF0
:105A800014F0FE0EDBCF15F00001F551141802E101
:105A9000F651151803E1020EDB6A69D0FD0EDBCF6B
:105AA00014F0FE0EDBCF15F00001F6511518E8AE2C
:105AB00002D0153404D01450F55D1550F6591DE28E
